{
	"contracts/NewPINK/PINK_TOKEN.sol": {
		"PinkToken": {
			"abi": [
				{
					"inputs": [],
					"stateMutability": "nonpayable",
					"type": "constructor"
				},
				{
					"anonymous": false,
					"inputs": [
						{
							"indexed": true,
							"internalType": "address",
							"name": "owner",
							"type": "address"
						},
						{
							"indexed": true,
							"internalType": "address",
							"name": "spender",
							"type": "address"
						},
						{
							"indexed": false,
							"internalType": "uint256",
							"name": "value",
							"type": "uint256"
						}
					],
					"name": "Approval",
					"type": "event"
				},
				{
					"anonymous": false,
					"inputs": [
						{
							"indexed": true,
							"internalType": "address",
							"name": "previousOwner",
							"type": "address"
						},
						{
							"indexed": true,
							"internalType": "address",
							"name": "newOwner",
							"type": "address"
						}
					],
					"name": "OwnershipTransferred",
					"type": "event"
				},
				{
					"anonymous": false,
					"inputs": [
						{
							"indexed": true,
							"internalType": "address",
							"name": "from",
							"type": "address"
						},
						{
							"indexed": true,
							"internalType": "address",
							"name": "to",
							"type": "address"
						},
						{
							"indexed": false,
							"internalType": "uint256",
							"name": "value",
							"type": "uint256"
						}
					],
					"name": "Transfer",
					"type": "event"
				},
				{
					"inputs": [],
					"name": "LOCK",
					"outputs": [
						{
							"internalType": "bool",
							"name": "",
							"type": "bool"
						}
					],
					"stateMutability": "view",
					"type": "function"
				},
				{
					"inputs": [],
					"name": "MAX_SUPPLY",
					"outputs": [
						{
							"internalType": "uint256",
							"name": "",
							"type": "uint256"
						}
					],
					"stateMutability": "view",
					"type": "function"
				},
				{
					"inputs": [],
					"name": "MAX_TRANSFER",
					"outputs": [
						{
							"internalType": "uint256",
							"name": "",
							"type": "uint256"
						}
					],
					"stateMutability": "view",
					"type": "function"
				},
				{
					"inputs": [
						{
							"internalType": "address",
							"name": "owner",
							"type": "address"
						},
						{
							"internalType": "address",
							"name": "spender",
							"type": "address"
						}
					],
					"name": "allowance",
					"outputs": [
						{
							"internalType": "uint256",
							"name": "",
							"type": "uint256"
						}
					],
					"stateMutability": "view",
					"type": "function"
				},
				{
					"inputs": [
						{
							"internalType": "address",
							"name": "spender",
							"type": "address"
						},
						{
							"internalType": "uint256",
							"name": "amount",
							"type": "uint256"
						}
					],
					"name": "approve",
					"outputs": [
						{
							"internalType": "bool",
							"name": "",
							"type": "bool"
						}
					],
					"stateMutability": "nonpayable",
					"type": "function"
				},
				{
					"inputs": [
						{
							"internalType": "address",
							"name": "account",
							"type": "address"
						}
					],
					"name": "balanceOf",
					"outputs": [
						{
							"internalType": "uint256",
							"name": "",
							"type": "uint256"
						}
					],
					"stateMutability": "view",
					"type": "function"
				},
				{
					"inputs": [
						{
							"internalType": "uint256",
							"name": "amount",
							"type": "uint256"
						}
					],
					"name": "changeMaxTransfer",
					"outputs": [
						{
							"internalType": "uint256",
							"name": "",
							"type": "uint256"
						}
					],
					"stateMutability": "nonpayable",
					"type": "function"
				},
				{
					"inputs": [],
					"name": "decimals",
					"outputs": [
						{
							"internalType": "uint8",
							"name": "",
							"type": "uint8"
						}
					],
					"stateMutability": "view",
					"type": "function"
				},
				{
					"inputs": [
						{
							"internalType": "address",
							"name": "spender",
							"type": "address"
						},
						{
							"internalType": "uint256",
							"name": "subtractedValue",
							"type": "uint256"
						}
					],
					"name": "decreaseAllowance",
					"outputs": [
						{
							"internalType": "bool",
							"name": "",
							"type": "bool"
						}
					],
					"stateMutability": "nonpayable",
					"type": "function"
				},
				{
					"inputs": [],
					"name": "flipLock",
					"outputs": [
						{
							"internalType": "bool",
							"name": "",
							"type": "bool"
						}
					],
					"stateMutability": "nonpayable",
					"type": "function"
				},
				{
					"inputs": [
						{
							"internalType": "address",
							"name": "spender",
							"type": "address"
						},
						{
							"internalType": "uint256",
							"name": "addedValue",
							"type": "uint256"
						}
					],
					"name": "increaseAllowance",
					"outputs": [
						{
							"internalType": "bool",
							"name": "",
							"type": "bool"
						}
					],
					"stateMutability": "nonpayable",
					"type": "function"
				},
				{
					"inputs": [],
					"name": "name",
					"outputs": [
						{
							"internalType": "string",
							"name": "",
							"type": "string"
						}
					],
					"stateMutability": "view",
					"type": "function"
				},
				{
					"inputs": [],
					"name": "owner",
					"outputs": [
						{
							"internalType": "address",
							"name": "",
							"type": "address"
						}
					],
					"stateMutability": "view",
					"type": "function"
				},
				{
					"inputs": [],
					"name": "renounceOwnership",
					"outputs": [],
					"stateMutability": "nonpayable",
					"type": "function"
				},
				{
					"inputs": [],
					"name": "symbol",
					"outputs": [
						{
							"internalType": "string",
							"name": "",
							"type": "string"
						}
					],
					"stateMutability": "view",
					"type": "function"
				},
				{
					"inputs": [],
					"name": "totalSupply",
					"outputs": [
						{
							"internalType": "uint256",
							"name": "",
							"type": "uint256"
						}
					],
					"stateMutability": "view",
					"type": "function"
				},
				{
					"inputs": [
						{
							"internalType": "address",
							"name": "to",
							"type": "address"
						},
						{
							"internalType": "uint256",
							"name": "amount",
							"type": "uint256"
						}
					],
					"name": "transfer",
					"outputs": [
						{
							"internalType": "bool",
							"name": "",
							"type": "bool"
						}
					],
					"stateMutability": "nonpayable",
					"type": "function"
				},
				{
					"inputs": [
						{
							"internalType": "address",
							"name": "from",
							"type": "address"
						},
						{
							"internalType": "address",
							"name": "to",
							"type": "address"
						},
						{
							"internalType": "uint256",
							"name": "amount",
							"type": "uint256"
						}
					],
					"name": "transferFrom",
					"outputs": [
						{
							"internalType": "bool",
							"name": "",
							"type": "bool"
						}
					],
					"stateMutability": "nonpayable",
					"type": "function"
				},
				{
					"inputs": [
						{
							"internalType": "address",
							"name": "newOwner",
							"type": "address"
						}
					],
					"name": "transferOwnership",
					"outputs": [],
					"stateMutability": "nonpayable",
					"type": "function"
				}
			],
			"devdoc": {
				"kind": "dev",
				"methods": {
					"allowance(address,address)": {
						"details": "See {IERC20-allowance}."
					},
					"approve(address,uint256)": {
						"details": "See {IERC20-approve}. NOTE: If `amount` is the maximum `uint256`, the allowance is not updated on `transferFrom`. This is semantically equivalent to an infinite approval. Requirements: - `spender` cannot be the zero address."
					},
					"balanceOf(address)": {
						"details": "See {IERC20-balanceOf}."
					},
					"decimals()": {
						"details": "Returns the number of decimals used to get its user representation. For example, if `decimals` equals `2`, a balance of `505` tokens should be displayed to a user as `5.05` (`505 / 10 ** 2`). Tokens usually opt for a value of 18, imitating the relationship between Ether and Wei. This is the value {ERC20} uses, unless this function is overridden; NOTE: This information is only used for _display_ purposes: it in no way affects any of the arithmetic of the contract, including {IERC20-balanceOf} and {IERC20-transfer}."
					},
					"decreaseAllowance(address,uint256)": {
						"details": "Atomically decreases the allowance granted to `spender` by the caller. This is an alternative to {approve} that can be used as a mitigation for problems described in {IERC20-approve}. Emits an {Approval} event indicating the updated allowance. Requirements: - `spender` cannot be the zero address. - `spender` must have allowance for the caller of at least `subtractedValue`."
					},
					"increaseAllowance(address,uint256)": {
						"details": "Atomically increases the allowance granted to `spender` by the caller. This is an alternative to {approve} that can be used as a mitigation for problems described in {IERC20-approve}. Emits an {Approval} event indicating the updated allowance. Requirements: - `spender` cannot be the zero address."
					},
					"name()": {
						"details": "Returns the name of the token."
					},
					"owner()": {
						"details": "Returns the address of the current owner."
					},
					"renounceOwnership()": {
						"details": "Leaves the contract without owner. It will not be possible to call `onlyOwner` functions anymore. Can only be called by the current owner. NOTE: Renouncing ownership will leave the contract without an owner, thereby removing any functionality that is only available to the owner."
					},
					"symbol()": {
						"details": "Returns the symbol of the token, usually a shorter version of the name."
					},
					"totalSupply()": {
						"details": "See {IERC20-totalSupply}."
					},
					"transfer(address,uint256)": {
						"details": "See {IERC20-transfer}. Requirements: - `to` cannot be the zero address. - the caller must have a balance of at least `amount`. - the caller must not be transferring more than MAX_TRANSFER while LOCK is true."
					},
					"transferFrom(address,address,uint256)": {
						"details": "See {IERC20-transferFrom}. Emits an {Approval} event indicating the updated allowance. This is not required by the EIP. See the note at the beginning of {ERC20}. NOTE: Does not update the allowance if the current allowance is the maximum `uint256`. Requirements: - the caller must not be transferring more than MAX_TRANSFER while LOCK is true. - `from` and `to` cannot be the zero address. - `from` must have a balance of at least `amount`. - the caller must have allowance for ``from``'s tokens of at least `amount`."
					},
					"transferOwnership(address)": {
						"details": "Transfers ownership of the contract to a new account (`newOwner`). Can only be called by the current owner."
					}
				},
				"version": 1
			},
			"evm": {
				"assembly": "    /* \"contracts/NewPINK/PINK_TOKEN.sol\":185:2885  contract PinkToken is ERC20, Ownable {\r... */\n  mstore(0x40, 0x80)\n    /* \"contracts/NewPINK/PINK_TOKEN.sol\":291:301  1000000000 */\n  0x3b9aca00\n    /* \"contracts/NewPINK/PINK_TOKEN.sol\":263:301  uint256 public MAX_SUPPLY = 1000000000 */\n  0x06\n  sstore\n    /* \"contracts/NewPINK/PINK_TOKEN.sol\":615:620  false */\n  0x00\n    /* \"contracts/NewPINK/PINK_TOKEN.sol\":596:620  bool public LOCK = false */\n  0x07\n  exp(0x0100, 0x00)\n  dup2\n  sload\n  dup2\n  0xff\n  mul\n  not\n  and\n  swap1\n  dup4\n  iszero\n  iszero\n  mul\n  or\n  swap1\n  sstore\n  pop\n    /* \"contracts/NewPINK/PINK_TOKEN.sol\":665:894  constructor() ERC20(\"Pink\", \"PINK\") {        \r... */\n  callvalue\n  dup1\n  iszero\n  tag_1\n  jumpi\n  0x00\n  dup1\n  revert\ntag_1:\n  pop\n    /* \"@openzeppelin/contracts@4.7.2/token/ERC20/ERC20.sol\":1978:2091  constructor(string memory name_, string memory symbol_) {... */\n  mload(0x40)\n  dup1\n  0x40\n  add\n  0x40\n  mstore\n  dup1\n  0x04\n  dup2\n  mstore\n  0x20\n  add\n  0x50696e6b00000000000000000000000000000000000000000000000000000000\n  dup2\n  mstore\n  pop\n  mload(0x40)\n  dup1\n  0x40\n  add\n  0x40\n  mstore\n  dup1\n  0x04\n  dup2\n  mstore\n  0x20\n  add\n  0x50494e4b00000000000000000000000000000000000000000000000000000000\n  dup2\n  mstore\n  pop\n    /* \"@openzeppelin/contracts@4.7.2/token/ERC20/ERC20.sol\":2052:2057  name_ */\n  dup2\n    /* \"@openzeppelin/contracts@4.7.2/token/ERC20/ERC20.sol\":2044:2049  _name */\n  0x03\n    /* \"@openzeppelin/contracts@4.7.2/token/ERC20/ERC20.sol\":2044:2057  _name = name_ */\n  swap1\n  dup1\n  mload\n  swap1\n  0x20\n  add\n  swap1\n  tag_6\n  swap3\n  swap2\n  swap1\n  tag_7\n  jump\t// in\ntag_6:\n  pop\n    /* \"@openzeppelin/contracts@4.7.2/token/ERC20/ERC20.sol\":2077:2084  symbol_ */\n  dup1\n    /* \"@openzeppelin/contracts@4.7.2/token/ERC20/ERC20.sol\":2067:2074  _symbol */\n  0x04\n    /* \"@openzeppelin/contracts@4.7.2/token/ERC20/ERC20.sol\":2067:2084  _symbol = symbol_ */\n  swap1\n  dup1\n  mload\n  swap1\n  0x20\n  add\n  swap1\n  tag_8\n  swap3\n  swap2\n  swap1\n  tag_7\n  jump\t// in\ntag_8:\n  pop\n    /* \"@openzeppelin/contracts@4.7.2/token/ERC20/ERC20.sol\":1978:2091  constructor(string memory name_, string memory symbol_) {... */\n  pop\n  pop\n    /* \"@openzeppelin/contracts@4.7.2/access/Ownable.sol\":936:968  _transferOwnership(_msgSender()) */\n  tag_10\n    /* \"@openzeppelin/contracts@4.7.2/access/Ownable.sol\":955:967  _msgSender() */\n  tag_11\n    /* \"@openzeppelin/contracts@4.7.2/access/Ownable.sol\":955:965  _msgSender */\n  shl(0x20, tag_12)\n    /* \"@openzeppelin/contracts@4.7.2/access/Ownable.sol\":955:967  _msgSender() */\n  0x20\n  shr\n  jump\t// in\ntag_11:\n    /* \"@openzeppelin/contracts@4.7.2/access/Ownable.sol\":936:954  _transferOwnership */\n  shl(0x20, tag_13)\n    /* \"@openzeppelin/contracts@4.7.2/access/Ownable.sol\":936:968  _transferOwnership(_msgSender()) */\n  0x20\n  shr\n  jump\t// in\ntag_10:\n    /* \"contracts/NewPINK/PINK_TOKEN.sol\":720:768  _mint(msg.sender, MAX_SUPPLY * 10 ** decimals()) */\n  tag_15\n    /* \"contracts/NewPINK/PINK_TOKEN.sol\":726:736  msg.sender */\n  caller\n    /* \"contracts/NewPINK/PINK_TOKEN.sol\":757:767  decimals() */\n  tag_16\n    /* \"contracts/NewPINK/PINK_TOKEN.sol\":757:765  decimals */\n  shl(0x20, tag_17)\n    /* \"contracts/NewPINK/PINK_TOKEN.sol\":757:767  decimals() */\n  0x20\n  shr\n  jump\t// in\ntag_16:\n    /* \"contracts/NewPINK/PINK_TOKEN.sol\":751:753  10 */\n  0x0a\n    /* \"contracts/NewPINK/PINK_TOKEN.sol\":751:767  10 ** decimals() */\n  tag_18\n  swap2\n  swap1\n  tag_19\n  jump\t// in\ntag_18:\n    /* \"contracts/NewPINK/PINK_TOKEN.sol\":738:748  MAX_SUPPLY */\n  sload(0x06)\n    /* \"contracts/NewPINK/PINK_TOKEN.sol\":738:767  MAX_SUPPLY * 10 ** decimals() */\n  tag_20\n  swap2\n  swap1\n  tag_21\n  jump\t// in\ntag_20:\n    /* \"contracts/NewPINK/PINK_TOKEN.sol\":720:725  _mint */\n  shl(0x20, tag_22)\n    /* \"contracts/NewPINK/PINK_TOKEN.sol\":720:768  _mint(msg.sender, MAX_SUPPLY * 10 ** decimals()) */\n  0x20\n  shr\n  jump\t// in\ntag_15:\n    /* \"contracts/NewPINK/PINK_TOKEN.sol\":876:886  decimals() */\n  tag_23\n    /* \"contracts/NewPINK/PINK_TOKEN.sol\":876:884  decimals */\n  shl(0x20, tag_17)\n    /* \"contracts/NewPINK/PINK_TOKEN.sol\":876:886  decimals() */\n  0x20\n  shr\n  jump\t// in\ntag_23:\n    /* \"contracts/NewPINK/PINK_TOKEN.sol\":870:872  10 */\n  0x0a\n    /* \"contracts/NewPINK/PINK_TOKEN.sol\":870:886  10 ** decimals() */\n  tag_24\n  swap2\n  swap1\n  tag_19\n  jump\t// in\ntag_24:\n    /* \"contracts/NewPINK/PINK_TOKEN.sol\":859:867  25000000 */\n  0x017d7840\n    /* \"contracts/NewPINK/PINK_TOKEN.sol\":859:886  25000000 * 10 ** decimals() */\n  tag_25\n  swap2\n  swap1\n  tag_21\n  jump\t// in\ntag_25:\n    /* \"contracts/NewPINK/PINK_TOKEN.sol\":844:856  MAX_TRANSFER */\n  0x08\n    /* \"contracts/NewPINK/PINK_TOKEN.sol\":844:886  MAX_TRANSFER = 25000000 * 10 ** decimals() */\n  dup2\n  swap1\n  sstore\n  pop\n    /* \"contracts/NewPINK/PINK_TOKEN.sol\":185:2885  contract PinkToken is ERC20, Ownable {\r... */\n  jump(tag_26)\n    /* \"@openzeppelin/contracts@4.7.2/utils/Context.sol\":640:736  function _msgSender() internal view virtual returns (address) {... */\ntag_12:\n    /* \"@openzeppelin/contracts@4.7.2/utils/Context.sol\":693:700  address */\n  0x00\n    /* \"@openzeppelin/contracts@4.7.2/utils/Context.sol\":719:729  msg.sender */\n  caller\n    /* \"@openzeppelin/contracts@4.7.2/utils/Context.sol\":712:729  return msg.sender */\n  swap1\n  pop\n    /* \"@openzeppelin/contracts@4.7.2/utils/Context.sol\":640:736  function _msgSender() internal view virtual returns (address) {... */\n  swap1\n  jump\t// out\n    /* \"@openzeppelin/contracts@4.7.2/access/Ownable.sol\":2433:2620  function _transferOwnership(address newOwner) internal virtual {... */\ntag_13:\n    /* \"@openzeppelin/contracts@4.7.2/access/Ownable.sol\":2506:2522  address oldOwner */\n  0x00\n    /* \"@openzeppelin/contracts@4.7.2/access/Ownable.sol\":2525:2531  _owner */\n  0x05\n  0x00\n  swap1\n  sload\n  swap1\n  0x0100\n  exp\n  swap1\n  div\n  0xffffffffffffffffffffffffffffffffffffffff\n  and\n    /* \"@openzeppelin/contracts@4.7.2/access/Ownable.sol\":2506:2531  address oldOwner = _owner */\n  swap1\n  pop\n    /* \"@openzeppelin/contracts@4.7.2/access/Ownable.sol\":2550:2558  newOwner */\n  dup2\n    /* \"@openzeppelin/contracts@4.7.2/access/Ownable.sol\":2541:2547  _owner */\n  0x05\n  0x00\n    /* \"@openzeppelin/contracts@4.7.2/access/Ownable.sol\":2541:2558  _owner = newOwner */\n  0x0100\n  exp\n  dup2\n  sload\n  dup2\n  0xffffffffffffffffffffffffffffffffffffffff\n  mul\n  not\n  and\n  swap1\n  dup4\n  0xffffffffffffffffffffffffffffffffffffffff\n  and\n  mul\n  or\n  swap1\n  sstore\n  pop\n    /* \"@openzeppelin/contracts@4.7.2/access/Ownable.sol\":2604:2612  newOwner */\n  dup2\n    /* \"@openzeppelin/contracts@4.7.2/access/Ownable.sol\":2573:2613  OwnershipTransferred(oldOwner, newOwner) */\n  0xffffffffffffffffffffffffffffffffffffffff\n  and\n    /* \"@openzeppelin/contracts@4.7.2/access/Ownable.sol\":2594:2602  oldOwner */\n  dup2\n    /* \"@openzeppelin/contracts@4.7.2/access/Ownable.sol\":2573:2613  OwnershipTransferred(oldOwner, newOwner) */\n  0xffffffffffffffffffffffffffffffffffffffff\n  and\n  0x8be0079c531659141344cd1fd0a4f28419497f9722a3daafe3b4186f6b6457e0\n  mload(0x40)\n  mload(0x40)\n  dup1\n  swap2\n  sub\n  swap1\n  log3\n    /* \"@openzeppelin/contracts@4.7.2/access/Ownable.sol\":2496:2620  {... */\n  pop\n    /* \"@openzeppelin/contracts@4.7.2/access/Ownable.sol\":2433:2620  function _transferOwnership(address newOwner) internal virtual {... */\n  pop\n  jump\t// out\n    /* \"@openzeppelin/contracts@4.7.2/token/ERC20/ERC20.sol\":3093:3184  function decimals() public view virtual override returns (uint8) {... */\ntag_17:\n    /* \"@openzeppelin/contracts@4.7.2/token/ERC20/ERC20.sol\":3151:3156  uint8 */\n  0x00\n    /* \"@openzeppelin/contracts@4.7.2/token/ERC20/ERC20.sol\":3175:3177  18 */\n  0x12\n    /* \"@openzeppelin/contracts@4.7.2/token/ERC20/ERC20.sol\":3168:3177  return 18 */\n  swap1\n  pop\n    /* \"@openzeppelin/contracts@4.7.2/token/ERC20/ERC20.sol\":3093:3184  function decimals() public view virtual override returns (uint8) {... */\n  swap1\n  jump\t// out\n    /* \"@openzeppelin/contracts@4.7.2/token/ERC20/ERC20.sol\":8402:8791  function _mint(address account, uint256 amount) internal virtual {... */\ntag_22:\n    /* \"@openzeppelin/contracts@4.7.2/token/ERC20/ERC20.sol\":8504:8505  0 */\n  0x00\n    /* \"@openzeppelin/contracts@4.7.2/token/ERC20/ERC20.sol\":8485:8506  account != address(0) */\n  0xffffffffffffffffffffffffffffffffffffffff\n  and\n    /* \"@openzeppelin/contracts@4.7.2/token/ERC20/ERC20.sol\":8485:8492  account */\n  dup3\n    /* \"@openzeppelin/contracts@4.7.2/token/ERC20/ERC20.sol\":8485:8506  account != address(0) */\n  0xffffffffffffffffffffffffffffffffffffffff\n  and\n  eq\n  iszero\n    /* \"@openzeppelin/contracts@4.7.2/token/ERC20/ERC20.sol\":8477:8542  require(account != address(0), \"ERC20: mint to the zero address\") */\n  tag_31\n  jumpi\n  mload(0x40)\n  0x08c379a000000000000000000000000000000000000000000000000000000000\n  dup2\n  mstore\n  0x04\n  add\n  tag_32\n  swap1\n  tag_33\n  jump\t// in\ntag_32:\n  mload(0x40)\n  dup1\n  swap2\n  sub\n  swap1\n  revert\ntag_31:\n    /* \"@openzeppelin/contracts@4.7.2/token/ERC20/ERC20.sol\":8553:8602  _beforeTokenTransfer(address(0), account, amount) */\n  tag_34\n    /* \"@openzeppelin/contracts@4.7.2/token/ERC20/ERC20.sol\":8582:8583  0 */\n  0x00\n    /* \"@openzeppelin/contracts@4.7.2/token/ERC20/ERC20.sol\":8586:8593  account */\n  dup4\n    /* \"@openzeppelin/contracts@4.7.2/token/ERC20/ERC20.sol\":8595:8601  amount */\n  dup4\n    /* \"@openzeppelin/contracts@4.7.2/token/ERC20/ERC20.sol\":8553:8573  _beforeTokenTransfer */\n  shl(0x20, tag_35)\n    /* \"@openzeppelin/contracts@4.7.2/token/ERC20/ERC20.sol\":8553:8602  _beforeTokenTransfer(address(0), account, amount) */\n  0x20\n  shr\n  jump\t// in\ntag_34:\n    /* \"@openzeppelin/contracts@4.7.2/token/ERC20/ERC20.sol\":8629:8635  amount */\n  dup1\n    /* \"@openzeppelin/contracts@4.7.2/token/ERC20/ERC20.sol\":8613:8625  _totalSupply */\n  0x02\n  0x00\n    /* \"@openzeppelin/contracts@4.7.2/token/ERC20/ERC20.sol\":8613:8635  _totalSupply += amount */\n  dup3\n  dup3\n  sload\n  tag_36\n  swap2\n  swap1\n  tag_37\n  jump\t// in\ntag_36:\n  swap3\n  pop\n  pop\n  dup2\n  swap1\n  sstore\n  pop\n    /* \"@openzeppelin/contracts@4.7.2/token/ERC20/ERC20.sol\":8667:8673  amount */\n  dup1\n    /* \"@openzeppelin/contracts@4.7.2/token/ERC20/ERC20.sol\":8645:8654  _balances */\n  0x00\n    /* \"@openzeppelin/contracts@4.7.2/token/ERC20/ERC20.sol\":8645:8663  _balances[account] */\n  dup1\n    /* \"@openzeppelin/contracts@4.7.2/token/ERC20/ERC20.sol\":8655:8662  account */\n  dup5\n    /* \"@openzeppelin/contracts@4.7.2/token/ERC20/ERC20.sol\":8645:8663  _balances[account] */\n  0xffffffffffffffffffffffffffffffffffffffff\n  and\n  0xffffffffffffffffffffffffffffffffffffffff\n  and\n  dup2\n  mstore\n  0x20\n  add\n  swap1\n  dup2\n  mstore\n  0x20\n  add\n  0x00\n  keccak256\n  0x00\n    /* \"@openzeppelin/contracts@4.7.2/token/ERC20/ERC20.sol\":8645:8673  _balances[account] += amount */\n  dup3\n  dup3\n  sload\n  tag_38\n  swap2\n  swap1\n  tag_37\n  jump\t// in\ntag_38:\n  swap3\n  pop\n  pop\n  dup2\n  swap1\n  sstore\n  pop\n    /* \"@openzeppelin/contracts@4.7.2/token/ERC20/ERC20.sol\":8709:8716  account */\n  dup2\n    /* \"@openzeppelin/contracts@4.7.2/token/ERC20/ERC20.sol\":8688:8725  Transfer(address(0), account, amount) */\n  0xffffffffffffffffffffffffffffffffffffffff\n  and\n    /* \"@openzeppelin/contracts@4.7.2/token/ERC20/ERC20.sol\":8705:8706  0 */\n  0x00\n    /* \"@openzeppelin/contracts@4.7.2/token/ERC20/ERC20.sol\":8688:8725  Transfer(address(0), account, amount) */\n  0xffffffffffffffffffffffffffffffffffffffff\n  and\n  0xddf252ad1be2c89b69c2b068fc378daa952ba7f163c4a11628f55a4df523b3ef\n    /* \"@openzeppelin/contracts@4.7.2/token/ERC20/ERC20.sol\":8718:8724  amount */\n  dup4\n    /* \"@openzeppelin/contracts@4.7.2/token/ERC20/ERC20.sol\":8688:8725  Transfer(address(0), account, amount) */\n  mload(0x40)\n  tag_39\n  swap2\n  swap1\n  tag_40\n  jump\t// in\ntag_39:\n  mload(0x40)\n  dup1\n  swap2\n  sub\n  swap1\n  log3\n    /* \"@openzeppelin/contracts@4.7.2/token/ERC20/ERC20.sol\":8736:8784  _afterTokenTransfer(address(0), account, amount) */\n  tag_41\n    /* \"@openzeppelin/contracts@4.7.2/token/ERC20/ERC20.sol\":8764:8765  0 */\n  0x00\n    /* \"@openzeppelin/contracts@4.7.2/token/ERC20/ERC20.sol\":8768:8775  account */\n  dup4\n    /* \"@openzeppelin/contracts@4.7.2/token/ERC20/ERC20.sol\":8777:8783  amount */\n  dup4\n    /* \"@openzeppelin/contracts@4.7.2/token/ERC20/ERC20.sol\":8736:8755  _afterTokenTransfer */\n  shl(0x20, tag_42)\n    /* \"@openzeppelin/contracts@4.7.2/token/ERC20/ERC20.sol\":8736:8784  _afterTokenTransfer(address(0), account, amount) */\n  0x20\n  shr\n  jump\t// in\ntag_41:\n    /* \"@openzeppelin/contracts@4.7.2/token/ERC20/ERC20.sol\":8402:8791  function _mint(address account, uint256 amount) internal virtual {... */\n  pop\n  pop\n  jump\t// out\n    /* \"@openzeppelin/contracts@4.7.2/token/ERC20/ERC20.sol\":11786:11907  function _beforeTokenTransfer(... */\ntag_35:\n  pop\n  pop\n  pop\n  jump\t// out\n    /* \"@openzeppelin/contracts@4.7.2/token/ERC20/ERC20.sol\":12495:12615  function _afterTokenTransfer(... */\ntag_42:\n  pop\n  pop\n  pop\n  jump\t// out\n    /* \"contracts/NewPINK/PINK_TOKEN.sol\":185:2885  contract PinkToken is ERC20, Ownable {\r... */\ntag_7:\n  dup3\n  dup1\n  sload\n  tag_45\n  swap1\n  tag_46\n  jump\t// in\ntag_45:\n  swap1\n  0x00\n  mstore\n  keccak256(0x00, 0x20)\n  swap1\n  0x1f\n  add\n  0x20\n  swap1\n  div\n  dup2\n  add\n  swap3\n  dup3\n  tag_48\n  jumpi\n  0x00\n  dup6\n  sstore\n  jump(tag_47)\ntag_48:\n  dup3\n  0x1f\n  lt\n  tag_49\n  jumpi\n  dup1\n  mload\n  not(0xff)\n  and\n  dup4\n  dup1\n  add\n  or\n  dup6\n  sstore\n  jump(tag_47)\ntag_49:\n  dup3\n  dup1\n  add\n  0x01\n  add\n  dup6\n  sstore\n  dup3\n  iszero\n  tag_47\n  jumpi\n  swap2\n  dup3\n  add\ntag_50:\n  dup3\n  dup2\n  gt\n  iszero\n  tag_51\n  jumpi\n  dup3\n  mload\n  dup3\n  sstore\n  swap2\n  0x20\n  add\n  swap2\n  swap1\n  0x01\n  add\n  swap1\n  jump(tag_50)\ntag_51:\ntag_47:\n  pop\n  swap1\n  pop\n  tag_52\n  swap2\n  swap1\n  tag_53\n  jump\t// in\ntag_52:\n  pop\n  swap1\n  jump\t// out\ntag_53:\ntag_54:\n  dup1\n  dup3\n  gt\n  iszero\n  tag_55\n  jumpi\n  0x00\n  dup2\n  0x00\n  swap1\n  sstore\n  pop\n  0x01\n  add\n  jump(tag_54)\ntag_55:\n  pop\n  swap1\n  jump\t// out\n    /* \"#utility.yul\":7:373   */\ntag_57:\n    /* \"#utility.yul\":149:152   */\n  0x00\n    /* \"#utility.yul\":170:237   */\n  tag_59\n    /* \"#utility.yul\":234:236   */\n  0x1f\n    /* \"#utility.yul\":229:232   */\n  dup4\n    /* \"#utility.yul\":170:237   */\n  tag_60\n  jump\t// in\ntag_59:\n    /* \"#utility.yul\":163:237   */\n  swap2\n  pop\n    /* \"#utility.yul\":246:339   */\n  tag_61\n    /* \"#utility.yul\":335:338   */\n  dup3\n    /* \"#utility.yul\":246:339   */\n  tag_62\n  jump\t// in\ntag_61:\n    /* \"#utility.yul\":364:366   */\n  0x20\n    /* \"#utility.yul\":359:362   */\n  dup3\n    /* \"#utility.yul\":355:367   */\n  add\n    /* \"#utility.yul\":348:367   */\n  swap1\n  pop\n    /* \"#utility.yul\":7:373   */\n  swap2\n  swap1\n  pop\n  jump\t// out\n    /* \"#utility.yul\":379:497   */\ntag_63:\n    /* \"#utility.yul\":466:490   */\n  tag_65\n    /* \"#utility.yul\":484:489   */\n  dup2\n    /* \"#utility.yul\":466:490   */\n  tag_66\n  jump\t// in\ntag_65:\n    /* \"#utility.yul\":461:464   */\n  dup3\n    /* \"#utility.yul\":454:491   */\n  mstore\n    /* \"#utility.yul\":379:497   */\n  pop\n  pop\n  jump\t// out\n    /* \"#utility.yul\":503:922   */\ntag_33:\n    /* \"#utility.yul\":669:673   */\n  0x00\n    /* \"#utility.yul\":707:709   */\n  0x20\n    /* \"#utility.yul\":696:705   */\n  dup3\n    /* \"#utility.yul\":692:710   */\n  add\n    /* \"#utility.yul\":684:710   */\n  swap1\n  pop\n    /* \"#utility.yul\":756:765   */\n  dup2\n    /* \"#utility.yul\":750:754   */\n  dup2\n    /* \"#utility.yul\":746:766   */\n  sub\n    /* \"#utility.yul\":742:743   */\n  0x00\n    /* \"#utility.yul\":731:740   */\n  dup4\n    /* \"#utility.yul\":727:744   */\n  add\n    /* \"#utility.yul\":720:767   */\n  mstore\n    /* \"#utility.yul\":784:915   */\n  tag_68\n    /* \"#utility.yul\":910:914   */\n  dup2\n    /* \"#utility.yul\":784:915   */\n  tag_57\n  jump\t// in\ntag_68:\n    /* \"#utility.yul\":776:915   */\n  swap1\n  pop\n    /* \"#utility.yul\":503:922   */\n  swap2\n  swap1\n  pop\n  jump\t// out\n    /* \"#utility.yul\":928:1150   */\ntag_40:\n    /* \"#utility.yul\":1021:1025   */\n  0x00\n    /* \"#utility.yul\":1059:1061   */\n  0x20\n    /* \"#utility.yul\":1048:1057   */\n  dup3\n    /* \"#utility.yul\":1044:1062   */\n  add\n    /* \"#utility.yul\":1036:1062   */\n  swap1\n  pop\n    /* \"#utility.yul\":1072:1143   */\n  tag_70\n    /* \"#utility.yul\":1140:1141   */\n  0x00\n    /* \"#utility.yul\":1129:1138   */\n  dup4\n    /* \"#utility.yul\":1125:1142   */\n  add\n    /* \"#utility.yul\":1116:1122   */\n  dup5\n    /* \"#utility.yul\":1072:1143   */\n  tag_63\n  jump\t// in\ntag_70:\n    /* \"#utility.yul\":928:1150   */\n  swap3\n  swap2\n  pop\n  pop\n  jump\t// out\n    /* \"#utility.yul\":1156:1325   */\ntag_60:\n    /* \"#utility.yul\":1240:1251   */\n  0x00\n    /* \"#utility.yul\":1274:1280   */\n  dup3\n    /* \"#utility.yul\":1269:1272   */\n  dup3\n    /* \"#utility.yul\":1262:1281   */\n  mstore\n    /* \"#utility.yul\":1314:1318   */\n  0x20\n    /* \"#utility.yul\":1309:1312   */\n  dup3\n    /* \"#utility.yul\":1305:1319   */\n  add\n    /* \"#utility.yul\":1290:1319   */\n  swap1\n  pop\n    /* \"#utility.yul\":1156:1325   */\n  swap3\n  swap2\n  pop\n  pop\n  jump\t// out\n    /* \"#utility.yul\":1331:1636   */\ntag_37:\n    /* \"#utility.yul\":1371:1374   */\n  0x00\n    /* \"#utility.yul\":1390:1410   */\n  tag_73\n    /* \"#utility.yul\":1408:1409   */\n  dup3\n    /* \"#utility.yul\":1390:1410   */\n  tag_66\n  jump\t// in\ntag_73:\n    /* \"#utility.yul\":1385:1410   */\n  swap2\n  pop\n    /* \"#utility.yul\":1424:1444   */\n  tag_74\n    /* \"#utility.yul\":1442:1443   */\n  dup4\n    /* \"#utility.yul\":1424:1444   */\n  tag_66\n  jump\t// in\ntag_74:\n    /* \"#utility.yul\":1419:1444   */\n  swap3\n  pop\n    /* \"#utility.yul\":1578:1579   */\n  dup3\n    /* \"#utility.yul\":1510:1576   */\n  0xffffffffffffffffffffffffffffffffffffffffffffffffffffffffffffffff\n    /* \"#utility.yul\":1506:1580   */\n  sub\n    /* \"#utility.yul\":1503:1504   */\n  dup3\n    /* \"#utility.yul\":1500:1581   */\n  gt\n    /* \"#utility.yul\":1497:1604   */\n  iszero\n  tag_75\n  jumpi\n    /* \"#utility.yul\":1584:1602   */\n  tag_76\n  tag_77\n  jump\t// in\ntag_76:\n    /* \"#utility.yul\":1497:1604   */\ntag_75:\n    /* \"#utility.yul\":1628:1629   */\n  dup3\n    /* \"#utility.yul\":1625:1626   */\n  dup3\n    /* \"#utility.yul\":1621:1630   */\n  add\n    /* \"#utility.yul\":1614:1630   */\n  swap1\n  pop\n    /* \"#utility.yul\":1331:1636   */\n  swap3\n  swap2\n  pop\n  pop\n  jump\t// out\n    /* \"#utility.yul\":1642:2490   */\ntag_78:\n    /* \"#utility.yul\":1703:1708   */\n  0x00\n    /* \"#utility.yul\":1710:1714   */\n  dup1\n    /* \"#utility.yul\":1734:1740   */\n  dup3\n    /* \"#utility.yul\":1725:1740   */\n  swap2\n  pop\n    /* \"#utility.yul\":1758:1763   */\n  dup4\n    /* \"#utility.yul\":1749:1763   */\n  swap1\n  pop\n    /* \"#utility.yul\":1772:2484   */\ntag_80:\n    /* \"#utility.yul\":1793:1794   */\n  0x01\n    /* \"#utility.yul\":1783:1791   */\n  dup6\n    /* \"#utility.yul\":1780:1795   */\n  gt\n    /* \"#utility.yul\":1772:2484   */\n  iszero\n  tag_82\n  jumpi\n    /* \"#utility.yul\":1888:1892   */\n  dup1\n    /* \"#utility.yul\":1883:1886   */\n  dup7\n    /* \"#utility.yul\":1879:1893   */\n  div\n    /* \"#utility.yul\":1873:1877   */\n  dup2\n    /* \"#utility.yul\":1870:1894   */\n  gt\n    /* \"#utility.yul\":1867:1917   */\n  iszero\n  tag_83\n  jumpi\n    /* \"#utility.yul\":1897:1915   */\n  tag_84\n  tag_77\n  jump\t// in\ntag_84:\n    /* \"#utility.yul\":1867:1917   */\ntag_83:\n    /* \"#utility.yul\":1947:1948   */\n  0x01\n    /* \"#utility.yul\":1937:1945   */\n  dup6\n    /* \"#utility.yul\":1933:1949   */\n  and\n    /* \"#utility.yul\":1930:2381   */\n  iszero\n  tag_85\n  jumpi\n    /* \"#utility.yul\":2362:2366   */\n  dup1\n    /* \"#utility.yul\":2355:2360   */\n  dup3\n    /* \"#utility.yul\":2351:2367   */\n  mul\n    /* \"#utility.yul\":2342:2367   */\n  swap2\n  pop\n    /* \"#utility.yul\":1930:2381   */\ntag_85:\n    /* \"#utility.yul\":2412:2416   */\n  dup1\n    /* \"#utility.yul\":2406:2410   */\n  dup2\n    /* \"#utility.yul\":2402:2417   */\n  mul\n    /* \"#utility.yul\":2394:2417   */\n  swap1\n  pop\n    /* \"#utility.yul\":2442:2474   */\n  tag_86\n    /* \"#utility.yul\":2465:2473   */\n  dup6\n    /* \"#utility.yul\":2442:2474   */\n  tag_87\n  jump\t// in\ntag_86:\n    /* \"#utility.yul\":2430:2474   */\n  swap5\n  pop\n    /* \"#utility.yul\":1772:2484   */\n  jump(tag_80)\ntag_82:\n    /* \"#utility.yul\":1642:2490   */\n  swap5\n  pop\n  swap5\n  swap3\n  pop\n  pop\n  pop\n  jump\t// out\n    /* \"#utility.yul\":2496:2777   */\ntag_19:\n    /* \"#utility.yul\":2554:2559   */\n  0x00\n    /* \"#utility.yul\":2578:2601   */\n  tag_89\n    /* \"#utility.yul\":2596:2600   */\n  dup3\n    /* \"#utility.yul\":2578:2601   */\n  tag_66\n  jump\t// in\ntag_89:\n    /* \"#utility.yul\":2570:2601   */\n  swap2\n  pop\n    /* \"#utility.yul\":2622:2647   */\n  tag_90\n    /* \"#utility.yul\":2638:2646   */\n  dup4\n    /* \"#utility.yul\":2622:2647   */\n  tag_91\n  jump\t// in\ntag_90:\n    /* \"#utility.yul\":2610:2647   */\n  swap3\n  pop\n    /* \"#utility.yul\":2666:2770   */\n  tag_92\n    /* \"#utility.yul\":2703:2769   */\n  0xffffffffffffffffffffffffffffffffffffffffffffffffffffffffffffffff\n    /* \"#utility.yul\":2693:2701   */\n  dup5\n    /* \"#utility.yul\":2687:2691   */\n  dup5\n    /* \"#utility.yul\":2666:2770   */\n  tag_93\n  jump\t// in\ntag_92:\n    /* \"#utility.yul\":2657:2770   */\n  swap1\n  pop\n    /* \"#utility.yul\":2496:2777   */\n  swap3\n  swap2\n  pop\n  pop\n  jump\t// out\n    /* \"#utility.yul\":2783:3856   */\ntag_93:\n    /* \"#utility.yul\":2837:2842   */\n  0x00\n    /* \"#utility.yul\":3028:3036   */\n  dup3\n    /* \"#utility.yul\":3018:3058   */\n  tag_95\n  jumpi\n    /* \"#utility.yul\":3049:3050   */\n  0x01\n    /* \"#utility.yul\":3040:3050   */\n  swap1\n  pop\n    /* \"#utility.yul\":3051:3056   */\n  jump(tag_94)\n    /* \"#utility.yul\":3018:3058   */\ntag_95:\n    /* \"#utility.yul\":3077:3081   */\n  dup2\n    /* \"#utility.yul\":3067:3103   */\n  tag_96\n  jumpi\n    /* \"#utility.yul\":3094:3095   */\n  0x00\n    /* \"#utility.yul\":3085:3095   */\n  swap1\n  pop\n    /* \"#utility.yul\":3096:3101   */\n  jump(tag_94)\n    /* \"#utility.yul\":3067:3103   */\ntag_96:\n    /* \"#utility.yul\":3163:3167   */\n  dup2\n    /* \"#utility.yul\":3211:3212   */\n  0x01\n    /* \"#utility.yul\":3206:3233   */\n  dup2\n  eq\n  tag_98\n  jumpi\n    /* \"#utility.yul\":3247:3248   */\n  0x02\n    /* \"#utility.yul\":3242:3433   */\n  dup2\n  eq\n  tag_99\n  jumpi\n    /* \"#utility.yul\":3156:3433   */\n  jump(tag_97)\n    /* \"#utility.yul\":3206:3233   */\ntag_98:\n    /* \"#utility.yul\":3224:3225   */\n  0x01\n    /* \"#utility.yul\":3215:3225   */\n  swap2\n  pop\n    /* \"#utility.yul\":3226:3231   */\n  pop\n  jump(tag_94)\n    /* \"#utility.yul\":3242:3433   */\ntag_99:\n    /* \"#utility.yul\":3287:3290   */\n  0xff\n    /* \"#utility.yul\":3277:3285   */\n  dup5\n    /* \"#utility.yul\":3274:3291   */\n  gt\n    /* \"#utility.yul\":3271:3314   */\n  iszero\n  tag_100\n  jumpi\n    /* \"#utility.yul\":3294:3312   */\n  tag_101\n  tag_77\n  jump\t// in\ntag_101:\n    /* \"#utility.yul\":3271:3314   */\ntag_100:\n    /* \"#utility.yul\":3343:3351   */\n  dup4\n    /* \"#utility.yul\":3340:3341   */\n  0x02\n    /* \"#utility.yul\":3336:3352   */\n  exp\n    /* \"#utility.yul\":3327:3352   */\n  swap2\n  pop\n    /* \"#utility.yul\":3378:3381   */\n  dup5\n    /* \"#utility.yul\":3371:3376   */\n  dup3\n    /* \"#utility.yul\":3368:3382   */\n  gt\n    /* \"#utility.yul\":3365:3405   */\n  iszero\n  tag_102\n  jumpi\n    /* \"#utility.yul\":3385:3403   */\n  tag_103\n  tag_77\n  jump\t// in\ntag_103:\n    /* \"#utility.yul\":3365:3405   */\ntag_102:\n    /* \"#utility.yul\":3418:3423   */\n  pop\n  jump(tag_94)\n    /* \"#utility.yul\":3156:3433   */\ntag_97:\n  pop\n    /* \"#utility.yul\":3542:3544   */\n  0x20\n    /* \"#utility.yul\":3532:3540   */\n  dup4\n    /* \"#utility.yul\":3529:3545   */\n  lt\n    /* \"#utility.yul\":3523:3526   */\n  0x0133\n    /* \"#utility.yul\":3517:3521   */\n  dup4\n    /* \"#utility.yul\":3514:3527   */\n  lt\n    /* \"#utility.yul\":3510:3546   */\n  and\n    /* \"#utility.yul\":3492:3494   */\n  0x4e\n    /* \"#utility.yul\":3482:3490   */\n  dup5\n    /* \"#utility.yul\":3479:3495   */\n  lt\n    /* \"#utility.yul\":3474:3476   */\n  0x0b\n    /* \"#utility.yul\":3468:3472   */\n  dup5\n    /* \"#utility.yul\":3465:3477   */\n  lt\n    /* \"#utility.yul\":3461:3496   */\n  and\n    /* \"#utility.yul\":3445:3556   */\n  or\n    /* \"#utility.yul\":3442:3688   */\n  iszero\n  tag_104\n  jumpi\n    /* \"#utility.yul\":3598:3606   */\n  dup3\n    /* \"#utility.yul\":3592:3596   */\n  dup3\n    /* \"#utility.yul\":3588:3607   */\n  exp\n    /* \"#utility.yul\":3579:3607   */\n  swap1\n  pop\n    /* \"#utility.yul\":3633:3636   */\n  dup4\n    /* \"#utility.yul\":3626:3631   */\n  dup2\n    /* \"#utility.yul\":3623:3637   */\n  gt\n    /* \"#utility.yul\":3620:3660   */\n  iszero\n  tag_105\n  jumpi\n    /* \"#utility.yul\":3640:3658   */\n  tag_106\n  tag_77\n  jump\t// in\ntag_106:\n    /* \"#utility.yul\":3620:3660   */\ntag_105:\n    /* \"#utility.yul\":3673:3678   */\n  jump(tag_94)\n    /* \"#utility.yul\":3442:3688   */\ntag_104:\n    /* \"#utility.yul\":3713:3755   */\n  tag_107\n    /* \"#utility.yul\":3751:3754   */\n  dup5\n    /* \"#utility.yul\":3741:3749   */\n  dup5\n    /* \"#utility.yul\":3735:3739   */\n  dup5\n    /* \"#utility.yul\":3732:3733   */\n  0x01\n    /* \"#utility.yul\":3713:3755   */\n  tag_78\n  jump\t// in\ntag_107:\n    /* \"#utility.yul\":3698:3755   */\n  swap3\n  pop\n  swap1\n  pop\n    /* \"#utility.yul\":3787:3791   */\n  dup2\n    /* \"#utility.yul\":3782:3785   */\n  dup5\n    /* \"#utility.yul\":3778:3792   */\n  div\n    /* \"#utility.yul\":3771:3776   */\n  dup2\n    /* \"#utility.yul\":3768:3793   */\n  gt\n    /* \"#utility.yul\":3765:3816   */\n  iszero\n  tag_108\n  jumpi\n    /* \"#utility.yul\":3796:3814   */\n  tag_109\n  tag_77\n  jump\t// in\ntag_109:\n    /* \"#utility.yul\":3765:3816   */\ntag_108:\n    /* \"#utility.yul\":3845:3849   */\n  dup2\n    /* \"#utility.yul\":3838:3843   */\n  dup2\n    /* \"#utility.yul\":3834:3850   */\n  mul\n    /* \"#utility.yul\":3825:3850   */\n  swap1\n  pop\n    /* \"#utility.yul\":2783:3856   */\ntag_94:\n  swap4\n  swap3\n  pop\n  pop\n  pop\n  jump\t// out\n    /* \"#utility.yul\":3862:4210   */\ntag_21:\n    /* \"#utility.yul\":3902:3909   */\n  0x00\n    /* \"#utility.yul\":3925:3945   */\n  tag_111\n    /* \"#utility.yul\":3943:3944   */\n  dup3\n    /* \"#utility.yul\":3925:3945   */\n  tag_66\n  jump\t// in\ntag_111:\n    /* \"#utility.yul\":3920:3945   */\n  swap2\n  pop\n    /* \"#utility.yul\":3959:3979   */\n  tag_112\n    /* \"#utility.yul\":3977:3978   */\n  dup4\n    /* \"#utility.yul\":3959:3979   */\n  tag_66\n  jump\t// in\ntag_112:\n    /* \"#utility.yul\":3954:3979   */\n  swap3\n  pop\n    /* \"#utility.yul\":4147:4148   */\n  dup2\n    /* \"#utility.yul\":4079:4145   */\n  0xffffffffffffffffffffffffffffffffffffffffffffffffffffffffffffffff\n    /* \"#utility.yul\":4075:4149   */\n  div\n    /* \"#utility.yul\":4072:4073   */\n  dup4\n    /* \"#utility.yul\":4069:4150   */\n  gt\n    /* \"#utility.yul\":4064:4065   */\n  dup3\n    /* \"#utility.yul\":4057:4066   */\n  iszero\n    /* \"#utility.yul\":4050:4067   */\n  iszero\n    /* \"#utility.yul\":4046:4151   */\n  and\n    /* \"#utility.yul\":4043:4174   */\n  iszero\n  tag_113\n  jumpi\n    /* \"#utility.yul\":4154:4172   */\n  tag_114\n  tag_77\n  jump\t// in\ntag_114:\n    /* \"#utility.yul\":4043:4174   */\ntag_113:\n    /* \"#utility.yul\":4202:4203   */\n  dup3\n    /* \"#utility.yul\":4199:4200   */\n  dup3\n    /* \"#utility.yul\":4195:4204   */\n  mul\n    /* \"#utility.yul\":4184:4204   */\n  swap1\n  pop\n    /* \"#utility.yul\":3862:4210   */\n  swap3\n  swap2\n  pop\n  pop\n  jump\t// out\n    /* \"#utility.yul\":4216:4293   */\ntag_66:\n    /* \"#utility.yul\":4253:4260   */\n  0x00\n    /* \"#utility.yul\":4282:4287   */\n  dup2\n    /* \"#utility.yul\":4271:4287   */\n  swap1\n  pop\n    /* \"#utility.yul\":4216:4293   */\n  swap2\n  swap1\n  pop\n  jump\t// out\n    /* \"#utility.yul\":4299:4385   */\ntag_91:\n    /* \"#utility.yul\":4334:4341   */\n  0x00\n    /* \"#utility.yul\":4374:4378   */\n  0xff\n    /* \"#utility.yul\":4367:4372   */\n  dup3\n    /* \"#utility.yul\":4363:4379   */\n  and\n    /* \"#utility.yul\":4352:4379   */\n  swap1\n  pop\n    /* \"#utility.yul\":4299:4385   */\n  swap2\n  swap1\n  pop\n  jump\t// out\n    /* \"#utility.yul\":4391:4711   */\ntag_46:\n    /* \"#utility.yul\":4435:4441   */\n  0x00\n    /* \"#utility.yul\":4472:4473   */\n  0x02\n    /* \"#utility.yul\":4466:4470   */\n  dup3\n    /* \"#utility.yul\":4462:4474   */\n  div\n    /* \"#utility.yul\":4452:4474   */\n  swap1\n  pop\n    /* \"#utility.yul\":4519:4520   */\n  0x01\n    /* \"#utility.yul\":4513:4517   */\n  dup3\n    /* \"#utility.yul\":4509:4521   */\n  and\n    /* \"#utility.yul\":4540:4558   */\n  dup1\n    /* \"#utility.yul\":4530:4611   */\n  tag_118\n  jumpi\n    /* \"#utility.yul\":4596:4600   */\n  0x7f\n    /* \"#utility.yul\":4588:4594   */\n  dup3\n    /* \"#utility.yul\":4584:4601   */\n  and\n    /* \"#utility.yul\":4574:4601   */\n  swap2\n  pop\n    /* \"#utility.yul\":4530:4611   */\ntag_118:\n    /* \"#utility.yul\":4658:4660   */\n  0x20\n    /* \"#utility.yul\":4650:4656   */\n  dup3\n    /* \"#utility.yul\":4647:4661   */\n  lt\n    /* \"#utility.yul\":4627:4645   */\n  dup2\n    /* \"#utility.yul\":4624:4662   */\n  eq\n    /* \"#utility.yul\":4621:4705   */\n  iszero\n  tag_119\n  jumpi\n    /* \"#utility.yul\":4677:4695   */\n  tag_120\n  tag_121\n  jump\t// in\ntag_120:\n    /* \"#utility.yul\":4621:4705   */\ntag_119:\n    /* \"#utility.yul\":4442:4711   */\n  pop\n    /* \"#utility.yul\":4391:4711   */\n  swap2\n  swap1\n  pop\n  jump\t// out\n    /* \"#utility.yul\":4717:4897   */\ntag_77:\n    /* \"#utility.yul\":4765:4842   */\n  0x4e487b7100000000000000000000000000000000000000000000000000000000\n    /* \"#utility.yul\":4762:4763   */\n  0x00\n    /* \"#utility.yul\":4755:4843   */\n  mstore\n    /* \"#utility.yul\":4862:4866   */\n  0x11\n    /* \"#utility.yul\":4859:4860   */\n  0x04\n    /* \"#utility.yul\":4852:4867   */\n  mstore\n    /* \"#utility.yul\":4886:4890   */\n  0x24\n    /* \"#utility.yul\":4883:4884   */\n  0x00\n    /* \"#utility.yul\":4876:4891   */\n  revert\n    /* \"#utility.yul\":4903:5083   */\ntag_121:\n    /* \"#utility.yul\":4951:5028   */\n  0x4e487b7100000000000000000000000000000000000000000000000000000000\n    /* \"#utility.yul\":4948:4949   */\n  0x00\n    /* \"#utility.yul\":4941:5029   */\n  mstore\n    /* \"#utility.yul\":5048:5052   */\n  0x22\n    /* \"#utility.yul\":5045:5046   */\n  0x04\n    /* \"#utility.yul\":5038:5053   */\n  mstore\n    /* \"#utility.yul\":5072:5076   */\n  0x24\n    /* \"#utility.yul\":5069:5070   */\n  0x00\n    /* \"#utility.yul\":5062:5077   */\n  revert\n    /* \"#utility.yul\":5089:5191   */\ntag_87:\n    /* \"#utility.yul\":5131:5139   */\n  0x00\n    /* \"#utility.yul\":5178:5183   */\n  dup2\n    /* \"#utility.yul\":5175:5176   */\n  0x01\n    /* \"#utility.yul\":5171:5184   */\n  shr\n    /* \"#utility.yul\":5150:5184   */\n  swap1\n  pop\n    /* \"#utility.yul\":5089:5191   */\n  swap2\n  swap1\n  pop\n  jump\t// out\n    /* \"#utility.yul\":5197:5378   */\ntag_62:\n    /* \"#utility.yul\":5337:5370   */\n  0x45524332303a206d696e7420746f20746865207a65726f206164647265737300\n    /* \"#utility.yul\":5333:5334   */\n  0x00\n    /* \"#utility.yul\":5325:5331   */\n  dup3\n    /* \"#utility.yul\":5321:5335   */\n  add\n    /* \"#utility.yul\":5314:5371   */\n  mstore\n    /* \"#utility.yul\":5197:5378   */\n  pop\n  jump\t// out\n    /* \"contracts/NewPINK/PINK_TOKEN.sol\":185:2885  contract PinkToken is ERC20, Ownable {\r... */\ntag_26:\n  dataSize(sub_0)\n  dup1\n  dataOffset(sub_0)\n  0x00\n  codecopy\n  0x00\n  return\nstop\n\nsub_0: assembly {\n        /* \"contracts/NewPINK/PINK_TOKEN.sol\":185:2885  contract PinkToken is ERC20, Ownable {\r... */\n      mstore(0x40, 0x80)\n      callvalue\n      dup1\n      iszero\n      tag_1\n      jumpi\n      0x00\n      dup1\n      revert\n    tag_1:\n      pop\n      jumpi(tag_2, lt(calldatasize, 0x04))\n      shr(0xe0, calldataload(0x00))\n      dup1\n      0x715018a6\n      gt\n      tag_22\n      jumpi\n      dup1\n      0xa4f0d7d0\n      gt\n      tag_23\n      jumpi\n      dup1\n      0xa4f0d7d0\n      eq\n      tag_17\n      jumpi\n      dup1\n      0xa9059cbb\n      eq\n      tag_18\n      jumpi\n      dup1\n      0xdd62ed3e\n      eq\n      tag_19\n      jumpi\n      dup1\n      0xed246c66\n      eq\n      tag_20\n      jumpi\n      dup1\n      0xf2fde38b\n      eq\n      tag_21\n      jumpi\n      jump(tag_2)\n    tag_23:\n      dup1\n      0x715018a6\n      eq\n      tag_12\n      jumpi\n      dup1\n      0x8da5cb5b\n      eq\n      tag_13\n      jumpi\n      dup1\n      0x95d89b41\n      eq\n      tag_14\n      jumpi\n      dup1\n      0x9d53827f\n      eq\n      tag_15\n      jumpi\n      dup1\n      0xa457c2d7\n      eq\n      tag_16\n      jumpi\n      jump(tag_2)\n    tag_22:\n      dup1\n      0x313ce567\n      gt\n      tag_24\n      jumpi\n      dup1\n      0x313ce567\n      eq\n      tag_7\n      jumpi\n      dup1\n      0x32cb6b0c\n      eq\n      tag_8\n      jumpi\n      dup1\n      0x39509351\n      eq\n      tag_9\n      jumpi\n      dup1\n      0x6718161e\n      eq\n      tag_10\n      jumpi\n      dup1\n      0x70a08231\n      eq\n      tag_11\n      jumpi\n      jump(tag_2)\n    tag_24:\n      dup1\n      0x06fdde03\n      eq\n      tag_3\n      jumpi\n      dup1\n      0x095ea7b3\n      eq\n      tag_4\n      jumpi\n      dup1\n      0x18160ddd\n      eq\n      tag_5\n      jumpi\n      dup1\n      0x23b872dd\n      eq\n      tag_6\n      jumpi\n    tag_2:\n      0x00\n      dup1\n      revert\n        /* \"@openzeppelin/contracts@4.7.2/token/ERC20/ERC20.sol\":2156:2254  function name() public view virtual override returns (string memory) {... */\n    tag_3:\n      tag_25\n      tag_26\n      jump\t// in\n    tag_25:\n      mload(0x40)\n      tag_27\n      swap2\n      swap1\n      tag_28\n      jump\t// in\n    tag_27:\n      mload(0x40)\n      dup1\n      swap2\n      sub\n      swap1\n      return\n        /* \"@openzeppelin/contracts@4.7.2/token/ERC20/ERC20.sol\":4433:4630  function approve(address spender, uint256 amount) public virtual override returns (bool) {... */\n    tag_4:\n      tag_29\n      0x04\n      dup1\n      calldatasize\n      sub\n      dup2\n      add\n      swap1\n      tag_30\n      swap2\n      swap1\n      tag_31\n      jump\t// in\n    tag_30:\n      tag_32\n      jump\t// in\n    tag_29:\n      mload(0x40)\n      tag_33\n      swap2\n      swap1\n      tag_34\n      jump\t// in\n    tag_33:\n      mload(0x40)\n      dup1\n      swap2\n      sub\n      swap1\n      return\n        /* \"@openzeppelin/contracts@4.7.2/token/ERC20/ERC20.sol\":3244:3350  function totalSupply() public view virtual override returns (uint256) {... */\n    tag_5:\n      tag_35\n      tag_36\n      jump\t// in\n    tag_35:\n      mload(0x40)\n      tag_37\n      swap2\n      swap1\n      tag_38\n      jump\t// in\n    tag_37:\n      mload(0x40)\n      dup1\n      swap2\n      sub\n      swap1\n      return\n        /* \"contracts/NewPINK/PINK_TOKEN.sol\":2146:2530  function transferFrom(\r... */\n    tag_6:\n      tag_39\n      0x04\n      dup1\n      calldatasize\n      sub\n      dup2\n      add\n      swap1\n      tag_40\n      swap2\n      swap1\n      tag_41\n      jump\t// in\n    tag_40:\n      tag_42\n      jump\t// in\n    tag_39:\n      mload(0x40)\n      tag_43\n      swap2\n      swap1\n      tag_34\n      jump\t// in\n    tag_43:\n      mload(0x40)\n      dup1\n      swap2\n      sub\n      swap1\n      return\n        /* \"@openzeppelin/contracts@4.7.2/token/ERC20/ERC20.sol\":3093:3184  function decimals() public view virtual override returns (uint8) {... */\n    tag_7:\n      tag_44\n      tag_45\n      jump\t// in\n    tag_44:\n      mload(0x40)\n      tag_46\n      swap2\n      swap1\n      tag_47\n      jump\t// in\n    tag_46:\n      mload(0x40)\n      dup1\n      swap2\n      sub\n      swap1\n      return\n        /* \"contracts/NewPINK/PINK_TOKEN.sol\":263:301  uint256 public MAX_SUPPLY = 1000000000 */\n    tag_8:\n      tag_48\n      tag_49\n      jump\t// in\n    tag_48:\n      mload(0x40)\n      tag_50\n      swap2\n      swap1\n      tag_38\n      jump\t// in\n    tag_50:\n      mload(0x40)\n      dup1\n      swap2\n      sub\n      swap1\n      return\n        /* \"@openzeppelin/contracts@4.7.2/token/ERC20/ERC20.sol\":5873:6107  function increaseAllowance(address spender, uint256 addedValue) public virtual returns (bool) {... */\n    tag_9:\n      tag_51\n      0x04\n      dup1\n      calldatasize\n      sub\n      dup2\n      add\n      swap1\n      tag_52\n      swap2\n      swap1\n      tag_31\n      jump\t// in\n    tag_52:\n      tag_53\n      jump\t// in\n    tag_51:\n      mload(0x40)\n      tag_54\n      swap2\n      swap1\n      tag_34\n      jump\t// in\n    tag_54:\n      mload(0x40)\n      dup1\n      swap2\n      sub\n      swap1\n      return\n        /* \"contracts/NewPINK/PINK_TOKEN.sol\":2778:2882  function flipLock() public onlyOwner returns(bool){\r... */\n    tag_10:\n      tag_55\n      tag_56\n      jump\t// in\n    tag_55:\n      mload(0x40)\n      tag_57\n      swap2\n      swap1\n      tag_34\n      jump\t// in\n    tag_57:\n      mload(0x40)\n      dup1\n      swap2\n      sub\n      swap1\n      return\n        /* \"@openzeppelin/contracts@4.7.2/token/ERC20/ERC20.sol\":3408:3533  function balanceOf(address account) public view virtual override returns (uint256) {... */\n    tag_11:\n      tag_58\n      0x04\n      dup1\n      calldatasize\n      sub\n      dup2\n      add\n      swap1\n      tag_59\n      swap2\n      swap1\n      tag_60\n      jump\t// in\n    tag_59:\n      tag_61\n      jump\t// in\n    tag_58:\n      mload(0x40)\n      tag_62\n      swap2\n      swap1\n      tag_38\n      jump\t// in\n    tag_62:\n      mload(0x40)\n      dup1\n      swap2\n      sub\n      swap1\n      return\n        /* \"@openzeppelin/contracts@4.7.2/access/Ownable.sol\":1831:1932  function renounceOwnership() public virtual onlyOwner {... */\n    tag_12:\n      tag_63\n      tag_64\n      jump\t// in\n    tag_63:\n      stop\n        /* \"@openzeppelin/contracts@4.7.2/access/Ownable.sol\":1201:1286  function owner() public view virtual returns (address) {... */\n    tag_13:\n      tag_65\n      tag_66\n      jump\t// in\n    tag_65:\n      mload(0x40)\n      tag_67\n      swap2\n      swap1\n      tag_68\n      jump\t// in\n    tag_67:\n      mload(0x40)\n      dup1\n      swap2\n      sub\n      swap1\n      return\n        /* \"@openzeppelin/contracts@4.7.2/token/ERC20/ERC20.sol\":2367:2469  function symbol() public view virtual override returns (string memory) {... */\n    tag_14:\n      tag_69\n      tag_70\n      jump\t// in\n    tag_69:\n      mload(0x40)\n      tag_71\n      swap2\n      swap1\n      tag_28\n      jump\t// in\n    tag_71:\n      mload(0x40)\n      dup1\n      swap2\n      sub\n      swap1\n      return\n        /* \"contracts/NewPINK/PINK_TOKEN.sol\":627:654  uint256 public MAX_TRANSFER */\n    tag_15:\n      tag_72\n      tag_73\n      jump\t// in\n    tag_72:\n      mload(0x40)\n      tag_74\n      swap2\n      swap1\n      tag_38\n      jump\t// in\n    tag_74:\n      mload(0x40)\n      dup1\n      swap2\n      sub\n      swap1\n      return\n        /* \"@openzeppelin/contracts@4.7.2/token/ERC20/ERC20.sol\":6594:7021  function decreaseAllowance(address spender, uint256 subtractedValue) public virtual returns (bool) {... */\n    tag_16:\n      tag_75\n      0x04\n      dup1\n      calldatasize\n      sub\n      dup2\n      add\n      swap1\n      tag_76\n      swap2\n      swap1\n      tag_31\n      jump\t// in\n    tag_76:\n      tag_77\n      jump\t// in\n    tag_75:\n      mload(0x40)\n      tag_78\n      swap2\n      swap1\n      tag_34\n      jump\t// in\n    tag_78:\n      mload(0x40)\n      dup1\n      swap2\n      sub\n      swap1\n      return\n        /* \"contracts/NewPINK/PINK_TOKEN.sol\":596:620  bool public LOCK = false */\n    tag_17:\n      tag_79\n      tag_80\n      jump\t// in\n    tag_79:\n      mload(0x40)\n      tag_81\n      swap2\n      swap1\n      tag_34\n      jump\t// in\n    tag_81:\n      mload(0x40)\n      dup1\n      swap2\n      sub\n      swap1\n      return\n        /* \"contracts/NewPINK/PINK_TOKEN.sol\":1189:1469  function transfer(address to, uint256 amount) public override returns (bool) {\r... */\n    tag_18:\n      tag_82\n      0x04\n      dup1\n      calldatasize\n      sub\n      dup2\n      add\n      swap1\n      tag_83\n      swap2\n      swap1\n      tag_31\n      jump\t// in\n    tag_83:\n      tag_84\n      jump\t// in\n    tag_82:\n      mload(0x40)\n      tag_85\n      swap2\n      swap1\n      tag_34\n      jump\t// in\n    tag_85:\n      mload(0x40)\n      dup1\n      swap2\n      sub\n      swap1\n      return\n        /* \"@openzeppelin/contracts@4.7.2/token/ERC20/ERC20.sol\":3976:4125  function allowance(address owner, address spender) public view virtual override returns (uint256) {... */\n    tag_19:\n      tag_86\n      0x04\n      dup1\n      calldatasize\n      sub\n      dup2\n      add\n      swap1\n      tag_87\n      swap2\n      swap1\n      tag_88\n      jump\t// in\n    tag_87:\n      tag_89\n      jump\t// in\n    tag_86:\n      mload(0x40)\n      tag_90\n      swap2\n      swap1\n      tag_38\n      jump\t// in\n    tag_90:\n      mload(0x40)\n      dup1\n      swap2\n      sub\n      swap1\n      return\n        /* \"contracts/NewPINK/PINK_TOKEN.sol\":2538:2768  function changeMaxTransfer(uint256 amount) public onlyOwner returns(uint256){\r... */\n    tag_20:\n      tag_91\n      0x04\n      dup1\n      calldatasize\n      sub\n      dup2\n      add\n      swap1\n      tag_92\n      swap2\n      swap1\n      tag_93\n      jump\t// in\n    tag_92:\n      tag_94\n      jump\t// in\n    tag_91:\n      mload(0x40)\n      tag_95\n      swap2\n      swap1\n      tag_38\n      jump\t// in\n    tag_95:\n      mload(0x40)\n      dup1\n      swap2\n      sub\n      swap1\n      return\n        /* \"@openzeppelin/contracts@4.7.2/access/Ownable.sol\":2081:2279  function transferOwnership(address newOwner) public virtual onlyOwner {... */\n    tag_21:\n      tag_96\n      0x04\n      dup1\n      calldatasize\n      sub\n      dup2\n      add\n      swap1\n      tag_97\n      swap2\n      swap1\n      tag_60\n      jump\t// in\n    tag_97:\n      tag_98\n      jump\t// in\n    tag_96:\n      stop\n        /* \"@openzeppelin/contracts@4.7.2/token/ERC20/ERC20.sol\":2156:2254  function name() public view virtual override returns (string memory) {... */\n    tag_26:\n        /* \"@openzeppelin/contracts@4.7.2/token/ERC20/ERC20.sol\":2210:2223  string memory */\n      0x60\n        /* \"@openzeppelin/contracts@4.7.2/token/ERC20/ERC20.sol\":2242:2247  _name */\n      0x03\n        /* \"@openzeppelin/contracts@4.7.2/token/ERC20/ERC20.sol\":2235:2247  return _name */\n      dup1\n      sload\n      tag_100\n      swap1\n      tag_101\n      jump\t// in\n    tag_100:\n      dup1\n      0x1f\n      add\n      0x20\n      dup1\n      swap2\n      div\n      mul\n      0x20\n      add\n      mload(0x40)\n      swap1\n      dup2\n      add\n      0x40\n      mstore\n      dup1\n      swap3\n      swap2\n      swap1\n      dup2\n      dup2\n      mstore\n      0x20\n      add\n      dup3\n      dup1\n      sload\n      tag_102\n      swap1\n      tag_101\n      jump\t// in\n    tag_102:\n      dup1\n      iszero\n      tag_103\n      jumpi\n      dup1\n      0x1f\n      lt\n      tag_104\n      jumpi\n      0x0100\n      dup1\n      dup4\n      sload\n      div\n      mul\n      dup4\n      mstore\n      swap2\n      0x20\n      add\n      swap2\n      jump(tag_103)\n    tag_104:\n      dup3\n      add\n      swap2\n      swap1\n      0x00\n      mstore\n      keccak256(0x00, 0x20)\n      swap1\n    tag_105:\n      dup2\n      sload\n      dup2\n      mstore\n      swap1\n      0x01\n      add\n      swap1\n      0x20\n      add\n      dup1\n      dup4\n      gt\n      tag_105\n      jumpi\n      dup3\n      swap1\n      sub\n      0x1f\n      and\n      dup3\n      add\n      swap2\n    tag_103:\n      pop\n      pop\n      pop\n      pop\n      pop\n      swap1\n      pop\n        /* \"@openzeppelin/contracts@4.7.2/token/ERC20/ERC20.sol\":2156:2254  function name() public view virtual override returns (string memory) {... */\n      swap1\n      jump\t// out\n        /* \"@openzeppelin/contracts@4.7.2/token/ERC20/ERC20.sol\":4433:4630  function approve(address spender, uint256 amount) public virtual override returns (bool) {... */\n    tag_32:\n        /* \"@openzeppelin/contracts@4.7.2/token/ERC20/ERC20.sol\":4516:4520  bool */\n      0x00\n        /* \"@openzeppelin/contracts@4.7.2/token/ERC20/ERC20.sol\":4532:4545  address owner */\n      dup1\n        /* \"@openzeppelin/contracts@4.7.2/token/ERC20/ERC20.sol\":4548:4560  _msgSender() */\n      tag_107\n        /* \"@openzeppelin/contracts@4.7.2/token/ERC20/ERC20.sol\":4548:4558  _msgSender */\n      tag_108\n        /* \"@openzeppelin/contracts@4.7.2/token/ERC20/ERC20.sol\":4548:4560  _msgSender() */\n      jump\t// in\n    tag_107:\n        /* \"@openzeppelin/contracts@4.7.2/token/ERC20/ERC20.sol\":4532:4560  address owner = _msgSender() */\n      swap1\n      pop\n        /* \"@openzeppelin/contracts@4.7.2/token/ERC20/ERC20.sol\":4570:4602  _approve(owner, spender, amount) */\n      tag_109\n        /* \"@openzeppelin/contracts@4.7.2/token/ERC20/ERC20.sol\":4579:4584  owner */\n      dup2\n        /* \"@openzeppelin/contracts@4.7.2/token/ERC20/ERC20.sol\":4586:4593  spender */\n      dup6\n        /* \"@openzeppelin/contracts@4.7.2/token/ERC20/ERC20.sol\":4595:4601  amount */\n      dup6\n        /* \"@openzeppelin/contracts@4.7.2/token/ERC20/ERC20.sol\":4570:4578  _approve */\n      tag_110\n        /* \"@openzeppelin/contracts@4.7.2/token/ERC20/ERC20.sol\":4570:4602  _approve(owner, spender, amount) */\n      jump\t// in\n    tag_109:\n        /* \"@openzeppelin/contracts@4.7.2/token/ERC20/ERC20.sol\":4619:4623  true */\n      0x01\n        /* \"@openzeppelin/contracts@4.7.2/token/ERC20/ERC20.sol\":4612:4623  return true */\n      swap2\n      pop\n      pop\n        /* \"@openzeppelin/contracts@4.7.2/token/ERC20/ERC20.sol\":4433:4630  function approve(address spender, uint256 amount) public virtual override returns (bool) {... */\n      swap3\n      swap2\n      pop\n      pop\n      jump\t// out\n        /* \"@openzeppelin/contracts@4.7.2/token/ERC20/ERC20.sol\":3244:3350  function totalSupply() public view virtual override returns (uint256) {... */\n    tag_36:\n        /* \"@openzeppelin/contracts@4.7.2/token/ERC20/ERC20.sol\":3305:3312  uint256 */\n      0x00\n        /* \"@openzeppelin/contracts@4.7.2/token/ERC20/ERC20.sol\":3331:3343  _totalSupply */\n      sload(0x02)\n        /* \"@openzeppelin/contracts@4.7.2/token/ERC20/ERC20.sol\":3324:3343  return _totalSupply */\n      swap1\n      pop\n        /* \"@openzeppelin/contracts@4.7.2/token/ERC20/ERC20.sol\":3244:3350  function totalSupply() public view virtual override returns (uint256) {... */\n      swap1\n      jump\t// out\n        /* \"contracts/NewPINK/PINK_TOKEN.sol\":2146:2530  function transferFrom(\r... */\n    tag_42:\n        /* \"contracts/NewPINK/PINK_TOKEN.sol\":2269:2273  bool */\n      0x00\n        /* \"contracts/NewPINK/PINK_TOKEN.sol\":2295:2299  LOCK */\n      0x07\n      0x00\n      swap1\n      sload\n      swap1\n      0x0100\n      exp\n      swap1\n      div\n      0xff\n      and\n        /* \"contracts/NewPINK/PINK_TOKEN.sol\":2294:2299  !LOCK */\n      iszero\n        /* \"contracts/NewPINK/PINK_TOKEN.sol\":2294:2325  !LOCK || amount <= MAX_TRANSFER */\n      dup1\n      tag_113\n      jumpi\n      pop\n        /* \"contracts/NewPINK/PINK_TOKEN.sol\":2313:2325  MAX_TRANSFER */\n      sload(0x08)\n        /* \"contracts/NewPINK/PINK_TOKEN.sol\":2303:2309  amount */\n      dup3\n        /* \"contracts/NewPINK/PINK_TOKEN.sol\":2303:2325  amount <= MAX_TRANSFER */\n      gt\n      iszero\n        /* \"contracts/NewPINK/PINK_TOKEN.sol\":2294:2325  !LOCK || amount <= MAX_TRANSFER */\n    tag_113:\n        /* \"contracts/NewPINK/PINK_TOKEN.sol\":2286:2370  require(!LOCK || amount <= MAX_TRANSFER, \"ERROR - Temporary Transfer Limit Reached\") */\n      tag_114\n      jumpi\n      mload(0x40)\n      0x08c379a000000000000000000000000000000000000000000000000000000000\n      dup2\n      mstore\n      0x04\n      add\n      tag_115\n      swap1\n      tag_116\n      jump\t// in\n    tag_115:\n      mload(0x40)\n      dup1\n      swap2\n      sub\n      swap1\n      revert\n    tag_114:\n        /* \"contracts/NewPINK/PINK_TOKEN.sol\":2383:2398  address spender */\n      0x00\n        /* \"contracts/NewPINK/PINK_TOKEN.sol\":2401:2413  _msgSender() */\n      tag_117\n        /* \"contracts/NewPINK/PINK_TOKEN.sol\":2401:2411  _msgSender */\n      tag_108\n        /* \"contracts/NewPINK/PINK_TOKEN.sol\":2401:2413  _msgSender() */\n      jump\t// in\n    tag_117:\n        /* \"contracts/NewPINK/PINK_TOKEN.sol\":2383:2413  address spender = _msgSender() */\n      swap1\n      pop\n        /* \"contracts/NewPINK/PINK_TOKEN.sol\":2424:2462  _spendAllowance(from, spender, amount) */\n      tag_118\n        /* \"contracts/NewPINK/PINK_TOKEN.sol\":2440:2444  from */\n      dup6\n        /* \"contracts/NewPINK/PINK_TOKEN.sol\":2446:2453  spender */\n      dup3\n        /* \"contracts/NewPINK/PINK_TOKEN.sol\":2455:2461  amount */\n      dup6\n        /* \"contracts/NewPINK/PINK_TOKEN.sol\":2424:2439  _spendAllowance */\n      tag_119\n        /* \"contracts/NewPINK/PINK_TOKEN.sol\":2424:2462  _spendAllowance(from, spender, amount) */\n      jump\t// in\n    tag_118:\n        /* \"contracts/NewPINK/PINK_TOKEN.sol\":2473:2500  _transfer(from, to, amount) */\n      tag_120\n        /* \"contracts/NewPINK/PINK_TOKEN.sol\":2483:2487  from */\n      dup6\n        /* \"contracts/NewPINK/PINK_TOKEN.sol\":2489:2491  to */\n      dup6\n        /* \"contracts/NewPINK/PINK_TOKEN.sol\":2493:2499  amount */\n      dup6\n        /* \"contracts/NewPINK/PINK_TOKEN.sol\":2473:2482  _transfer */\n      tag_121\n        /* \"contracts/NewPINK/PINK_TOKEN.sol\":2473:2500  _transfer(from, to, amount) */\n      jump\t// in\n    tag_120:\n        /* \"contracts/NewPINK/PINK_TOKEN.sol\":2518:2522  true */\n      0x01\n        /* \"contracts/NewPINK/PINK_TOKEN.sol\":2511:2522  return true */\n      swap2\n      pop\n      pop\n        /* \"contracts/NewPINK/PINK_TOKEN.sol\":2146:2530  function transferFrom(\r... */\n      swap4\n      swap3\n      pop\n      pop\n      pop\n      jump\t// out\n        /* \"@openzeppelin/contracts@4.7.2/token/ERC20/ERC20.sol\":3093:3184  function decimals() public view virtual override returns (uint8) {... */\n    tag_45:\n        /* \"@openzeppelin/contracts@4.7.2/token/ERC20/ERC20.sol\":3151:3156  uint8 */\n      0x00\n        /* \"@openzeppelin/contracts@4.7.2/token/ERC20/ERC20.sol\":3175:3177  18 */\n      0x12\n        /* \"@openzeppelin/contracts@4.7.2/token/ERC20/ERC20.sol\":3168:3177  return 18 */\n      swap1\n      pop\n        /* \"@openzeppelin/contracts@4.7.2/token/ERC20/ERC20.sol\":3093:3184  function decimals() public view virtual override returns (uint8) {... */\n      swap1\n      jump\t// out\n        /* \"contracts/NewPINK/PINK_TOKEN.sol\":263:301  uint256 public MAX_SUPPLY = 1000000000 */\n    tag_49:\n      sload(0x06)\n      dup2\n      jump\t// out\n        /* \"@openzeppelin/contracts@4.7.2/token/ERC20/ERC20.sol\":5873:6107  function increaseAllowance(address spender, uint256 addedValue) public virtual returns (bool) {... */\n    tag_53:\n        /* \"@openzeppelin/contracts@4.7.2/token/ERC20/ERC20.sol\":5961:5965  bool */\n      0x00\n        /* \"@openzeppelin/contracts@4.7.2/token/ERC20/ERC20.sol\":5977:5990  address owner */\n      dup1\n        /* \"@openzeppelin/contracts@4.7.2/token/ERC20/ERC20.sol\":5993:6005  _msgSender() */\n      tag_124\n        /* \"@openzeppelin/contracts@4.7.2/token/ERC20/ERC20.sol\":5993:6003  _msgSender */\n      tag_108\n        /* \"@openzeppelin/contracts@4.7.2/token/ERC20/ERC20.sol\":5993:6005  _msgSender() */\n      jump\t// in\n    tag_124:\n        /* \"@openzeppelin/contracts@4.7.2/token/ERC20/ERC20.sol\":5977:6005  address owner = _msgSender() */\n      swap1\n      pop\n        /* \"@openzeppelin/contracts@4.7.2/token/ERC20/ERC20.sol\":6015:6079  _approve(owner, spender, allowance(owner, spender) + addedValue) */\n      tag_125\n        /* \"@openzeppelin/contracts@4.7.2/token/ERC20/ERC20.sol\":6024:6029  owner */\n      dup2\n        /* \"@openzeppelin/contracts@4.7.2/token/ERC20/ERC20.sol\":6031:6038  spender */\n      dup6\n        /* \"@openzeppelin/contracts@4.7.2/token/ERC20/ERC20.sol\":6068:6078  addedValue */\n      dup6\n        /* \"@openzeppelin/contracts@4.7.2/token/ERC20/ERC20.sol\":6040:6065  allowance(owner, spender) */\n      tag_126\n        /* \"@openzeppelin/contracts@4.7.2/token/ERC20/ERC20.sol\":6050:6055  owner */\n      dup6\n        /* \"@openzeppelin/contracts@4.7.2/token/ERC20/ERC20.sol\":6057:6064  spender */\n      dup10\n        /* \"@openzeppelin/contracts@4.7.2/token/ERC20/ERC20.sol\":6040:6049  allowance */\n      tag_89\n        /* \"@openzeppelin/contracts@4.7.2/token/ERC20/ERC20.sol\":6040:6065  allowance(owner, spender) */\n      jump\t// in\n    tag_126:\n        /* \"@openzeppelin/contracts@4.7.2/token/ERC20/ERC20.sol\":6040:6078  allowance(owner, spender) + addedValue */\n      tag_127\n      swap2\n      swap1\n      tag_128\n      jump\t// in\n    tag_127:\n        /* \"@openzeppelin/contracts@4.7.2/token/ERC20/ERC20.sol\":6015:6023  _approve */\n      tag_110\n        /* \"@openzeppelin/contracts@4.7.2/token/ERC20/ERC20.sol\":6015:6079  _approve(owner, spender, allowance(owner, spender) + addedValue) */\n      jump\t// in\n    tag_125:\n        /* \"@openzeppelin/contracts@4.7.2/token/ERC20/ERC20.sol\":6096:6100  true */\n      0x01\n        /* \"@openzeppelin/contracts@4.7.2/token/ERC20/ERC20.sol\":6089:6100  return true */\n      swap2\n      pop\n      pop\n        /* \"@openzeppelin/contracts@4.7.2/token/ERC20/ERC20.sol\":5873:6107  function increaseAllowance(address spender, uint256 addedValue) public virtual returns (bool) {... */\n      swap3\n      swap2\n      pop\n      pop\n      jump\t// out\n        /* \"contracts/NewPINK/PINK_TOKEN.sol\":2778:2882  function flipLock() public onlyOwner returns(bool){\r... */\n    tag_56:\n        /* \"contracts/NewPINK/PINK_TOKEN.sol\":2823:2827  bool */\n      0x00\n        /* \"@openzeppelin/contracts@4.7.2/access/Ownable.sol\":1094:1107  _checkOwner() */\n      tag_130\n        /* \"@openzeppelin/contracts@4.7.2/access/Ownable.sol\":1094:1105  _checkOwner */\n      tag_131\n        /* \"@openzeppelin/contracts@4.7.2/access/Ownable.sol\":1094:1107  _checkOwner() */\n      jump\t// in\n    tag_130:\n        /* \"contracts/NewPINK/PINK_TOKEN.sol\":2847:2851  LOCK */\n      0x07\n      0x00\n      swap1\n      sload\n      swap1\n      0x0100\n      exp\n      swap1\n      div\n      0xff\n      and\n        /* \"contracts/NewPINK/PINK_TOKEN.sol\":2846:2851  !LOCK */\n      iszero\n        /* \"contracts/NewPINK/PINK_TOKEN.sol\":2839:2843  LOCK */\n      0x07\n      0x00\n        /* \"contracts/NewPINK/PINK_TOKEN.sol\":2839:2851  LOCK = !LOCK */\n      0x0100\n      exp\n      dup2\n      sload\n      dup2\n      0xff\n      mul\n      not\n      and\n      swap1\n      dup4\n      iszero\n      iszero\n      mul\n      or\n      swap1\n      sstore\n      pop\n        /* \"contracts/NewPINK/PINK_TOKEN.sol\":2869:2873  LOCK */\n      0x07\n      0x00\n      swap1\n      sload\n      swap1\n      0x0100\n      exp\n      swap1\n      div\n      0xff\n      and\n        /* \"contracts/NewPINK/PINK_TOKEN.sol\":2862:2874  return(LOCK) */\n      swap1\n      pop\n        /* \"contracts/NewPINK/PINK_TOKEN.sol\":2778:2882  function flipLock() public onlyOwner returns(bool){\r... */\n      swap1\n      jump\t// out\n        /* \"@openzeppelin/contracts@4.7.2/token/ERC20/ERC20.sol\":3408:3533  function balanceOf(address account) public view virtual override returns (uint256) {... */\n    tag_61:\n        /* \"@openzeppelin/contracts@4.7.2/token/ERC20/ERC20.sol\":3482:3489  uint256 */\n      0x00\n        /* \"@openzeppelin/contracts@4.7.2/token/ERC20/ERC20.sol\":3508:3517  _balances */\n      dup1\n        /* \"@openzeppelin/contracts@4.7.2/token/ERC20/ERC20.sol\":3508:3526  _balances[account] */\n      0x00\n        /* \"@openzeppelin/contracts@4.7.2/token/ERC20/ERC20.sol\":3518:3525  account */\n      dup4\n        /* \"@openzeppelin/contracts@4.7.2/token/ERC20/ERC20.sol\":3508:3526  _balances[account] */\n      0xffffffffffffffffffffffffffffffffffffffff\n      and\n      0xffffffffffffffffffffffffffffffffffffffff\n      and\n      dup2\n      mstore\n      0x20\n      add\n      swap1\n      dup2\n      mstore\n      0x20\n      add\n      0x00\n      keccak256\n      sload\n        /* \"@openzeppelin/contracts@4.7.2/token/ERC20/ERC20.sol\":3501:3526  return _balances[account] */\n      swap1\n      pop\n        /* \"@openzeppelin/contracts@4.7.2/token/ERC20/ERC20.sol\":3408:3533  function balanceOf(address account) public view virtual override returns (uint256) {... */\n      swap2\n      swap1\n      pop\n      jump\t// out\n        /* \"@openzeppelin/contracts@4.7.2/access/Ownable.sol\":1831:1932  function renounceOwnership() public virtual onlyOwner {... */\n    tag_64:\n        /* \"@openzeppelin/contracts@4.7.2/access/Ownable.sol\":1094:1107  _checkOwner() */\n      tag_135\n        /* \"@openzeppelin/contracts@4.7.2/access/Ownable.sol\":1094:1105  _checkOwner */\n      tag_131\n        /* \"@openzeppelin/contracts@4.7.2/access/Ownable.sol\":1094:1107  _checkOwner() */\n      jump\t// in\n    tag_135:\n        /* \"@openzeppelin/contracts@4.7.2/access/Ownable.sol\":1895:1925  _transferOwnership(address(0)) */\n      tag_137\n        /* \"@openzeppelin/contracts@4.7.2/access/Ownable.sol\":1922:1923  0 */\n      0x00\n        /* \"@openzeppelin/contracts@4.7.2/access/Ownable.sol\":1895:1913  _transferOwnership */\n      tag_138\n        /* \"@openzeppelin/contracts@4.7.2/access/Ownable.sol\":1895:1925  _transferOwnership(address(0)) */\n      jump\t// in\n    tag_137:\n        /* \"@openzeppelin/contracts@4.7.2/access/Ownable.sol\":1831:1932  function renounceOwnership() public virtual onlyOwner {... */\n      jump\t// out\n        /* \"@openzeppelin/contracts@4.7.2/access/Ownable.sol\":1201:1286  function owner() public view virtual returns (address) {... */\n    tag_66:\n        /* \"@openzeppelin/contracts@4.7.2/access/Ownable.sol\":1247:1254  address */\n      0x00\n        /* \"@openzeppelin/contracts@4.7.2/access/Ownable.sol\":1273:1279  _owner */\n      0x05\n      0x00\n      swap1\n      sload\n      swap1\n      0x0100\n      exp\n      swap1\n      div\n      0xffffffffffffffffffffffffffffffffffffffff\n      and\n        /* \"@openzeppelin/contracts@4.7.2/access/Ownable.sol\":1266:1279  return _owner */\n      swap1\n      pop\n        /* \"@openzeppelin/contracts@4.7.2/access/Ownable.sol\":1201:1286  function owner() public view virtual returns (address) {... */\n      swap1\n      jump\t// out\n        /* \"@openzeppelin/contracts@4.7.2/token/ERC20/ERC20.sol\":2367:2469  function symbol() public view virtual override returns (string memory) {... */\n    tag_70:\n        /* \"@openzeppelin/contracts@4.7.2/token/ERC20/ERC20.sol\":2423:2436  string memory */\n      0x60\n        /* \"@openzeppelin/contracts@4.7.2/token/ERC20/ERC20.sol\":2455:2462  _symbol */\n      0x04\n        /* \"@openzeppelin/contracts@4.7.2/token/ERC20/ERC20.sol\":2448:2462  return _symbol */\n      dup1\n      sload\n      tag_141\n      swap1\n      tag_101\n      jump\t// in\n    tag_141:\n      dup1\n      0x1f\n      add\n      0x20\n      dup1\n      swap2\n      div\n      mul\n      0x20\n      add\n      mload(0x40)\n      swap1\n      dup2\n      add\n      0x40\n      mstore\n      dup1\n      swap3\n      swap2\n      swap1\n      dup2\n      dup2\n      mstore\n      0x20\n      add\n      dup3\n      dup1\n      sload\n      tag_142\n      swap1\n      tag_101\n      jump\t// in\n    tag_142:\n      dup1\n      iszero\n      tag_143\n      jumpi\n      dup1\n      0x1f\n      lt\n      tag_144\n      jumpi\n      0x0100\n      dup1\n      dup4\n      sload\n      div\n      mul\n      dup4\n      mstore\n      swap2\n      0x20\n      add\n      swap2\n      jump(tag_143)\n    tag_144:\n      dup3\n      add\n      swap2\n      swap1\n      0x00\n      mstore\n      keccak256(0x00, 0x20)\n      swap1\n    tag_145:\n      dup2\n      sload\n      dup2\n      mstore\n      swap1\n      0x01\n      add\n      swap1\n      0x20\n      add\n      dup1\n      dup4\n      gt\n      tag_145\n      jumpi\n      dup3\n      swap1\n      sub\n      0x1f\n      and\n      dup3\n      add\n      swap2\n    tag_143:\n      pop\n      pop\n      pop\n      pop\n      pop\n      swap1\n      pop\n        /* \"@openzeppelin/contracts@4.7.2/token/ERC20/ERC20.sol\":2367:2469  function symbol() public view virtual override returns (string memory) {... */\n      swap1\n      jump\t// out\n        /* \"contracts/NewPINK/PINK_TOKEN.sol\":627:654  uint256 public MAX_TRANSFER */\n    tag_73:\n      sload(0x08)\n      dup2\n      jump\t// out\n        /* \"@openzeppelin/contracts@4.7.2/token/ERC20/ERC20.sol\":6594:7021  function decreaseAllowance(address spender, uint256 subtractedValue) public virtual returns (bool) {... */\n    tag_77:\n        /* \"@openzeppelin/contracts@4.7.2/token/ERC20/ERC20.sol\":6687:6691  bool */\n      0x00\n        /* \"@openzeppelin/contracts@4.7.2/token/ERC20/ERC20.sol\":6703:6716  address owner */\n      dup1\n        /* \"@openzeppelin/contracts@4.7.2/token/ERC20/ERC20.sol\":6719:6731  _msgSender() */\n      tag_147\n        /* \"@openzeppelin/contracts@4.7.2/token/ERC20/ERC20.sol\":6719:6729  _msgSender */\n      tag_108\n        /* \"@openzeppelin/contracts@4.7.2/token/ERC20/ERC20.sol\":6719:6731  _msgSender() */\n      jump\t// in\n    tag_147:\n        /* \"@openzeppelin/contracts@4.7.2/token/ERC20/ERC20.sol\":6703:6731  address owner = _msgSender() */\n      swap1\n      pop\n        /* \"@openzeppelin/contracts@4.7.2/token/ERC20/ERC20.sol\":6741:6765  uint256 currentAllowance */\n      0x00\n        /* \"@openzeppelin/contracts@4.7.2/token/ERC20/ERC20.sol\":6768:6793  allowance(owner, spender) */\n      tag_148\n        /* \"@openzeppelin/contracts@4.7.2/token/ERC20/ERC20.sol\":6778:6783  owner */\n      dup3\n        /* \"@openzeppelin/contracts@4.7.2/token/ERC20/ERC20.sol\":6785:6792  spender */\n      dup7\n        /* \"@openzeppelin/contracts@4.7.2/token/ERC20/ERC20.sol\":6768:6777  allowance */\n      tag_89\n        /* \"@openzeppelin/contracts@4.7.2/token/ERC20/ERC20.sol\":6768:6793  allowance(owner, spender) */\n      jump\t// in\n    tag_148:\n        /* \"@openzeppelin/contracts@4.7.2/token/ERC20/ERC20.sol\":6741:6793  uint256 currentAllowance = allowance(owner, spender) */\n      swap1\n      pop\n        /* \"@openzeppelin/contracts@4.7.2/token/ERC20/ERC20.sol\":6831:6846  subtractedValue */\n      dup4\n        /* \"@openzeppelin/contracts@4.7.2/token/ERC20/ERC20.sol\":6811:6827  currentAllowance */\n      dup2\n        /* \"@openzeppelin/contracts@4.7.2/token/ERC20/ERC20.sol\":6811:6846  currentAllowance >= subtractedValue */\n      lt\n      iszero\n        /* \"@openzeppelin/contracts@4.7.2/token/ERC20/ERC20.sol\":6803:6888  require(currentAllowance >= subtractedValue, \"ERC20: decreased allowance below zero\") */\n      tag_149\n      jumpi\n      mload(0x40)\n      0x08c379a000000000000000000000000000000000000000000000000000000000\n      dup2\n      mstore\n      0x04\n      add\n      tag_150\n      swap1\n      tag_151\n      jump\t// in\n    tag_150:\n      mload(0x40)\n      dup1\n      swap2\n      sub\n      swap1\n      revert\n    tag_149:\n        /* \"@openzeppelin/contracts@4.7.2/token/ERC20/ERC20.sol\":6922:6982  _approve(owner, spender, currentAllowance - subtractedValue) */\n      tag_152\n        /* \"@openzeppelin/contracts@4.7.2/token/ERC20/ERC20.sol\":6931:6936  owner */\n      dup3\n        /* \"@openzeppelin/contracts@4.7.2/token/ERC20/ERC20.sol\":6938:6945  spender */\n      dup7\n        /* \"@openzeppelin/contracts@4.7.2/token/ERC20/ERC20.sol\":6966:6981  subtractedValue */\n      dup7\n        /* \"@openzeppelin/contracts@4.7.2/token/ERC20/ERC20.sol\":6947:6963  currentAllowance */\n      dup5\n        /* \"@openzeppelin/contracts@4.7.2/token/ERC20/ERC20.sol\":6947:6981  currentAllowance - subtractedValue */\n      sub\n        /* \"@openzeppelin/contracts@4.7.2/token/ERC20/ERC20.sol\":6922:6930  _approve */\n      tag_110\n        /* \"@openzeppelin/contracts@4.7.2/token/ERC20/ERC20.sol\":6922:6982  _approve(owner, spender, currentAllowance - subtractedValue) */\n      jump\t// in\n    tag_152:\n        /* \"@openzeppelin/contracts@4.7.2/token/ERC20/ERC20.sol\":7010:7014  true */\n      0x01\n        /* \"@openzeppelin/contracts@4.7.2/token/ERC20/ERC20.sol\":7003:7014  return true */\n      swap3\n      pop\n      pop\n      pop\n        /* \"@openzeppelin/contracts@4.7.2/token/ERC20/ERC20.sol\":6594:7021  function decreaseAllowance(address spender, uint256 subtractedValue) public virtual returns (bool) {... */\n      swap3\n      swap2\n      pop\n      pop\n      jump\t// out\n        /* \"contracts/NewPINK/PINK_TOKEN.sol\":596:620  bool public LOCK = false */\n    tag_80:\n      0x07\n      0x00\n      swap1\n      sload\n      swap1\n      0x0100\n      exp\n      swap1\n      div\n      0xff\n      and\n      dup2\n      jump\t// out\n        /* \"contracts/NewPINK/PINK_TOKEN.sol\":1189:1469  function transfer(address to, uint256 amount) public override returns (bool) {\r... */\n    tag_84:\n        /* \"contracts/NewPINK/PINK_TOKEN.sol\":1260:1264  bool */\n      0x00\n        /* \"contracts/NewPINK/PINK_TOKEN.sol\":1286:1290  LOCK */\n      0x07\n      0x00\n      swap1\n      sload\n      swap1\n      0x0100\n      exp\n      swap1\n      div\n      0xff\n      and\n        /* \"contracts/NewPINK/PINK_TOKEN.sol\":1285:1290  !LOCK */\n      iszero\n        /* \"contracts/NewPINK/PINK_TOKEN.sol\":1285:1316  !LOCK || amount <= MAX_TRANSFER */\n      dup1\n      tag_154\n      jumpi\n      pop\n        /* \"contracts/NewPINK/PINK_TOKEN.sol\":1304:1316  MAX_TRANSFER */\n      sload(0x08)\n        /* \"contracts/NewPINK/PINK_TOKEN.sol\":1294:1300  amount */\n      dup3\n        /* \"contracts/NewPINK/PINK_TOKEN.sol\":1294:1316  amount <= MAX_TRANSFER */\n      gt\n      iszero\n        /* \"contracts/NewPINK/PINK_TOKEN.sol\":1285:1316  !LOCK || amount <= MAX_TRANSFER */\n    tag_154:\n        /* \"contracts/NewPINK/PINK_TOKEN.sol\":1277:1361  require(!LOCK || amount <= MAX_TRANSFER, \"ERROR - Temporary Transfer Limit Reached\") */\n      tag_155\n      jumpi\n      mload(0x40)\n      0x08c379a000000000000000000000000000000000000000000000000000000000\n      dup2\n      mstore\n      0x04\n      add\n      tag_156\n      swap1\n      tag_116\n      jump\t// in\n    tag_156:\n      mload(0x40)\n      dup1\n      swap2\n      sub\n      swap1\n      revert\n    tag_155:\n        /* \"contracts/NewPINK/PINK_TOKEN.sol\":1372:1385  address owner */\n      0x00\n        /* \"contracts/NewPINK/PINK_TOKEN.sol\":1388:1400  _msgSender() */\n      tag_157\n        /* \"contracts/NewPINK/PINK_TOKEN.sol\":1388:1398  _msgSender */\n      tag_108\n        /* \"contracts/NewPINK/PINK_TOKEN.sol\":1388:1400  _msgSender() */\n      jump\t// in\n    tag_157:\n        /* \"contracts/NewPINK/PINK_TOKEN.sol\":1372:1400  address owner = _msgSender() */\n      swap1\n      pop\n        /* \"contracts/NewPINK/PINK_TOKEN.sol\":1411:1439  _transfer(owner, to, amount) */\n      tag_158\n        /* \"contracts/NewPINK/PINK_TOKEN.sol\":1421:1426  owner */\n      dup2\n        /* \"contracts/NewPINK/PINK_TOKEN.sol\":1428:1430  to */\n      dup6\n        /* \"contracts/NewPINK/PINK_TOKEN.sol\":1432:1438  amount */\n      dup6\n        /* \"contracts/NewPINK/PINK_TOKEN.sol\":1411:1420  _transfer */\n      tag_121\n        /* \"contracts/NewPINK/PINK_TOKEN.sol\":1411:1439  _transfer(owner, to, amount) */\n      jump\t// in\n    tag_158:\n        /* \"contracts/NewPINK/PINK_TOKEN.sol\":1457:1461  true */\n      0x01\n        /* \"contracts/NewPINK/PINK_TOKEN.sol\":1450:1461  return true */\n      swap2\n      pop\n      pop\n        /* \"contracts/NewPINK/PINK_TOKEN.sol\":1189:1469  function transfer(address to, uint256 amount) public override returns (bool) {\r... */\n      swap3\n      swap2\n      pop\n      pop\n      jump\t// out\n        /* \"@openzeppelin/contracts@4.7.2/token/ERC20/ERC20.sol\":3976:4125  function allowance(address owner, address spender) public view virtual override returns (uint256) {... */\n    tag_89:\n        /* \"@openzeppelin/contracts@4.7.2/token/ERC20/ERC20.sol\":4065:4072  uint256 */\n      0x00\n        /* \"@openzeppelin/contracts@4.7.2/token/ERC20/ERC20.sol\":4091:4102  _allowances */\n      0x01\n        /* \"@openzeppelin/contracts@4.7.2/token/ERC20/ERC20.sol\":4091:4109  _allowances[owner] */\n      0x00\n        /* \"@openzeppelin/contracts@4.7.2/token/ERC20/ERC20.sol\":4103:4108  owner */\n      dup5\n        /* \"@openzeppelin/contracts@4.7.2/token/ERC20/ERC20.sol\":4091:4109  _allowances[owner] */\n      0xffffffffffffffffffffffffffffffffffffffff\n      and\n      0xffffffffffffffffffffffffffffffffffffffff\n      and\n      dup2\n      mstore\n      0x20\n      add\n      swap1\n      dup2\n      mstore\n      0x20\n      add\n      0x00\n      keccak256\n        /* \"@openzeppelin/contracts@4.7.2/token/ERC20/ERC20.sol\":4091:4118  _allowances[owner][spender] */\n      0x00\n        /* \"@openzeppelin/contracts@4.7.2/token/ERC20/ERC20.sol\":4110:4117  spender */\n      dup4\n        /* \"@openzeppelin/contracts@4.7.2/token/ERC20/ERC20.sol\":4091:4118  _allowances[owner][spender] */\n      0xffffffffffffffffffffffffffffffffffffffff\n      and\n      0xffffffffffffffffffffffffffffffffffffffff\n      and\n      dup2\n      mstore\n      0x20\n      add\n      swap1\n      dup2\n      mstore\n      0x20\n      add\n      0x00\n      keccak256\n      sload\n        /* \"@openzeppelin/contracts@4.7.2/token/ERC20/ERC20.sol\":4084:4118  return _allowances[owner][spender] */\n      swap1\n      pop\n        /* \"@openzeppelin/contracts@4.7.2/token/ERC20/ERC20.sol\":3976:4125  function allowance(address owner, address spender) public view virtual override returns (uint256) {... */\n      swap3\n      swap2\n      pop\n      pop\n      jump\t// out\n        /* \"contracts/NewPINK/PINK_TOKEN.sol\":2538:2768  function changeMaxTransfer(uint256 amount) public onlyOwner returns(uint256){\r... */\n    tag_94:\n        /* \"contracts/NewPINK/PINK_TOKEN.sol\":2606:2613  uint256 */\n      0x00\n        /* \"@openzeppelin/contracts@4.7.2/access/Ownable.sol\":1094:1107  _checkOwner() */\n      tag_161\n        /* \"@openzeppelin/contracts@4.7.2/access/Ownable.sol\":1094:1105  _checkOwner */\n      tag_131\n        /* \"@openzeppelin/contracts@4.7.2/access/Ownable.sol\":1094:1107  _checkOwner() */\n      jump\t// in\n    tag_161:\n        /* \"contracts/NewPINK/PINK_TOKEN.sol\":2643:2653  MAX_SUPPLY */\n      sload(0x06)\n        /* \"contracts/NewPINK/PINK_TOKEN.sol\":2633:2639  amount */\n      dup3\n        /* \"contracts/NewPINK/PINK_TOKEN.sol\":2633:2653  amount <= MAX_SUPPLY */\n      gt\n      iszero\n        /* \"contracts/NewPINK/PINK_TOKEN.sol\":2633:2668  amount <= MAX_SUPPLY || amount >= 0 */\n      dup1\n      tag_163\n      jumpi\n      pop\n        /* \"contracts/NewPINK/PINK_TOKEN.sol\":2667:2668  0 */\n      0x00\n        /* \"contracts/NewPINK/PINK_TOKEN.sol\":2657:2663  amount */\n      dup3\n        /* \"contracts/NewPINK/PINK_TOKEN.sol\":2657:2668  amount >= 0 */\n      lt\n      iszero\n        /* \"contracts/NewPINK/PINK_TOKEN.sol\":2633:2668  amount <= MAX_SUPPLY || amount >= 0 */\n    tag_163:\n        /* \"contracts/NewPINK/PINK_TOKEN.sol\":2625:2694  require(amount <= MAX_SUPPLY || amount >= 0 ,\"ERROR - Invalid Value\") */\n      tag_164\n      jumpi\n      mload(0x40)\n      0x08c379a000000000000000000000000000000000000000000000000000000000\n      dup2\n      mstore\n      0x04\n      add\n      tag_165\n      swap1\n      tag_166\n      jump\t// in\n    tag_165:\n      mload(0x40)\n      dup1\n      swap2\n      sub\n      swap1\n      revert\n    tag_164:\n        /* \"contracts/NewPINK/PINK_TOKEN.sol\":2730:2736  amount */\n      dup2\n        /* \"contracts/NewPINK/PINK_TOKEN.sol\":2715:2727  MAX_TRANSFER */\n      0x08\n        /* \"contracts/NewPINK/PINK_TOKEN.sol\":2715:2736  MAX_TRANSFER = amount */\n      dup2\n      swap1\n      sstore\n      pop\n        /* \"contracts/NewPINK/PINK_TOKEN.sol\":2754:2760  amount */\n      dup2\n        /* \"contracts/NewPINK/PINK_TOKEN.sol\":2747:2760  return amount */\n      swap1\n      pop\n        /* \"contracts/NewPINK/PINK_TOKEN.sol\":2538:2768  function changeMaxTransfer(uint256 amount) public onlyOwner returns(uint256){\r... */\n      swap2\n      swap1\n      pop\n      jump\t// out\n        /* \"@openzeppelin/contracts@4.7.2/access/Ownable.sol\":2081:2279  function transferOwnership(address newOwner) public virtual onlyOwner {... */\n    tag_98:\n        /* \"@openzeppelin/contracts@4.7.2/access/Ownable.sol\":1094:1107  _checkOwner() */\n      tag_168\n        /* \"@openzeppelin/contracts@4.7.2/access/Ownable.sol\":1094:1105  _checkOwner */\n      tag_131\n        /* \"@openzeppelin/contracts@4.7.2/access/Ownable.sol\":1094:1107  _checkOwner() */\n      jump\t// in\n    tag_168:\n        /* \"@openzeppelin/contracts@4.7.2/access/Ownable.sol\":2189:2190  0 */\n      0x00\n        /* \"@openzeppelin/contracts@4.7.2/access/Ownable.sol\":2169:2191  newOwner != address(0) */\n      0xffffffffffffffffffffffffffffffffffffffff\n      and\n        /* \"@openzeppelin/contracts@4.7.2/access/Ownable.sol\":2169:2177  newOwner */\n      dup2\n        /* \"@openzeppelin/contracts@4.7.2/access/Ownable.sol\":2169:2191  newOwner != address(0) */\n      0xffffffffffffffffffffffffffffffffffffffff\n      and\n      eq\n      iszero\n        /* \"@openzeppelin/contracts@4.7.2/access/Ownable.sol\":2161:2234  require(newOwner != address(0), \"Ownable: new owner is the zero address\") */\n      tag_170\n      jumpi\n      mload(0x40)\n      0x08c379a000000000000000000000000000000000000000000000000000000000\n      dup2\n      mstore\n      0x04\n      add\n      tag_171\n      swap1\n      tag_172\n      jump\t// in\n    tag_171:\n      mload(0x40)\n      dup1\n      swap2\n      sub\n      swap1\n      revert\n    tag_170:\n        /* \"@openzeppelin/contracts@4.7.2/access/Ownable.sol\":2244:2272  _transferOwnership(newOwner) */\n      tag_173\n        /* \"@openzeppelin/contracts@4.7.2/access/Ownable.sol\":2263:2271  newOwner */\n      dup2\n        /* \"@openzeppelin/contracts@4.7.2/access/Ownable.sol\":2244:2262  _transferOwnership */\n      tag_138\n        /* \"@openzeppelin/contracts@4.7.2/access/Ownable.sol\":2244:2272  _transferOwnership(newOwner) */\n      jump\t// in\n    tag_173:\n        /* \"@openzeppelin/contracts@4.7.2/access/Ownable.sol\":2081:2279  function transferOwnership(address newOwner) public virtual onlyOwner {... */\n      pop\n      jump\t// out\n        /* \"@openzeppelin/contracts@4.7.2/utils/Context.sol\":640:736  function _msgSender() internal view virtual returns (address) {... */\n    tag_108:\n        /* \"@openzeppelin/contracts@4.7.2/utils/Context.sol\":693:700  address */\n      0x00\n        /* \"@openzeppelin/contracts@4.7.2/utils/Context.sol\":719:729  msg.sender */\n      caller\n        /* \"@openzeppelin/contracts@4.7.2/utils/Context.sol\":712:729  return msg.sender */\n      swap1\n      pop\n        /* \"@openzeppelin/contracts@4.7.2/utils/Context.sol\":640:736  function _msgSender() internal view virtual returns (address) {... */\n      swap1\n      jump\t// out\n        /* \"@openzeppelin/contracts@4.7.2/token/ERC20/ERC20.sol\":10110:10480  function _approve(... */\n    tag_110:\n        /* \"@openzeppelin/contracts@4.7.2/token/ERC20/ERC20.sol\":10258:10259  0 */\n      0x00\n        /* \"@openzeppelin/contracts@4.7.2/token/ERC20/ERC20.sol\":10241:10260  owner != address(0) */\n      0xffffffffffffffffffffffffffffffffffffffff\n      and\n        /* \"@openzeppelin/contracts@4.7.2/token/ERC20/ERC20.sol\":10241:10246  owner */\n      dup4\n        /* \"@openzeppelin/contracts@4.7.2/token/ERC20/ERC20.sol\":10241:10260  owner != address(0) */\n      0xffffffffffffffffffffffffffffffffffffffff\n      and\n      eq\n      iszero\n        /* \"@openzeppelin/contracts@4.7.2/token/ERC20/ERC20.sol\":10233:10301  require(owner != address(0), \"ERC20: approve from the zero address\") */\n      tag_176\n      jumpi\n      mload(0x40)\n      0x08c379a000000000000000000000000000000000000000000000000000000000\n      dup2\n      mstore\n      0x04\n      add\n      tag_177\n      swap1\n      tag_178\n      jump\t// in\n    tag_177:\n      mload(0x40)\n      dup1\n      swap2\n      sub\n      swap1\n      revert\n    tag_176:\n        /* \"@openzeppelin/contracts@4.7.2/token/ERC20/ERC20.sol\":10338:10339  0 */\n      0x00\n        /* \"@openzeppelin/contracts@4.7.2/token/ERC20/ERC20.sol\":10319:10340  spender != address(0) */\n      0xffffffffffffffffffffffffffffffffffffffff\n      and\n        /* \"@openzeppelin/contracts@4.7.2/token/ERC20/ERC20.sol\":10319:10326  spender */\n      dup3\n        /* \"@openzeppelin/contracts@4.7.2/token/ERC20/ERC20.sol\":10319:10340  spender != address(0) */\n      0xffffffffffffffffffffffffffffffffffffffff\n      and\n      eq\n      iszero\n        /* \"@openzeppelin/contracts@4.7.2/token/ERC20/ERC20.sol\":10311:10379  require(spender != address(0), \"ERC20: approve to the zero address\") */\n      tag_179\n      jumpi\n      mload(0x40)\n      0x08c379a000000000000000000000000000000000000000000000000000000000\n      dup2\n      mstore\n      0x04\n      add\n      tag_180\n      swap1\n      tag_181\n      jump\t// in\n    tag_180:\n      mload(0x40)\n      dup1\n      swap2\n      sub\n      swap1\n      revert\n    tag_179:\n        /* \"@openzeppelin/contracts@4.7.2/token/ERC20/ERC20.sol\":10420:10426  amount */\n      dup1\n        /* \"@openzeppelin/contracts@4.7.2/token/ERC20/ERC20.sol\":10390:10401  _allowances */\n      0x01\n        /* \"@openzeppelin/contracts@4.7.2/token/ERC20/ERC20.sol\":10390:10408  _allowances[owner] */\n      0x00\n        /* \"@openzeppelin/contracts@4.7.2/token/ERC20/ERC20.sol\":10402:10407  owner */\n      dup6\n        /* \"@openzeppelin/contracts@4.7.2/token/ERC20/ERC20.sol\":10390:10408  _allowances[owner] */\n      0xffffffffffffffffffffffffffffffffffffffff\n      and\n      0xffffffffffffffffffffffffffffffffffffffff\n      and\n      dup2\n      mstore\n      0x20\n      add\n      swap1\n      dup2\n      mstore\n      0x20\n      add\n      0x00\n      keccak256\n        /* \"@openzeppelin/contracts@4.7.2/token/ERC20/ERC20.sol\":10390:10417  _allowances[owner][spender] */\n      0x00\n        /* \"@openzeppelin/contracts@4.7.2/token/ERC20/ERC20.sol\":10409:10416  spender */\n      dup5\n        /* \"@openzeppelin/contracts@4.7.2/token/ERC20/ERC20.sol\":10390:10417  _allowances[owner][spender] */\n      0xffffffffffffffffffffffffffffffffffffffff\n      and\n      0xffffffffffffffffffffffffffffffffffffffff\n      and\n      dup2\n      mstore\n      0x20\n      add\n      swap1\n      dup2\n      mstore\n      0x20\n      add\n      0x00\n      keccak256\n        /* \"@openzeppelin/contracts@4.7.2/token/ERC20/ERC20.sol\":10390:10426  _allowances[owner][spender] = amount */\n      dup2\n      swap1\n      sstore\n      pop\n        /* \"@openzeppelin/contracts@4.7.2/token/ERC20/ERC20.sol\":10457:10464  spender */\n      dup2\n        /* \"@openzeppelin/contracts@4.7.2/token/ERC20/ERC20.sol\":10441:10473  Approval(owner, spender, amount) */\n      0xffffffffffffffffffffffffffffffffffffffff\n      and\n        /* \"@openzeppelin/contracts@4.7.2/token/ERC20/ERC20.sol\":10450:10455  owner */\n      dup4\n        /* \"@openzeppelin/contracts@4.7.2/token/ERC20/ERC20.sol\":10441:10473  Approval(owner, spender, amount) */\n      0xffffffffffffffffffffffffffffffffffffffff\n      and\n      0x8c5be1e5ebec7d5bd14f71427d1e84f3dd0314c0f7b2291e5b200ac8c7c3b925\n        /* \"@openzeppelin/contracts@4.7.2/token/ERC20/ERC20.sol\":10466:10472  amount */\n      dup4\n        /* \"@openzeppelin/contracts@4.7.2/token/ERC20/ERC20.sol\":10441:10473  Approval(owner, spender, amount) */\n      mload(0x40)\n      tag_182\n      swap2\n      swap1\n      tag_38\n      jump\t// in\n    tag_182:\n      mload(0x40)\n      dup1\n      swap2\n      sub\n      swap1\n      log3\n        /* \"@openzeppelin/contracts@4.7.2/token/ERC20/ERC20.sol\":10110:10480  function _approve(... */\n      pop\n      pop\n      pop\n      jump\t// out\n        /* \"@openzeppelin/contracts@4.7.2/token/ERC20/ERC20.sol\":10761:11202  function _spendAllowance(... */\n    tag_119:\n        /* \"@openzeppelin/contracts@4.7.2/token/ERC20/ERC20.sol\":10891:10915  uint256 currentAllowance */\n      0x00\n        /* \"@openzeppelin/contracts@4.7.2/token/ERC20/ERC20.sol\":10918:10943  allowance(owner, spender) */\n      tag_184\n        /* \"@openzeppelin/contracts@4.7.2/token/ERC20/ERC20.sol\":10928:10933  owner */\n      dup5\n        /* \"@openzeppelin/contracts@4.7.2/token/ERC20/ERC20.sol\":10935:10942  spender */\n      dup5\n        /* \"@openzeppelin/contracts@4.7.2/token/ERC20/ERC20.sol\":10918:10927  allowance */\n      tag_89\n        /* \"@openzeppelin/contracts@4.7.2/token/ERC20/ERC20.sol\":10918:10943  allowance(owner, spender) */\n      jump\t// in\n    tag_184:\n        /* \"@openzeppelin/contracts@4.7.2/token/ERC20/ERC20.sol\":10891:10943  uint256 currentAllowance = allowance(owner, spender) */\n      swap1\n      pop\n        /* \"@openzeppelin/contracts@4.7.2/token/ERC20/ERC20.sol\":10977:10994  type(uint256).max */\n      0xffffffffffffffffffffffffffffffffffffffffffffffffffffffffffffffff\n        /* \"@openzeppelin/contracts@4.7.2/token/ERC20/ERC20.sol\":10957:10973  currentAllowance */\n      dup2\n        /* \"@openzeppelin/contracts@4.7.2/token/ERC20/ERC20.sol\":10957:10994  currentAllowance != type(uint256).max */\n      eq\n        /* \"@openzeppelin/contracts@4.7.2/token/ERC20/ERC20.sol\":10953:11196  if (currentAllowance != type(uint256).max) {... */\n      tag_185\n      jumpi\n        /* \"@openzeppelin/contracts@4.7.2/token/ERC20/ERC20.sol\":11038:11044  amount */\n      dup2\n        /* \"@openzeppelin/contracts@4.7.2/token/ERC20/ERC20.sol\":11018:11034  currentAllowance */\n      dup2\n        /* \"@openzeppelin/contracts@4.7.2/token/ERC20/ERC20.sol\":11018:11044  currentAllowance >= amount */\n      lt\n      iszero\n        /* \"@openzeppelin/contracts@4.7.2/token/ERC20/ERC20.sol\":11010:11078  require(currentAllowance >= amount, \"ERC20: insufficient allowance\") */\n      tag_186\n      jumpi\n      mload(0x40)\n      0x08c379a000000000000000000000000000000000000000000000000000000000\n      dup2\n      mstore\n      0x04\n      add\n      tag_187\n      swap1\n      tag_188\n      jump\t// in\n    tag_187:\n      mload(0x40)\n      dup1\n      swap2\n      sub\n      swap1\n      revert\n    tag_186:\n        /* \"@openzeppelin/contracts@4.7.2/token/ERC20/ERC20.sol\":11120:11171  _approve(owner, spender, currentAllowance - amount) */\n      tag_189\n        /* \"@openzeppelin/contracts@4.7.2/token/ERC20/ERC20.sol\":11129:11134  owner */\n      dup5\n        /* \"@openzeppelin/contracts@4.7.2/token/ERC20/ERC20.sol\":11136:11143  spender */\n      dup5\n        /* \"@openzeppelin/contracts@4.7.2/token/ERC20/ERC20.sol\":11164:11170  amount */\n      dup5\n        /* \"@openzeppelin/contracts@4.7.2/token/ERC20/ERC20.sol\":11145:11161  currentAllowance */\n      dup5\n        /* \"@openzeppelin/contracts@4.7.2/token/ERC20/ERC20.sol\":11145:11170  currentAllowance - amount */\n      sub\n        /* \"@openzeppelin/contracts@4.7.2/token/ERC20/ERC20.sol\":11120:11128  _approve */\n      tag_110\n        /* \"@openzeppelin/contracts@4.7.2/token/ERC20/ERC20.sol\":11120:11171  _approve(owner, spender, currentAllowance - amount) */\n      jump\t// in\n    tag_189:\n        /* \"@openzeppelin/contracts@4.7.2/token/ERC20/ERC20.sol\":10953:11196  if (currentAllowance != type(uint256).max) {... */\n    tag_185:\n        /* \"@openzeppelin/contracts@4.7.2/token/ERC20/ERC20.sol\":10881:11202  {... */\n      pop\n        /* \"@openzeppelin/contracts@4.7.2/token/ERC20/ERC20.sol\":10761:11202  function _spendAllowance(... */\n      pop\n      pop\n      pop\n      jump\t// out\n        /* \"@openzeppelin/contracts@4.7.2/token/ERC20/ERC20.sol\":7475:8126  function _transfer(... */\n    tag_121:\n        /* \"@openzeppelin/contracts@4.7.2/token/ERC20/ERC20.sol\":7617:7618  0 */\n      0x00\n        /* \"@openzeppelin/contracts@4.7.2/token/ERC20/ERC20.sol\":7601:7619  from != address(0) */\n      0xffffffffffffffffffffffffffffffffffffffff\n      and\n        /* \"@openzeppelin/contracts@4.7.2/token/ERC20/ERC20.sol\":7601:7605  from */\n      dup4\n        /* \"@openzeppelin/contracts@4.7.2/token/ERC20/ERC20.sol\":7601:7619  from != address(0) */\n      0xffffffffffffffffffffffffffffffffffffffff\n      and\n      eq\n      iszero\n        /* \"@openzeppelin/contracts@4.7.2/token/ERC20/ERC20.sol\":7593:7661  require(from != address(0), \"ERC20: transfer from the zero address\") */\n      tag_191\n      jumpi\n      mload(0x40)\n      0x08c379a000000000000000000000000000000000000000000000000000000000\n      dup2\n      mstore\n      0x04\n      add\n      tag_192\n      swap1\n      tag_193\n      jump\t// in\n    tag_192:\n      mload(0x40)\n      dup1\n      swap2\n      sub\n      swap1\n      revert\n    tag_191:\n        /* \"@openzeppelin/contracts@4.7.2/token/ERC20/ERC20.sol\":7693:7694  0 */\n      0x00\n        /* \"@openzeppelin/contracts@4.7.2/token/ERC20/ERC20.sol\":7679:7695  to != address(0) */\n      0xffffffffffffffffffffffffffffffffffffffff\n      and\n        /* \"@openzeppelin/contracts@4.7.2/token/ERC20/ERC20.sol\":7679:7681  to */\n      dup3\n        /* \"@openzeppelin/contracts@4.7.2/token/ERC20/ERC20.sol\":7679:7695  to != address(0) */\n      0xffffffffffffffffffffffffffffffffffffffff\n      and\n      eq\n      iszero\n        /* \"@openzeppelin/contracts@4.7.2/token/ERC20/ERC20.sol\":7671:7735  require(to != address(0), \"ERC20: transfer to the zero address\") */\n      tag_194\n      jumpi\n      mload(0x40)\n      0x08c379a000000000000000000000000000000000000000000000000000000000\n      dup2\n      mstore\n      0x04\n      add\n      tag_195\n      swap1\n      tag_196\n      jump\t// in\n    tag_195:\n      mload(0x40)\n      dup1\n      swap2\n      sub\n      swap1\n      revert\n    tag_194:\n        /* \"@openzeppelin/contracts@4.7.2/token/ERC20/ERC20.sol\":7746:7784  _beforeTokenTransfer(from, to, amount) */\n      tag_197\n        /* \"@openzeppelin/contracts@4.7.2/token/ERC20/ERC20.sol\":7767:7771  from */\n      dup4\n        /* \"@openzeppelin/contracts@4.7.2/token/ERC20/ERC20.sol\":7773:7775  to */\n      dup4\n        /* \"@openzeppelin/contracts@4.7.2/token/ERC20/ERC20.sol\":7777:7783  amount */\n      dup4\n        /* \"@openzeppelin/contracts@4.7.2/token/ERC20/ERC20.sol\":7746:7766  _beforeTokenTransfer */\n      tag_198\n        /* \"@openzeppelin/contracts@4.7.2/token/ERC20/ERC20.sol\":7746:7784  _beforeTokenTransfer(from, to, amount) */\n      jump\t// in\n    tag_197:\n        /* \"@openzeppelin/contracts@4.7.2/token/ERC20/ERC20.sol\":7795:7814  uint256 fromBalance */\n      0x00\n        /* \"@openzeppelin/contracts@4.7.2/token/ERC20/ERC20.sol\":7817:7826  _balances */\n      dup1\n        /* \"@openzeppelin/contracts@4.7.2/token/ERC20/ERC20.sol\":7817:7832  _balances[from] */\n      0x00\n        /* \"@openzeppelin/contracts@4.7.2/token/ERC20/ERC20.sol\":7827:7831  from */\n      dup6\n        /* \"@openzeppelin/contracts@4.7.2/token/ERC20/ERC20.sol\":7817:7832  _balances[from] */\n      0xffffffffffffffffffffffffffffffffffffffff\n      and\n      0xffffffffffffffffffffffffffffffffffffffff\n      and\n      dup2\n      mstore\n      0x20\n      add\n      swap1\n      dup2\n      mstore\n      0x20\n      add\n      0x00\n      keccak256\n      sload\n        /* \"@openzeppelin/contracts@4.7.2/token/ERC20/ERC20.sol\":7795:7832  uint256 fromBalance = _balances[from] */\n      swap1\n      pop\n        /* \"@openzeppelin/contracts@4.7.2/token/ERC20/ERC20.sol\":7865:7871  amount */\n      dup2\n        /* \"@openzeppelin/contracts@4.7.2/token/ERC20/ERC20.sol\":7850:7861  fromBalance */\n      dup2\n        /* \"@openzeppelin/contracts@4.7.2/token/ERC20/ERC20.sol\":7850:7871  fromBalance >= amount */\n      lt\n      iszero\n        /* \"@openzeppelin/contracts@4.7.2/token/ERC20/ERC20.sol\":7842:7914  require(fromBalance >= amount, \"ERC20: transfer amount exceeds balance\") */\n      tag_199\n      jumpi\n      mload(0x40)\n      0x08c379a000000000000000000000000000000000000000000000000000000000\n      dup2\n      mstore\n      0x04\n      add\n      tag_200\n      swap1\n      tag_201\n      jump\t// in\n    tag_200:\n      mload(0x40)\n      dup1\n      swap2\n      sub\n      swap1\n      revert\n    tag_199:\n        /* \"@openzeppelin/contracts@4.7.2/token/ERC20/ERC20.sol\":7980:7986  amount */\n      dup2\n        /* \"@openzeppelin/contracts@4.7.2/token/ERC20/ERC20.sol\":7966:7977  fromBalance */\n      dup2\n        /* \"@openzeppelin/contracts@4.7.2/token/ERC20/ERC20.sol\":7966:7986  fromBalance - amount */\n      sub\n        /* \"@openzeppelin/contracts@4.7.2/token/ERC20/ERC20.sol\":7948:7957  _balances */\n      0x00\n        /* \"@openzeppelin/contracts@4.7.2/token/ERC20/ERC20.sol\":7948:7963  _balances[from] */\n      dup1\n        /* \"@openzeppelin/contracts@4.7.2/token/ERC20/ERC20.sol\":7958:7962  from */\n      dup7\n        /* \"@openzeppelin/contracts@4.7.2/token/ERC20/ERC20.sol\":7948:7963  _balances[from] */\n      0xffffffffffffffffffffffffffffffffffffffff\n      and\n      0xffffffffffffffffffffffffffffffffffffffff\n      and\n      dup2\n      mstore\n      0x20\n      add\n      swap1\n      dup2\n      mstore\n      0x20\n      add\n      0x00\n      keccak256\n        /* \"@openzeppelin/contracts@4.7.2/token/ERC20/ERC20.sol\":7948:7986  _balances[from] = fromBalance - amount */\n      dup2\n      swap1\n      sstore\n      pop\n        /* \"@openzeppelin/contracts@4.7.2/token/ERC20/ERC20.sol\":8023:8029  amount */\n      dup2\n        /* \"@openzeppelin/contracts@4.7.2/token/ERC20/ERC20.sol\":8006:8015  _balances */\n      0x00\n        /* \"@openzeppelin/contracts@4.7.2/token/ERC20/ERC20.sol\":8006:8019  _balances[to] */\n      dup1\n        /* \"@openzeppelin/contracts@4.7.2/token/ERC20/ERC20.sol\":8016:8018  to */\n      dup6\n        /* \"@openzeppelin/contracts@4.7.2/token/ERC20/ERC20.sol\":8006:8019  _balances[to] */\n      0xffffffffffffffffffffffffffffffffffffffff\n      and\n      0xffffffffffffffffffffffffffffffffffffffff\n      and\n      dup2\n      mstore\n      0x20\n      add\n      swap1\n      dup2\n      mstore\n      0x20\n      add\n      0x00\n      keccak256\n      0x00\n        /* \"@openzeppelin/contracts@4.7.2/token/ERC20/ERC20.sol\":8006:8029  _balances[to] += amount */\n      dup3\n      dup3\n      sload\n      tag_202\n      swap2\n      swap1\n      tag_128\n      jump\t// in\n    tag_202:\n      swap3\n      pop\n      pop\n      dup2\n      swap1\n      sstore\n      pop\n        /* \"@openzeppelin/contracts@4.7.2/token/ERC20/ERC20.sol\":8060:8062  to */\n      dup3\n        /* \"@openzeppelin/contracts@4.7.2/token/ERC20/ERC20.sol\":8045:8071  Transfer(from, to, amount) */\n      0xffffffffffffffffffffffffffffffffffffffff\n      and\n        /* \"@openzeppelin/contracts@4.7.2/token/ERC20/ERC20.sol\":8054:8058  from */\n      dup5\n        /* \"@openzeppelin/contracts@4.7.2/token/ERC20/ERC20.sol\":8045:8071  Transfer(from, to, amount) */\n      0xffffffffffffffffffffffffffffffffffffffff\n      and\n      0xddf252ad1be2c89b69c2b068fc378daa952ba7f163c4a11628f55a4df523b3ef\n        /* \"@openzeppelin/contracts@4.7.2/token/ERC20/ERC20.sol\":8064:8070  amount */\n      dup5\n        /* \"@openzeppelin/contracts@4.7.2/token/ERC20/ERC20.sol\":8045:8071  Transfer(from, to, amount) */\n      mload(0x40)\n      tag_203\n      swap2\n      swap1\n      tag_38\n      jump\t// in\n    tag_203:\n      mload(0x40)\n      dup1\n      swap2\n      sub\n      swap1\n      log3\n        /* \"@openzeppelin/contracts@4.7.2/token/ERC20/ERC20.sol\":8082:8119  _afterTokenTransfer(from, to, amount) */\n      tag_204\n        /* \"@openzeppelin/contracts@4.7.2/token/ERC20/ERC20.sol\":8102:8106  from */\n      dup5\n        /* \"@openzeppelin/contracts@4.7.2/token/ERC20/ERC20.sol\":8108:8110  to */\n      dup5\n        /* \"@openzeppelin/contracts@4.7.2/token/ERC20/ERC20.sol\":8112:8118  amount */\n      dup5\n        /* \"@openzeppelin/contracts@4.7.2/token/ERC20/ERC20.sol\":8082:8101  _afterTokenTransfer */\n      tag_205\n        /* \"@openzeppelin/contracts@4.7.2/token/ERC20/ERC20.sol\":8082:8119  _afterTokenTransfer(from, to, amount) */\n      jump\t// in\n    tag_204:\n        /* \"@openzeppelin/contracts@4.7.2/token/ERC20/ERC20.sol\":7583:8126  {... */\n      pop\n        /* \"@openzeppelin/contracts@4.7.2/token/ERC20/ERC20.sol\":7475:8126  function _transfer(... */\n      pop\n      pop\n      pop\n      jump\t// out\n        /* \"@openzeppelin/contracts@4.7.2/access/Ownable.sol\":1359:1489  function _checkOwner() internal view virtual {... */\n    tag_131:\n        /* \"@openzeppelin/contracts@4.7.2/access/Ownable.sol\":1433:1445  _msgSender() */\n      tag_207\n        /* \"@openzeppelin/contracts@4.7.2/access/Ownable.sol\":1433:1443  _msgSender */\n      tag_108\n        /* \"@openzeppelin/contracts@4.7.2/access/Ownable.sol\":1433:1445  _msgSender() */\n      jump\t// in\n    tag_207:\n        /* \"@openzeppelin/contracts@4.7.2/access/Ownable.sol\":1422:1445  owner() == _msgSender() */\n      0xffffffffffffffffffffffffffffffffffffffff\n      and\n        /* \"@openzeppelin/contracts@4.7.2/access/Ownable.sol\":1422:1429  owner() */\n      tag_208\n        /* \"@openzeppelin/contracts@4.7.2/access/Ownable.sol\":1422:1427  owner */\n      tag_66\n        /* \"@openzeppelin/contracts@4.7.2/access/Ownable.sol\":1422:1429  owner() */\n      jump\t// in\n    tag_208:\n        /* \"@openzeppelin/contracts@4.7.2/access/Ownable.sol\":1422:1445  owner() == _msgSender() */\n      0xffffffffffffffffffffffffffffffffffffffff\n      and\n      eq\n        /* \"@openzeppelin/contracts@4.7.2/access/Ownable.sol\":1414:1482  require(owner() == _msgSender(), \"Ownable: caller is not the owner\") */\n      tag_209\n      jumpi\n      mload(0x40)\n      0x08c379a000000000000000000000000000000000000000000000000000000000\n      dup2\n      mstore\n      0x04\n      add\n      tag_210\n      swap1\n      tag_211\n      jump\t// in\n    tag_210:\n      mload(0x40)\n      dup1\n      swap2\n      sub\n      swap1\n      revert\n    tag_209:\n        /* \"@openzeppelin/contracts@4.7.2/access/Ownable.sol\":1359:1489  function _checkOwner() internal view virtual {... */\n      jump\t// out\n        /* \"@openzeppelin/contracts@4.7.2/access/Ownable.sol\":2433:2620  function _transferOwnership(address newOwner) internal virtual {... */\n    tag_138:\n        /* \"@openzeppelin/contracts@4.7.2/access/Ownable.sol\":2506:2522  address oldOwner */\n      0x00\n        /* \"@openzeppelin/contracts@4.7.2/access/Ownable.sol\":2525:2531  _owner */\n      0x05\n      0x00\n      swap1\n      sload\n      swap1\n      0x0100\n      exp\n      swap1\n      div\n      0xffffffffffffffffffffffffffffffffffffffff\n      and\n        /* \"@openzeppelin/contracts@4.7.2/access/Ownable.sol\":2506:2531  address oldOwner = _owner */\n      swap1\n      pop\n        /* \"@openzeppelin/contracts@4.7.2/access/Ownable.sol\":2550:2558  newOwner */\n      dup2\n        /* \"@openzeppelin/contracts@4.7.2/access/Ownable.sol\":2541:2547  _owner */\n      0x05\n      0x00\n        /* \"@openzeppelin/contracts@4.7.2/access/Ownable.sol\":2541:2558  _owner = newOwner */\n      0x0100\n      exp\n      dup2\n      sload\n      dup2\n      0xffffffffffffffffffffffffffffffffffffffff\n      mul\n      not\n      and\n      swap1\n      dup4\n      0xffffffffffffffffffffffffffffffffffffffff\n      and\n      mul\n      or\n      swap1\n      sstore\n      pop\n        /* \"@openzeppelin/contracts@4.7.2/access/Ownable.sol\":2604:2612  newOwner */\n      dup2\n        /* \"@openzeppelin/contracts@4.7.2/access/Ownable.sol\":2573:2613  OwnershipTransferred(oldOwner, newOwner) */\n      0xffffffffffffffffffffffffffffffffffffffff\n      and\n        /* \"@openzeppelin/contracts@4.7.2/access/Ownable.sol\":2594:2602  oldOwner */\n      dup2\n        /* \"@openzeppelin/contracts@4.7.2/access/Ownable.sol\":2573:2613  OwnershipTransferred(oldOwner, newOwner) */\n      0xffffffffffffffffffffffffffffffffffffffff\n      and\n      0x8be0079c531659141344cd1fd0a4f28419497f9722a3daafe3b4186f6b6457e0\n      mload(0x40)\n      mload(0x40)\n      dup1\n      swap2\n      sub\n      swap1\n      log3\n        /* \"@openzeppelin/contracts@4.7.2/access/Ownable.sol\":2496:2620  {... */\n      pop\n        /* \"@openzeppelin/contracts@4.7.2/access/Ownable.sol\":2433:2620  function _transferOwnership(address newOwner) internal virtual {... */\n      pop\n      jump\t// out\n        /* \"@openzeppelin/contracts@4.7.2/token/ERC20/ERC20.sol\":11786:11907  function _beforeTokenTransfer(... */\n    tag_198:\n      pop\n      pop\n      pop\n      jump\t// out\n        /* \"@openzeppelin/contracts@4.7.2/token/ERC20/ERC20.sol\":12495:12615  function _afterTokenTransfer(... */\n    tag_205:\n      pop\n      pop\n      pop\n      jump\t// out\n        /* \"#utility.yul\":7:146   */\n    tag_216:\n        /* \"#utility.yul\":53:58   */\n      0x00\n        /* \"#utility.yul\":91:97   */\n      dup2\n        /* \"#utility.yul\":78:98   */\n      calldataload\n        /* \"#utility.yul\":69:98   */\n      swap1\n      pop\n        /* \"#utility.yul\":107:140   */\n      tag_218\n        /* \"#utility.yul\":134:139   */\n      dup2\n        /* \"#utility.yul\":107:140   */\n      tag_219\n      jump\t// in\n    tag_218:\n        /* \"#utility.yul\":7:146   */\n      swap3\n      swap2\n      pop\n      pop\n      jump\t// out\n        /* \"#utility.yul\":152:291   */\n    tag_220:\n        /* \"#utility.yul\":198:203   */\n      0x00\n        /* \"#utility.yul\":236:242   */\n      dup2\n        /* \"#utility.yul\":223:243   */\n      calldataload\n        /* \"#utility.yul\":214:243   */\n      swap1\n      pop\n        /* \"#utility.yul\":252:285   */\n      tag_222\n        /* \"#utility.yul\":279:284   */\n      dup2\n        /* \"#utility.yul\":252:285   */\n      tag_223\n      jump\t// in\n    tag_222:\n        /* \"#utility.yul\":152:291   */\n      swap3\n      swap2\n      pop\n      pop\n      jump\t// out\n        /* \"#utility.yul\":297:626   */\n    tag_60:\n        /* \"#utility.yul\":356:362   */\n      0x00\n        /* \"#utility.yul\":405:407   */\n      0x20\n        /* \"#utility.yul\":393:402   */\n      dup3\n        /* \"#utility.yul\":384:391   */\n      dup5\n        /* \"#utility.yul\":380:403   */\n      sub\n        /* \"#utility.yul\":376:408   */\n      slt\n        /* \"#utility.yul\":373:492   */\n      iszero\n      tag_225\n      jumpi\n        /* \"#utility.yul\":411:490   */\n      tag_226\n      tag_227\n      jump\t// in\n    tag_226:\n        /* \"#utility.yul\":373:492   */\n    tag_225:\n        /* \"#utility.yul\":531:532   */\n      0x00\n        /* \"#utility.yul\":556:609   */\n      tag_228\n        /* \"#utility.yul\":601:608   */\n      dup5\n        /* \"#utility.yul\":592:598   */\n      dup3\n        /* \"#utility.yul\":581:590   */\n      dup6\n        /* \"#utility.yul\":577:599   */\n      add\n        /* \"#utility.yul\":556:609   */\n      tag_216\n      jump\t// in\n    tag_228:\n        /* \"#utility.yul\":546:609   */\n      swap2\n      pop\n        /* \"#utility.yul\":502:619   */\n      pop\n        /* \"#utility.yul\":297:626   */\n      swap3\n      swap2\n      pop\n      pop\n      jump\t// out\n        /* \"#utility.yul\":632:1106   */\n    tag_88:\n        /* \"#utility.yul\":700:706   */\n      0x00\n        /* \"#utility.yul\":708:714   */\n      dup1\n        /* \"#utility.yul\":757:759   */\n      0x40\n        /* \"#utility.yul\":745:754   */\n      dup4\n        /* \"#utility.yul\":736:743   */\n      dup6\n        /* \"#utility.yul\":732:755   */\n      sub\n        /* \"#utility.yul\":728:760   */\n      slt\n        /* \"#utility.yul\":725:844   */\n      iszero\n      tag_230\n      jumpi\n        /* \"#utility.yul\":763:842   */\n      tag_231\n      tag_227\n      jump\t// in\n    tag_231:\n        /* \"#utility.yul\":725:844   */\n    tag_230:\n        /* \"#utility.yul\":883:884   */\n      0x00\n        /* \"#utility.yul\":908:961   */\n      tag_232\n        /* \"#utility.yul\":953:960   */\n      dup6\n        /* \"#utility.yul\":944:950   */\n      dup3\n        /* \"#utility.yul\":933:942   */\n      dup7\n        /* \"#utility.yul\":929:951   */\n      add\n        /* \"#utility.yul\":908:961   */\n      tag_216\n      jump\t// in\n    tag_232:\n        /* \"#utility.yul\":898:961   */\n      swap3\n      pop\n        /* \"#utility.yul\":854:971   */\n      pop\n        /* \"#utility.yul\":1010:1012   */\n      0x20\n        /* \"#utility.yul\":1036:1089   */\n      tag_233\n        /* \"#utility.yul\":1081:1088   */\n      dup6\n        /* \"#utility.yul\":1072:1078   */\n      dup3\n        /* \"#utility.yul\":1061:1070   */\n      dup7\n        /* \"#utility.yul\":1057:1079   */\n      add\n        /* \"#utility.yul\":1036:1089   */\n      tag_216\n      jump\t// in\n    tag_233:\n        /* \"#utility.yul\":1026:1089   */\n      swap2\n      pop\n        /* \"#utility.yul\":981:1099   */\n      pop\n        /* \"#utility.yul\":632:1106   */\n      swap3\n      pop\n      swap3\n      swap1\n      pop\n      jump\t// out\n        /* \"#utility.yul\":1112:1731   */\n    tag_41:\n        /* \"#utility.yul\":1189:1195   */\n      0x00\n        /* \"#utility.yul\":1197:1203   */\n      dup1\n        /* \"#utility.yul\":1205:1211   */\n      0x00\n        /* \"#utility.yul\":1254:1256   */\n      0x60\n        /* \"#utility.yul\":1242:1251   */\n      dup5\n        /* \"#utility.yul\":1233:1240   */\n      dup7\n        /* \"#utility.yul\":1229:1252   */\n      sub\n        /* \"#utility.yul\":1225:1257   */\n      slt\n        /* \"#utility.yul\":1222:1341   */\n      iszero\n      tag_235\n      jumpi\n        /* \"#utility.yul\":1260:1339   */\n      tag_236\n      tag_227\n      jump\t// in\n    tag_236:\n        /* \"#utility.yul\":1222:1341   */\n    tag_235:\n        /* \"#utility.yul\":1380:1381   */\n      0x00\n        /* \"#utility.yul\":1405:1458   */\n      tag_237\n        /* \"#utility.yul\":1450:1457   */\n      dup7\n        /* \"#utility.yul\":1441:1447   */\n      dup3\n        /* \"#utility.yul\":1430:1439   */\n      dup8\n        /* \"#utility.yul\":1426:1448   */\n      add\n        /* \"#utility.yul\":1405:1458   */\n      tag_216\n      jump\t// in\n    tag_237:\n        /* \"#utility.yul\":1395:1458   */\n      swap4\n      pop\n        /* \"#utility.yul\":1351:1468   */\n      pop\n        /* \"#utility.yul\":1507:1509   */\n      0x20\n        /* \"#utility.yul\":1533:1586   */\n      tag_238\n        /* \"#utility.yul\":1578:1585   */\n      dup7\n        /* \"#utility.yul\":1569:1575   */\n      dup3\n        /* \"#utility.yul\":1558:1567   */\n      dup8\n        /* \"#utility.yul\":1554:1576   */\n      add\n        /* \"#utility.yul\":1533:1586   */\n      tag_216\n      jump\t// in\n    tag_238:\n        /* \"#utility.yul\":1523:1586   */\n      swap3\n      pop\n        /* \"#utility.yul\":1478:1596   */\n      pop\n        /* \"#utility.yul\":1635:1637   */\n      0x40\n        /* \"#utility.yul\":1661:1714   */\n      tag_239\n        /* \"#utility.yul\":1706:1713   */\n      dup7\n        /* \"#utility.yul\":1697:1703   */\n      dup3\n        /* \"#utility.yul\":1686:1695   */\n      dup8\n        /* \"#utility.yul\":1682:1704   */\n      add\n        /* \"#utility.yul\":1661:1714   */\n      tag_220\n      jump\t// in\n    tag_239:\n        /* \"#utility.yul\":1651:1714   */\n      swap2\n      pop\n        /* \"#utility.yul\":1606:1724   */\n      pop\n        /* \"#utility.yul\":1112:1731   */\n      swap3\n      pop\n      swap3\n      pop\n      swap3\n      jump\t// out\n        /* \"#utility.yul\":1737:2211   */\n    tag_31:\n        /* \"#utility.yul\":1805:1811   */\n      0x00\n        /* \"#utility.yul\":1813:1819   */\n      dup1\n        /* \"#utility.yul\":1862:1864   */\n      0x40\n        /* \"#utility.yul\":1850:1859   */\n      dup4\n        /* \"#utility.yul\":1841:1848   */\n      dup6\n        /* \"#utility.yul\":1837:1860   */\n      sub\n        /* \"#utility.yul\":1833:1865   */\n      slt\n        /* \"#utility.yul\":1830:1949   */\n      iszero\n      tag_241\n      jumpi\n        /* \"#utility.yul\":1868:1947   */\n      tag_242\n      tag_227\n      jump\t// in\n    tag_242:\n        /* \"#utility.yul\":1830:1949   */\n    tag_241:\n        /* \"#utility.yul\":1988:1989   */\n      0x00\n        /* \"#utility.yul\":2013:2066   */\n      tag_243\n        /* \"#utility.yul\":2058:2065   */\n      dup6\n        /* \"#utility.yul\":2049:2055   */\n      dup3\n        /* \"#utility.yul\":2038:2047   */\n      dup7\n        /* \"#utility.yul\":2034:2056   */\n      add\n        /* \"#utility.yul\":2013:2066   */\n      tag_216\n      jump\t// in\n    tag_243:\n        /* \"#utility.yul\":2003:2066   */\n      swap3\n      pop\n        /* \"#utility.yul\":1959:2076   */\n      pop\n        /* \"#utility.yul\":2115:2117   */\n      0x20\n        /* \"#utility.yul\":2141:2194   */\n      tag_244\n        /* \"#utility.yul\":2186:2193   */\n      dup6\n        /* \"#utility.yul\":2177:2183   */\n      dup3\n        /* \"#utility.yul\":2166:2175   */\n      dup7\n        /* \"#utility.yul\":2162:2184   */\n      add\n        /* \"#utility.yul\":2141:2194   */\n      tag_220\n      jump\t// in\n    tag_244:\n        /* \"#utility.yul\":2131:2194   */\n      swap2\n      pop\n        /* \"#utility.yul\":2086:2204   */\n      pop\n        /* \"#utility.yul\":1737:2211   */\n      swap3\n      pop\n      swap3\n      swap1\n      pop\n      jump\t// out\n        /* \"#utility.yul\":2217:2546   */\n    tag_93:\n        /* \"#utility.yul\":2276:2282   */\n      0x00\n        /* \"#utility.yul\":2325:2327   */\n      0x20\n        /* \"#utility.yul\":2313:2322   */\n      dup3\n        /* \"#utility.yul\":2304:2311   */\n      dup5\n        /* \"#utility.yul\":2300:2323   */\n      sub\n        /* \"#utility.yul\":2296:2328   */\n      slt\n        /* \"#utility.yul\":2293:2412   */\n      iszero\n      tag_246\n      jumpi\n        /* \"#utility.yul\":2331:2410   */\n      tag_247\n      tag_227\n      jump\t// in\n    tag_247:\n        /* \"#utility.yul\":2293:2412   */\n    tag_246:\n        /* \"#utility.yul\":2451:2452   */\n      0x00\n        /* \"#utility.yul\":2476:2529   */\n      tag_248\n        /* \"#utility.yul\":2521:2528   */\n      dup5\n        /* \"#utility.yul\":2512:2518   */\n      dup3\n        /* \"#utility.yul\":2501:2510   */\n      dup6\n        /* \"#utility.yul\":2497:2519   */\n      add\n        /* \"#utility.yul\":2476:2529   */\n      tag_220\n      jump\t// in\n    tag_248:\n        /* \"#utility.yul\":2466:2529   */\n      swap2\n      pop\n        /* \"#utility.yul\":2422:2539   */\n      pop\n        /* \"#utility.yul\":2217:2546   */\n      swap3\n      swap2\n      pop\n      pop\n      jump\t// out\n        /* \"#utility.yul\":2552:2670   */\n    tag_249:\n        /* \"#utility.yul\":2639:2663   */\n      tag_251\n        /* \"#utility.yul\":2657:2662   */\n      dup2\n        /* \"#utility.yul\":2639:2663   */\n      tag_252\n      jump\t// in\n    tag_251:\n        /* \"#utility.yul\":2634:2637   */\n      dup3\n        /* \"#utility.yul\":2627:2664   */\n      mstore\n        /* \"#utility.yul\":2552:2670   */\n      pop\n      pop\n      jump\t// out\n        /* \"#utility.yul\":2676:2785   */\n    tag_253:\n        /* \"#utility.yul\":2757:2778   */\n      tag_255\n        /* \"#utility.yul\":2772:2777   */\n      dup2\n        /* \"#utility.yul\":2757:2778   */\n      tag_256\n      jump\t// in\n    tag_255:\n        /* \"#utility.yul\":2752:2755   */\n      dup3\n        /* \"#utility.yul\":2745:2779   */\n      mstore\n        /* \"#utility.yul\":2676:2785   */\n      pop\n      pop\n      jump\t// out\n        /* \"#utility.yul\":2791:3155   */\n    tag_257:\n        /* \"#utility.yul\":2879:2882   */\n      0x00\n        /* \"#utility.yul\":2907:2946   */\n      tag_259\n        /* \"#utility.yul\":2940:2945   */\n      dup3\n        /* \"#utility.yul\":2907:2946   */\n      tag_260\n      jump\t// in\n    tag_259:\n        /* \"#utility.yul\":2962:3033   */\n      tag_261\n        /* \"#utility.yul\":3026:3032   */\n      dup2\n        /* \"#utility.yul\":3021:3024   */\n      dup6\n        /* \"#utility.yul\":2962:3033   */\n      tag_262\n      jump\t// in\n    tag_261:\n        /* \"#utility.yul\":2955:3033   */\n      swap4\n      pop\n        /* \"#utility.yul\":3042:3094   */\n      tag_263\n        /* \"#utility.yul\":3087:3093   */\n      dup2\n        /* \"#utility.yul\":3082:3085   */\n      dup6\n        /* \"#utility.yul\":3075:3079   */\n      0x20\n        /* \"#utility.yul\":3068:3073   */\n      dup7\n        /* \"#utility.yul\":3064:3080   */\n      add\n        /* \"#utility.yul\":3042:3094   */\n      tag_264\n      jump\t// in\n    tag_263:\n        /* \"#utility.yul\":3119:3148   */\n      tag_265\n        /* \"#utility.yul\":3141:3147   */\n      dup2\n        /* \"#utility.yul\":3119:3148   */\n      tag_266\n      jump\t// in\n    tag_265:\n        /* \"#utility.yul\":3114:3117   */\n      dup5\n        /* \"#utility.yul\":3110:3149   */\n      add\n        /* \"#utility.yul\":3103:3149   */\n      swap2\n      pop\n        /* \"#utility.yul\":2883:3155   */\n      pop\n        /* \"#utility.yul\":2791:3155   */\n      swap3\n      swap2\n      pop\n      pop\n      jump\t// out\n        /* \"#utility.yul\":3161:3527   */\n    tag_267:\n        /* \"#utility.yul\":3303:3306   */\n      0x00\n        /* \"#utility.yul\":3324:3391   */\n      tag_269\n        /* \"#utility.yul\":3388:3390   */\n      0x23\n        /* \"#utility.yul\":3383:3386   */\n      dup4\n        /* \"#utility.yul\":3324:3391   */\n      tag_262\n      jump\t// in\n    tag_269:\n        /* \"#utility.yul\":3317:3391   */\n      swap2\n      pop\n        /* \"#utility.yul\":3400:3493   */\n      tag_270\n        /* \"#utility.yul\":3489:3492   */\n      dup3\n        /* \"#utility.yul\":3400:3493   */\n      tag_271\n      jump\t// in\n    tag_270:\n        /* \"#utility.yul\":3518:3520   */\n      0x40\n        /* \"#utility.yul\":3513:3516   */\n      dup3\n        /* \"#utility.yul\":3509:3521   */\n      add\n        /* \"#utility.yul\":3502:3521   */\n      swap1\n      pop\n        /* \"#utility.yul\":3161:3527   */\n      swap2\n      swap1\n      pop\n      jump\t// out\n        /* \"#utility.yul\":3533:3899   */\n    tag_272:\n        /* \"#utility.yul\":3675:3678   */\n      0x00\n        /* \"#utility.yul\":3696:3763   */\n      tag_274\n        /* \"#utility.yul\":3760:3762   */\n      0x26\n        /* \"#utility.yul\":3755:3758   */\n      dup4\n        /* \"#utility.yul\":3696:3763   */\n      tag_262\n      jump\t// in\n    tag_274:\n        /* \"#utility.yul\":3689:3763   */\n      swap2\n      pop\n        /* \"#utility.yul\":3772:3865   */\n      tag_275\n        /* \"#utility.yul\":3861:3864   */\n      dup3\n        /* \"#utility.yul\":3772:3865   */\n      tag_276\n      jump\t// in\n    tag_275:\n        /* \"#utility.yul\":3890:3892   */\n      0x40\n        /* \"#utility.yul\":3885:3888   */\n      dup3\n        /* \"#utility.yul\":3881:3893   */\n      add\n        /* \"#utility.yul\":3874:3893   */\n      swap1\n      pop\n        /* \"#utility.yul\":3533:3899   */\n      swap2\n      swap1\n      pop\n      jump\t// out\n        /* \"#utility.yul\":3905:4271   */\n    tag_277:\n        /* \"#utility.yul\":4047:4050   */\n      0x00\n        /* \"#utility.yul\":4068:4135   */\n      tag_279\n        /* \"#utility.yul\":4132:4134   */\n      0x22\n        /* \"#utility.yul\":4127:4130   */\n      dup4\n        /* \"#utility.yul\":4068:4135   */\n      tag_262\n      jump\t// in\n    tag_279:\n        /* \"#utility.yul\":4061:4135   */\n      swap2\n      pop\n        /* \"#utility.yul\":4144:4237   */\n      tag_280\n        /* \"#utility.yul\":4233:4236   */\n      dup3\n        /* \"#utility.yul\":4144:4237   */\n      tag_281\n      jump\t// in\n    tag_280:\n        /* \"#utility.yul\":4262:4264   */\n      0x40\n        /* \"#utility.yul\":4257:4260   */\n      dup3\n        /* \"#utility.yul\":4253:4265   */\n      add\n        /* \"#utility.yul\":4246:4265   */\n      swap1\n      pop\n        /* \"#utility.yul\":3905:4271   */\n      swap2\n      swap1\n      pop\n      jump\t// out\n        /* \"#utility.yul\":4277:4643   */\n    tag_282:\n        /* \"#utility.yul\":4419:4422   */\n      0x00\n        /* \"#utility.yul\":4440:4507   */\n      tag_284\n        /* \"#utility.yul\":4504:4506   */\n      0x1d\n        /* \"#utility.yul\":4499:4502   */\n      dup4\n        /* \"#utility.yul\":4440:4507   */\n      tag_262\n      jump\t// in\n    tag_284:\n        /* \"#utility.yul\":4433:4507   */\n      swap2\n      pop\n        /* \"#utility.yul\":4516:4609   */\n      tag_285\n        /* \"#utility.yul\":4605:4608   */\n      dup3\n        /* \"#utility.yul\":4516:4609   */\n      tag_286\n      jump\t// in\n    tag_285:\n        /* \"#utility.yul\":4634:4636   */\n      0x20\n        /* \"#utility.yul\":4629:4632   */\n      dup3\n        /* \"#utility.yul\":4625:4637   */\n      add\n        /* \"#utility.yul\":4618:4637   */\n      swap1\n      pop\n        /* \"#utility.yul\":4277:4643   */\n      swap2\n      swap1\n      pop\n      jump\t// out\n        /* \"#utility.yul\":4649:5015   */\n    tag_287:\n        /* \"#utility.yul\":4791:4794   */\n      0x00\n        /* \"#utility.yul\":4812:4879   */\n      tag_289\n        /* \"#utility.yul\":4876:4878   */\n      0x26\n        /* \"#utility.yul\":4871:4874   */\n      dup4\n        /* \"#utility.yul\":4812:4879   */\n      tag_262\n      jump\t// in\n    tag_289:\n        /* \"#utility.yul\":4805:4879   */\n      swap2\n      pop\n        /* \"#utility.yul\":4888:4981   */\n      tag_290\n        /* \"#utility.yul\":4977:4980   */\n      dup3\n        /* \"#utility.yul\":4888:4981   */\n      tag_291\n      jump\t// in\n    tag_290:\n        /* \"#utility.yul\":5006:5008   */\n      0x40\n        /* \"#utility.yul\":5001:5004   */\n      dup3\n        /* \"#utility.yul\":4997:5009   */\n      add\n        /* \"#utility.yul\":4990:5009   */\n      swap1\n      pop\n        /* \"#utility.yul\":4649:5015   */\n      swap2\n      swap1\n      pop\n      jump\t// out\n        /* \"#utility.yul\":5021:5387   */\n    tag_292:\n        /* \"#utility.yul\":5163:5166   */\n      0x00\n        /* \"#utility.yul\":5184:5251   */\n      tag_294\n        /* \"#utility.yul\":5248:5250   */\n      0x15\n        /* \"#utility.yul\":5243:5246   */\n      dup4\n        /* \"#utility.yul\":5184:5251   */\n      tag_262\n      jump\t// in\n    tag_294:\n        /* \"#utility.yul\":5177:5251   */\n      swap2\n      pop\n        /* \"#utility.yul\":5260:5353   */\n      tag_295\n        /* \"#utility.yul\":5349:5352   */\n      dup3\n        /* \"#utility.yul\":5260:5353   */\n      tag_296\n      jump\t// in\n    tag_295:\n        /* \"#utility.yul\":5378:5380   */\n      0x20\n        /* \"#utility.yul\":5373:5376   */\n      dup3\n        /* \"#utility.yul\":5369:5381   */\n      add\n        /* \"#utility.yul\":5362:5381   */\n      swap1\n      pop\n        /* \"#utility.yul\":5021:5387   */\n      swap2\n      swap1\n      pop\n      jump\t// out\n        /* \"#utility.yul\":5393:5759   */\n    tag_297:\n        /* \"#utility.yul\":5535:5538   */\n      0x00\n        /* \"#utility.yul\":5556:5623   */\n      tag_299\n        /* \"#utility.yul\":5620:5622   */\n      0x28\n        /* \"#utility.yul\":5615:5618   */\n      dup4\n        /* \"#utility.yul\":5556:5623   */\n      tag_262\n      jump\t// in\n    tag_299:\n        /* \"#utility.yul\":5549:5623   */\n      swap2\n      pop\n        /* \"#utility.yul\":5632:5725   */\n      tag_300\n        /* \"#utility.yul\":5721:5724   */\n      dup3\n        /* \"#utility.yul\":5632:5725   */\n      tag_301\n      jump\t// in\n    tag_300:\n        /* \"#utility.yul\":5750:5752   */\n      0x40\n        /* \"#utility.yul\":5745:5748   */\n      dup3\n        /* \"#utility.yul\":5741:5753   */\n      add\n        /* \"#utility.yul\":5734:5753   */\n      swap1\n      pop\n        /* \"#utility.yul\":5393:5759   */\n      swap2\n      swap1\n      pop\n      jump\t// out\n        /* \"#utility.yul\":5765:6131   */\n    tag_302:\n        /* \"#utility.yul\":5907:5910   */\n      0x00\n        /* \"#utility.yul\":5928:5995   */\n      tag_304\n        /* \"#utility.yul\":5992:5994   */\n      0x20\n        /* \"#utility.yul\":5987:5990   */\n      dup4\n        /* \"#utility.yul\":5928:5995   */\n      tag_262\n      jump\t// in\n    tag_304:\n        /* \"#utility.yul\":5921:5995   */\n      swap2\n      pop\n        /* \"#utility.yul\":6004:6097   */\n      tag_305\n        /* \"#utility.yul\":6093:6096   */\n      dup3\n        /* \"#utility.yul\":6004:6097   */\n      tag_306\n      jump\t// in\n    tag_305:\n        /* \"#utility.yul\":6122:6124   */\n      0x20\n        /* \"#utility.yul\":6117:6120   */\n      dup3\n        /* \"#utility.yul\":6113:6125   */\n      add\n        /* \"#utility.yul\":6106:6125   */\n      swap1\n      pop\n        /* \"#utility.yul\":5765:6131   */\n      swap2\n      swap1\n      pop\n      jump\t// out\n        /* \"#utility.yul\":6137:6503   */\n    tag_307:\n        /* \"#utility.yul\":6279:6282   */\n      0x00\n        /* \"#utility.yul\":6300:6367   */\n      tag_309\n        /* \"#utility.yul\":6364:6366   */\n      0x25\n        /* \"#utility.yul\":6359:6362   */\n      dup4\n        /* \"#utility.yul\":6300:6367   */\n      tag_262\n      jump\t// in\n    tag_309:\n        /* \"#utility.yul\":6293:6367   */\n      swap2\n      pop\n        /* \"#utility.yul\":6376:6469   */\n      tag_310\n        /* \"#utility.yul\":6465:6468   */\n      dup3\n        /* \"#utility.yul\":6376:6469   */\n      tag_311\n      jump\t// in\n    tag_310:\n        /* \"#utility.yul\":6494:6496   */\n      0x40\n        /* \"#utility.yul\":6489:6492   */\n      dup3\n        /* \"#utility.yul\":6485:6497   */\n      add\n        /* \"#utility.yul\":6478:6497   */\n      swap1\n      pop\n        /* \"#utility.yul\":6137:6503   */\n      swap2\n      swap1\n      pop\n      jump\t// out\n        /* \"#utility.yul\":6509:6875   */\n    tag_312:\n        /* \"#utility.yul\":6651:6654   */\n      0x00\n        /* \"#utility.yul\":6672:6739   */\n      tag_314\n        /* \"#utility.yul\":6736:6738   */\n      0x24\n        /* \"#utility.yul\":6731:6734   */\n      dup4\n        /* \"#utility.yul\":6672:6739   */\n      tag_262\n      jump\t// in\n    tag_314:\n        /* \"#utility.yul\":6665:6739   */\n      swap2\n      pop\n        /* \"#utility.yul\":6748:6841   */\n      tag_315\n        /* \"#utility.yul\":6837:6840   */\n      dup3\n        /* \"#utility.yul\":6748:6841   */\n      tag_316\n      jump\t// in\n    tag_315:\n        /* \"#utility.yul\":6866:6868   */\n      0x40\n        /* \"#utility.yul\":6861:6864   */\n      dup3\n        /* \"#utility.yul\":6857:6869   */\n      add\n        /* \"#utility.yul\":6850:6869   */\n      swap1\n      pop\n        /* \"#utility.yul\":6509:6875   */\n      swap2\n      swap1\n      pop\n      jump\t// out\n        /* \"#utility.yul\":6881:7247   */\n    tag_317:\n        /* \"#utility.yul\":7023:7026   */\n      0x00\n        /* \"#utility.yul\":7044:7111   */\n      tag_319\n        /* \"#utility.yul\":7108:7110   */\n      0x25\n        /* \"#utility.yul\":7103:7106   */\n      dup4\n        /* \"#utility.yul\":7044:7111   */\n      tag_262\n      jump\t// in\n    tag_319:\n        /* \"#utility.yul\":7037:7111   */\n      swap2\n      pop\n        /* \"#utility.yul\":7120:7213   */\n      tag_320\n        /* \"#utility.yul\":7209:7212   */\n      dup3\n        /* \"#utility.yul\":7120:7213   */\n      tag_321\n      jump\t// in\n    tag_320:\n        /* \"#utility.yul\":7238:7240   */\n      0x40\n        /* \"#utility.yul\":7233:7236   */\n      dup3\n        /* \"#utility.yul\":7229:7241   */\n      add\n        /* \"#utility.yul\":7222:7241   */\n      swap1\n      pop\n        /* \"#utility.yul\":6881:7247   */\n      swap2\n      swap1\n      pop\n      jump\t// out\n        /* \"#utility.yul\":7253:7371   */\n    tag_322:\n        /* \"#utility.yul\":7340:7364   */\n      tag_324\n        /* \"#utility.yul\":7358:7363   */\n      dup2\n        /* \"#utility.yul\":7340:7364   */\n      tag_325\n      jump\t// in\n    tag_324:\n        /* \"#utility.yul\":7335:7338   */\n      dup3\n        /* \"#utility.yul\":7328:7365   */\n      mstore\n        /* \"#utility.yul\":7253:7371   */\n      pop\n      pop\n      jump\t// out\n        /* \"#utility.yul\":7377:7489   */\n    tag_326:\n        /* \"#utility.yul\":7460:7482   */\n      tag_328\n        /* \"#utility.yul\":7476:7481   */\n      dup2\n        /* \"#utility.yul\":7460:7482   */\n      tag_329\n      jump\t// in\n    tag_328:\n        /* \"#utility.yul\":7455:7458   */\n      dup3\n        /* \"#utility.yul\":7448:7483   */\n      mstore\n        /* \"#utility.yul\":7377:7489   */\n      pop\n      pop\n      jump\t// out\n        /* \"#utility.yul\":7495:7717   */\n    tag_68:\n        /* \"#utility.yul\":7588:7592   */\n      0x00\n        /* \"#utility.yul\":7626:7628   */\n      0x20\n        /* \"#utility.yul\":7615:7624   */\n      dup3\n        /* \"#utility.yul\":7611:7629   */\n      add\n        /* \"#utility.yul\":7603:7629   */\n      swap1\n      pop\n        /* \"#utility.yul\":7639:7710   */\n      tag_331\n        /* \"#utility.yul\":7707:7708   */\n      0x00\n        /* \"#utility.yul\":7696:7705   */\n      dup4\n        /* \"#utility.yul\":7692:7709   */\n      add\n        /* \"#utility.yul\":7683:7689   */\n      dup5\n        /* \"#utility.yul\":7639:7710   */\n      tag_249\n      jump\t// in\n    tag_331:\n        /* \"#utility.yul\":7495:7717   */\n      swap3\n      swap2\n      pop\n      pop\n      jump\t// out\n        /* \"#utility.yul\":7723:7933   */\n    tag_34:\n        /* \"#utility.yul\":7810:7814   */\n      0x00\n        /* \"#utility.yul\":7848:7850   */\n      0x20\n        /* \"#utility.yul\":7837:7846   */\n      dup3\n        /* \"#utility.yul\":7833:7851   */\n      add\n        /* \"#utility.yul\":7825:7851   */\n      swap1\n      pop\n        /* \"#utility.yul\":7861:7926   */\n      tag_333\n        /* \"#utility.yul\":7923:7924   */\n      0x00\n        /* \"#utility.yul\":7912:7921   */\n      dup4\n        /* \"#utility.yul\":7908:7925   */\n      add\n        /* \"#utility.yul\":7899:7905   */\n      dup5\n        /* \"#utility.yul\":7861:7926   */\n      tag_253\n      jump\t// in\n    tag_333:\n        /* \"#utility.yul\":7723:7933   */\n      swap3\n      swap2\n      pop\n      pop\n      jump\t// out\n        /* \"#utility.yul\":7939:8252   */\n    tag_28:\n        /* \"#utility.yul\":8052:8056   */\n      0x00\n        /* \"#utility.yul\":8090:8092   */\n      0x20\n        /* \"#utility.yul\":8079:8088   */\n      dup3\n        /* \"#utility.yul\":8075:8093   */\n      add\n        /* \"#utility.yul\":8067:8093   */\n      swap1\n      pop\n        /* \"#utility.yul\":8139:8148   */\n      dup2\n        /* \"#utility.yul\":8133:8137   */\n      dup2\n        /* \"#utility.yul\":8129:8149   */\n      sub\n        /* \"#utility.yul\":8125:8126   */\n      0x00\n        /* \"#utility.yul\":8114:8123   */\n      dup4\n        /* \"#utility.yul\":8110:8127   */\n      add\n        /* \"#utility.yul\":8103:8150   */\n      mstore\n        /* \"#utility.yul\":8167:8245   */\n      tag_335\n        /* \"#utility.yul\":8240:8244   */\n      dup2\n        /* \"#utility.yul\":8231:8237   */\n      dup5\n        /* \"#utility.yul\":8167:8245   */\n      tag_257\n      jump\t// in\n    tag_335:\n        /* \"#utility.yul\":8159:8245   */\n      swap1\n      pop\n        /* \"#utility.yul\":7939:8252   */\n      swap3\n      swap2\n      pop\n      pop\n      jump\t// out\n        /* \"#utility.yul\":8258:8677   */\n    tag_196:\n        /* \"#utility.yul\":8424:8428   */\n      0x00\n        /* \"#utility.yul\":8462:8464   */\n      0x20\n        /* \"#utility.yul\":8451:8460   */\n      dup3\n        /* \"#utility.yul\":8447:8465   */\n      add\n        /* \"#utility.yul\":8439:8465   */\n      swap1\n      pop\n        /* \"#utility.yul\":8511:8520   */\n      dup2\n        /* \"#utility.yul\":8505:8509   */\n      dup2\n        /* \"#utility.yul\":8501:8521   */\n      sub\n        /* \"#utility.yul\":8497:8498   */\n      0x00\n        /* \"#utility.yul\":8486:8495   */\n      dup4\n        /* \"#utility.yul\":8482:8499   */\n      add\n        /* \"#utility.yul\":8475:8522   */\n      mstore\n        /* \"#utility.yul\":8539:8670   */\n      tag_337\n        /* \"#utility.yul\":8665:8669   */\n      dup2\n        /* \"#utility.yul\":8539:8670   */\n      tag_267\n      jump\t// in\n    tag_337:\n        /* \"#utility.yul\":8531:8670   */\n      swap1\n      pop\n        /* \"#utility.yul\":8258:8677   */\n      swap2\n      swap1\n      pop\n      jump\t// out\n        /* \"#utility.yul\":8683:9102   */\n    tag_172:\n        /* \"#utility.yul\":8849:8853   */\n      0x00\n        /* \"#utility.yul\":8887:8889   */\n      0x20\n        /* \"#utility.yul\":8876:8885   */\n      dup3\n        /* \"#utility.yul\":8872:8890   */\n      add\n        /* \"#utility.yul\":8864:8890   */\n      swap1\n      pop\n        /* \"#utility.yul\":8936:8945   */\n      dup2\n        /* \"#utility.yul\":8930:8934   */\n      dup2\n        /* \"#utility.yul\":8926:8946   */\n      sub\n        /* \"#utility.yul\":8922:8923   */\n      0x00\n        /* \"#utility.yul\":8911:8920   */\n      dup4\n        /* \"#utility.yul\":8907:8924   */\n      add\n        /* \"#utility.yul\":8900:8947   */\n      mstore\n        /* \"#utility.yul\":8964:9095   */\n      tag_339\n        /* \"#utility.yul\":9090:9094   */\n      dup2\n        /* \"#utility.yul\":8964:9095   */\n      tag_272\n      jump\t// in\n    tag_339:\n        /* \"#utility.yul\":8956:9095   */\n      swap1\n      pop\n        /* \"#utility.yul\":8683:9102   */\n      swap2\n      swap1\n      pop\n      jump\t// out\n        /* \"#utility.yul\":9108:9527   */\n    tag_181:\n        /* \"#utility.yul\":9274:9278   */\n      0x00\n        /* \"#utility.yul\":9312:9314   */\n      0x20\n        /* \"#utility.yul\":9301:9310   */\n      dup3\n        /* \"#utility.yul\":9297:9315   */\n      add\n        /* \"#utility.yul\":9289:9315   */\n      swap1\n      pop\n        /* \"#utility.yul\":9361:9370   */\n      dup2\n        /* \"#utility.yul\":9355:9359   */\n      dup2\n        /* \"#utility.yul\":9351:9371   */\n      sub\n        /* \"#utility.yul\":9347:9348   */\n      0x00\n        /* \"#utility.yul\":9336:9345   */\n      dup4\n        /* \"#utility.yul\":9332:9349   */\n      add\n        /* \"#utility.yul\":9325:9372   */\n      mstore\n        /* \"#utility.yul\":9389:9520   */\n      tag_341\n        /* \"#utility.yul\":9515:9519   */\n      dup2\n        /* \"#utility.yul\":9389:9520   */\n      tag_277\n      jump\t// in\n    tag_341:\n        /* \"#utility.yul\":9381:9520   */\n      swap1\n      pop\n        /* \"#utility.yul\":9108:9527   */\n      swap2\n      swap1\n      pop\n      jump\t// out\n        /* \"#utility.yul\":9533:9952   */\n    tag_188:\n        /* \"#utility.yul\":9699:9703   */\n      0x00\n        /* \"#utility.yul\":9737:9739   */\n      0x20\n        /* \"#utility.yul\":9726:9735   */\n      dup3\n        /* \"#utility.yul\":9722:9740   */\n      add\n        /* \"#utility.yul\":9714:9740   */\n      swap1\n      pop\n        /* \"#utility.yul\":9786:9795   */\n      dup2\n        /* \"#utility.yul\":9780:9784   */\n      dup2\n        /* \"#utility.yul\":9776:9796   */\n      sub\n        /* \"#utility.yul\":9772:9773   */\n      0x00\n        /* \"#utility.yul\":9761:9770   */\n      dup4\n        /* \"#utility.yul\":9757:9774   */\n      add\n        /* \"#utility.yul\":9750:9797   */\n      mstore\n        /* \"#utility.yul\":9814:9945   */\n      tag_343\n        /* \"#utility.yul\":9940:9944   */\n      dup2\n        /* \"#utility.yul\":9814:9945   */\n      tag_282\n      jump\t// in\n    tag_343:\n        /* \"#utility.yul\":9806:9945   */\n      swap1\n      pop\n        /* \"#utility.yul\":9533:9952   */\n      swap2\n      swap1\n      pop\n      jump\t// out\n        /* \"#utility.yul\":9958:10377   */\n    tag_201:\n        /* \"#utility.yul\":10124:10128   */\n      0x00\n        /* \"#utility.yul\":10162:10164   */\n      0x20\n        /* \"#utility.yul\":10151:10160   */\n      dup3\n        /* \"#utility.yul\":10147:10165   */\n      add\n        /* \"#utility.yul\":10139:10165   */\n      swap1\n      pop\n        /* \"#utility.yul\":10211:10220   */\n      dup2\n        /* \"#utility.yul\":10205:10209   */\n      dup2\n        /* \"#utility.yul\":10201:10221   */\n      sub\n        /* \"#utility.yul\":10197:10198   */\n      0x00\n        /* \"#utility.yul\":10186:10195   */\n      dup4\n        /* \"#utility.yul\":10182:10199   */\n      add\n        /* \"#utility.yul\":10175:10222   */\n      mstore\n        /* \"#utility.yul\":10239:10370   */\n      tag_345\n        /* \"#utility.yul\":10365:10369   */\n      dup2\n        /* \"#utility.yul\":10239:10370   */\n      tag_287\n      jump\t// in\n    tag_345:\n        /* \"#utility.yul\":10231:10370   */\n      swap1\n      pop\n        /* \"#utility.yul\":9958:10377   */\n      swap2\n      swap1\n      pop\n      jump\t// out\n        /* \"#utility.yul\":10383:10802   */\n    tag_166:\n        /* \"#utility.yul\":10549:10553   */\n      0x00\n        /* \"#utility.yul\":10587:10589   */\n      0x20\n        /* \"#utility.yul\":10576:10585   */\n      dup3\n        /* \"#utility.yul\":10572:10590   */\n      add\n        /* \"#utility.yul\":10564:10590   */\n      swap1\n      pop\n        /* \"#utility.yul\":10636:10645   */\n      dup2\n        /* \"#utility.yul\":10630:10634   */\n      dup2\n        /* \"#utility.yul\":10626:10646   */\n      sub\n        /* \"#utility.yul\":10622:10623   */\n      0x00\n        /* \"#utility.yul\":10611:10620   */\n      dup4\n        /* \"#utility.yul\":10607:10624   */\n      add\n        /* \"#utility.yul\":10600:10647   */\n      mstore\n        /* \"#utility.yul\":10664:10795   */\n      tag_347\n        /* \"#utility.yul\":10790:10794   */\n      dup2\n        /* \"#utility.yul\":10664:10795   */\n      tag_292\n      jump\t// in\n    tag_347:\n        /* \"#utility.yul\":10656:10795   */\n      swap1\n      pop\n        /* \"#utility.yul\":10383:10802   */\n      swap2\n      swap1\n      pop\n      jump\t// out\n        /* \"#utility.yul\":10808:11227   */\n    tag_116:\n        /* \"#utility.yul\":10974:10978   */\n      0x00\n        /* \"#utility.yul\":11012:11014   */\n      0x20\n        /* \"#utility.yul\":11001:11010   */\n      dup3\n        /* \"#utility.yul\":10997:11015   */\n      add\n        /* \"#utility.yul\":10989:11015   */\n      swap1\n      pop\n        /* \"#utility.yul\":11061:11070   */\n      dup2\n        /* \"#utility.yul\":11055:11059   */\n      dup2\n        /* \"#utility.yul\":11051:11071   */\n      sub\n        /* \"#utility.yul\":11047:11048   */\n      0x00\n        /* \"#utility.yul\":11036:11045   */\n      dup4\n        /* \"#utility.yul\":11032:11049   */\n      add\n        /* \"#utility.yul\":11025:11072   */\n      mstore\n        /* \"#utility.yul\":11089:11220   */\n      tag_349\n        /* \"#utility.yul\":11215:11219   */\n      dup2\n        /* \"#utility.yul\":11089:11220   */\n      tag_297\n      jump\t// in\n    tag_349:\n        /* \"#utility.yul\":11081:11220   */\n      swap1\n      pop\n        /* \"#utility.yul\":10808:11227   */\n      swap2\n      swap1\n      pop\n      jump\t// out\n        /* \"#utility.yul\":11233:11652   */\n    tag_211:\n        /* \"#utility.yul\":11399:11403   */\n      0x00\n        /* \"#utility.yul\":11437:11439   */\n      0x20\n        /* \"#utility.yul\":11426:11435   */\n      dup3\n        /* \"#utility.yul\":11422:11440   */\n      add\n        /* \"#utility.yul\":11414:11440   */\n      swap1\n      pop\n        /* \"#utility.yul\":11486:11495   */\n      dup2\n        /* \"#utility.yul\":11480:11484   */\n      dup2\n        /* \"#utility.yul\":11476:11496   */\n      sub\n        /* \"#utility.yul\":11472:11473   */\n      0x00\n        /* \"#utility.yul\":11461:11470   */\n      dup4\n        /* \"#utility.yul\":11457:11474   */\n      add\n        /* \"#utility.yul\":11450:11497   */\n      mstore\n        /* \"#utility.yul\":11514:11645   */\n      tag_351\n        /* \"#utility.yul\":11640:11644   */\n      dup2\n        /* \"#utility.yul\":11514:11645   */\n      tag_302\n      jump\t// in\n    tag_351:\n        /* \"#utility.yul\":11506:11645   */\n      swap1\n      pop\n        /* \"#utility.yul\":11233:11652   */\n      swap2\n      swap1\n      pop\n      jump\t// out\n        /* \"#utility.yul\":11658:12077   */\n    tag_193:\n        /* \"#utility.yul\":11824:11828   */\n      0x00\n        /* \"#utility.yul\":11862:11864   */\n      0x20\n        /* \"#utility.yul\":11851:11860   */\n      dup3\n        /* \"#utility.yul\":11847:11865   */\n      add\n        /* \"#utility.yul\":11839:11865   */\n      swap1\n      pop\n        /* \"#utility.yul\":11911:11920   */\n      dup2\n        /* \"#utility.yul\":11905:11909   */\n      dup2\n        /* \"#utility.yul\":11901:11921   */\n      sub\n        /* \"#utility.yul\":11897:11898   */\n      0x00\n        /* \"#utility.yul\":11886:11895   */\n      dup4\n        /* \"#utility.yul\":11882:11899   */\n      add\n        /* \"#utility.yul\":11875:11922   */\n      mstore\n        /* \"#utility.yul\":11939:12070   */\n      tag_353\n        /* \"#utility.yul\":12065:12069   */\n      dup2\n        /* \"#utility.yul\":11939:12070   */\n      tag_307\n      jump\t// in\n    tag_353:\n        /* \"#utility.yul\":11931:12070   */\n      swap1\n      pop\n        /* \"#utility.yul\":11658:12077   */\n      swap2\n      swap1\n      pop\n      jump\t// out\n        /* \"#utility.yul\":12083:12502   */\n    tag_178:\n        /* \"#utility.yul\":12249:12253   */\n      0x00\n        /* \"#utility.yul\":12287:12289   */\n      0x20\n        /* \"#utility.yul\":12276:12285   */\n      dup3\n        /* \"#utility.yul\":12272:12290   */\n      add\n        /* \"#utility.yul\":12264:12290   */\n      swap1\n      pop\n        /* \"#utility.yul\":12336:12345   */\n      dup2\n        /* \"#utility.yul\":12330:12334   */\n      dup2\n        /* \"#utility.yul\":12326:12346   */\n      sub\n        /* \"#utility.yul\":12322:12323   */\n      0x00\n        /* \"#utility.yul\":12311:12320   */\n      dup4\n        /* \"#utility.yul\":12307:12324   */\n      add\n        /* \"#utility.yul\":12300:12347   */\n      mstore\n        /* \"#utility.yul\":12364:12495   */\n      tag_355\n        /* \"#utility.yul\":12490:12494   */\n      dup2\n        /* \"#utility.yul\":12364:12495   */\n      tag_312\n      jump\t// in\n    tag_355:\n        /* \"#utility.yul\":12356:12495   */\n      swap1\n      pop\n        /* \"#utility.yul\":12083:12502   */\n      swap2\n      swap1\n      pop\n      jump\t// out\n        /* \"#utility.yul\":12508:12927   */\n    tag_151:\n        /* \"#utility.yul\":12674:12678   */\n      0x00\n        /* \"#utility.yul\":12712:12714   */\n      0x20\n        /* \"#utility.yul\":12701:12710   */\n      dup3\n        /* \"#utility.yul\":12697:12715   */\n      add\n        /* \"#utility.yul\":12689:12715   */\n      swap1\n      pop\n        /* \"#utility.yul\":12761:12770   */\n      dup2\n        /* \"#utility.yul\":12755:12759   */\n      dup2\n        /* \"#utility.yul\":12751:12771   */\n      sub\n        /* \"#utility.yul\":12747:12748   */\n      0x00\n        /* \"#utility.yul\":12736:12745   */\n      dup4\n        /* \"#utility.yul\":12732:12749   */\n      add\n        /* \"#utility.yul\":12725:12772   */\n      mstore\n        /* \"#utility.yul\":12789:12920   */\n      tag_357\n        /* \"#utility.yul\":12915:12919   */\n      dup2\n        /* \"#utility.yul\":12789:12920   */\n      tag_317\n      jump\t// in\n    tag_357:\n        /* \"#utility.yul\":12781:12920   */\n      swap1\n      pop\n        /* \"#utility.yul\":12508:12927   */\n      swap2\n      swap1\n      pop\n      jump\t// out\n        /* \"#utility.yul\":12933:13155   */\n    tag_38:\n        /* \"#utility.yul\":13026:13030   */\n      0x00\n        /* \"#utility.yul\":13064:13066   */\n      0x20\n        /* \"#utility.yul\":13053:13062   */\n      dup3\n        /* \"#utility.yul\":13049:13067   */\n      add\n        /* \"#utility.yul\":13041:13067   */\n      swap1\n      pop\n        /* \"#utility.yul\":13077:13148   */\n      tag_359\n        /* \"#utility.yul\":13145:13146   */\n      0x00\n        /* \"#utility.yul\":13134:13143   */\n      dup4\n        /* \"#utility.yul\":13130:13147   */\n      add\n        /* \"#utility.yul\":13121:13127   */\n      dup5\n        /* \"#utility.yul\":13077:13148   */\n      tag_322\n      jump\t// in\n    tag_359:\n        /* \"#utility.yul\":12933:13155   */\n      swap3\n      swap2\n      pop\n      pop\n      jump\t// out\n        /* \"#utility.yul\":13161:13375   */\n    tag_47:\n        /* \"#utility.yul\":13250:13254   */\n      0x00\n        /* \"#utility.yul\":13288:13290   */\n      0x20\n        /* \"#utility.yul\":13277:13286   */\n      dup3\n        /* \"#utility.yul\":13273:13291   */\n      add\n        /* \"#utility.yul\":13265:13291   */\n      swap1\n      pop\n        /* \"#utility.yul\":13301:13368   */\n      tag_361\n        /* \"#utility.yul\":13365:13366   */\n      0x00\n        /* \"#utility.yul\":13354:13363   */\n      dup4\n        /* \"#utility.yul\":13350:13367   */\n      add\n        /* \"#utility.yul\":13341:13347   */\n      dup5\n        /* \"#utility.yul\":13301:13368   */\n      tag_326\n      jump\t// in\n    tag_361:\n        /* \"#utility.yul\":13161:13375   */\n      swap3\n      swap2\n      pop\n      pop\n      jump\t// out\n        /* \"#utility.yul\":13462:13561   */\n    tag_260:\n        /* \"#utility.yul\":13514:13520   */\n      0x00\n        /* \"#utility.yul\":13548:13553   */\n      dup2\n        /* \"#utility.yul\":13542:13554   */\n      mload\n        /* \"#utility.yul\":13532:13554   */\n      swap1\n      pop\n        /* \"#utility.yul\":13462:13561   */\n      swap2\n      swap1\n      pop\n      jump\t// out\n        /* \"#utility.yul\":13567:13736   */\n    tag_262:\n        /* \"#utility.yul\":13651:13662   */\n      0x00\n        /* \"#utility.yul\":13685:13691   */\n      dup3\n        /* \"#utility.yul\":13680:13683   */\n      dup3\n        /* \"#utility.yul\":13673:13692   */\n      mstore\n        /* \"#utility.yul\":13725:13729   */\n      0x20\n        /* \"#utility.yul\":13720:13723   */\n      dup3\n        /* \"#utility.yul\":13716:13730   */\n      add\n        /* \"#utility.yul\":13701:13730   */\n      swap1\n      pop\n        /* \"#utility.yul\":13567:13736   */\n      swap3\n      swap2\n      pop\n      pop\n      jump\t// out\n        /* \"#utility.yul\":13742:14047   */\n    tag_128:\n        /* \"#utility.yul\":13782:13785   */\n      0x00\n        /* \"#utility.yul\":13801:13821   */\n      tag_367\n        /* \"#utility.yul\":13819:13820   */\n      dup3\n        /* \"#utility.yul\":13801:13821   */\n      tag_325\n      jump\t// in\n    tag_367:\n        /* \"#utility.yul\":13796:13821   */\n      swap2\n      pop\n        /* \"#utility.yul\":13835:13855   */\n      tag_368\n        /* \"#utility.yul\":13853:13854   */\n      dup4\n        /* \"#utility.yul\":13835:13855   */\n      tag_325\n      jump\t// in\n    tag_368:\n        /* \"#utility.yul\":13830:13855   */\n      swap3\n      pop\n        /* \"#utility.yul\":13989:13990   */\n      dup3\n        /* \"#utility.yul\":13921:13987   */\n      0xffffffffffffffffffffffffffffffffffffffffffffffffffffffffffffffff\n        /* \"#utility.yul\":13917:13991   */\n      sub\n        /* \"#utility.yul\":13914:13915   */\n      dup3\n        /* \"#utility.yul\":13911:13992   */\n      gt\n        /* \"#utility.yul\":13908:14015   */\n      iszero\n      tag_369\n      jumpi\n        /* \"#utility.yul\":13995:14013   */\n      tag_370\n      tag_371\n      jump\t// in\n    tag_370:\n        /* \"#utility.yul\":13908:14015   */\n    tag_369:\n        /* \"#utility.yul\":14039:14040   */\n      dup3\n        /* \"#utility.yul\":14036:14037   */\n      dup3\n        /* \"#utility.yul\":14032:14041   */\n      add\n        /* \"#utility.yul\":14025:14041   */\n      swap1\n      pop\n        /* \"#utility.yul\":13742:14047   */\n      swap3\n      swap2\n      pop\n      pop\n      jump\t// out\n        /* \"#utility.yul\":14053:14149   */\n    tag_252:\n        /* \"#utility.yul\":14090:14097   */\n      0x00\n        /* \"#utility.yul\":14119:14143   */\n      tag_373\n        /* \"#utility.yul\":14137:14142   */\n      dup3\n        /* \"#utility.yul\":14119:14143   */\n      tag_374\n      jump\t// in\n    tag_373:\n        /* \"#utility.yul\":14108:14143   */\n      swap1\n      pop\n        /* \"#utility.yul\":14053:14149   */\n      swap2\n      swap1\n      pop\n      jump\t// out\n        /* \"#utility.yul\":14155:14245   */\n    tag_256:\n        /* \"#utility.yul\":14189:14196   */\n      0x00\n        /* \"#utility.yul\":14232:14237   */\n      dup2\n        /* \"#utility.yul\":14225:14238   */\n      iszero\n        /* \"#utility.yul\":14218:14239   */\n      iszero\n        /* \"#utility.yul\":14207:14239   */\n      swap1\n      pop\n        /* \"#utility.yul\":14155:14245   */\n      swap2\n      swap1\n      pop\n      jump\t// out\n        /* \"#utility.yul\":14251:14377   */\n    tag_374:\n        /* \"#utility.yul\":14288:14295   */\n      0x00\n        /* \"#utility.yul\":14328:14370   */\n      0xffffffffffffffffffffffffffffffffffffffff\n        /* \"#utility.yul\":14321:14326   */\n      dup3\n        /* \"#utility.yul\":14317:14371   */\n      and\n        /* \"#utility.yul\":14306:14371   */\n      swap1\n      pop\n        /* \"#utility.yul\":14251:14377   */\n      swap2\n      swap1\n      pop\n      jump\t// out\n        /* \"#utility.yul\":14383:14460   */\n    tag_325:\n        /* \"#utility.yul\":14420:14427   */\n      0x00\n        /* \"#utility.yul\":14449:14454   */\n      dup2\n        /* \"#utility.yul\":14438:14454   */\n      swap1\n      pop\n        /* \"#utility.yul\":14383:14460   */\n      swap2\n      swap1\n      pop\n      jump\t// out\n        /* \"#utility.yul\":14466:14552   */\n    tag_329:\n        /* \"#utility.yul\":14501:14508   */\n      0x00\n        /* \"#utility.yul\":14541:14545   */\n      0xff\n        /* \"#utility.yul\":14534:14539   */\n      dup3\n        /* \"#utility.yul\":14530:14546   */\n      and\n        /* \"#utility.yul\":14519:14546   */\n      swap1\n      pop\n        /* \"#utility.yul\":14466:14552   */\n      swap2\n      swap1\n      pop\n      jump\t// out\n        /* \"#utility.yul\":14558:14865   */\n    tag_264:\n        /* \"#utility.yul\":14626:14627   */\n      0x00\n        /* \"#utility.yul\":14636:14749   */\n    tag_380:\n        /* \"#utility.yul\":14650:14656   */\n      dup4\n        /* \"#utility.yul\":14647:14648   */\n      dup2\n        /* \"#utility.yul\":14644:14657   */\n      lt\n        /* \"#utility.yul\":14636:14749   */\n      iszero\n      tag_382\n      jumpi\n        /* \"#utility.yul\":14735:14736   */\n      dup1\n        /* \"#utility.yul\":14730:14733   */\n      dup3\n        /* \"#utility.yul\":14726:14737   */\n      add\n        /* \"#utility.yul\":14720:14738   */\n      mload\n        /* \"#utility.yul\":14716:14717   */\n      dup2\n        /* \"#utility.yul\":14711:14714   */\n      dup5\n        /* \"#utility.yul\":14707:14718   */\n      add\n        /* \"#utility.yul\":14700:14739   */\n      mstore\n        /* \"#utility.yul\":14672:14674   */\n      0x20\n        /* \"#utility.yul\":14669:14670   */\n      dup2\n        /* \"#utility.yul\":14665:14675   */\n      add\n        /* \"#utility.yul\":14660:14675   */\n      swap1\n      pop\n        /* \"#utility.yul\":14636:14749   */\n      jump(tag_380)\n    tag_382:\n        /* \"#utility.yul\":14767:14773   */\n      dup4\n        /* \"#utility.yul\":14764:14765   */\n      dup2\n        /* \"#utility.yul\":14761:14774   */\n      gt\n        /* \"#utility.yul\":14758:14859   */\n      iszero\n      tag_383\n      jumpi\n        /* \"#utility.yul\":14847:14848   */\n      0x00\n        /* \"#utility.yul\":14838:14844   */\n      dup5\n        /* \"#utility.yul\":14833:14836   */\n      dup5\n        /* \"#utility.yul\":14829:14845   */\n      add\n        /* \"#utility.yul\":14822:14849   */\n      mstore\n        /* \"#utility.yul\":14758:14859   */\n    tag_383:\n        /* \"#utility.yul\":14607:14865   */\n      pop\n        /* \"#utility.yul\":14558:14865   */\n      pop\n      pop\n      pop\n      jump\t// out\n        /* \"#utility.yul\":14871:15191   */\n    tag_101:\n        /* \"#utility.yul\":14915:14921   */\n      0x00\n        /* \"#utility.yul\":14952:14953   */\n      0x02\n        /* \"#utility.yul\":14946:14950   */\n      dup3\n        /* \"#utility.yul\":14942:14954   */\n      div\n        /* \"#utility.yul\":14932:14954   */\n      swap1\n      pop\n        /* \"#utility.yul\":14999:15000   */\n      0x01\n        /* \"#utility.yul\":14993:14997   */\n      dup3\n        /* \"#utility.yul\":14989:15001   */\n      and\n        /* \"#utility.yul\":15020:15038   */\n      dup1\n        /* \"#utility.yul\":15010:15091   */\n      tag_385\n      jumpi\n        /* \"#utility.yul\":15076:15080   */\n      0x7f\n        /* \"#utility.yul\":15068:15074   */\n      dup3\n        /* \"#utility.yul\":15064:15081   */\n      and\n        /* \"#utility.yul\":15054:15081   */\n      swap2\n      pop\n        /* \"#utility.yul\":15010:15091   */\n    tag_385:\n        /* \"#utility.yul\":15138:15140   */\n      0x20\n        /* \"#utility.yul\":15130:15136   */\n      dup3\n        /* \"#utility.yul\":15127:15141   */\n      lt\n        /* \"#utility.yul\":15107:15125   */\n      dup2\n        /* \"#utility.yul\":15104:15142   */\n      eq\n        /* \"#utility.yul\":15101:15185   */\n      iszero\n      tag_386\n      jumpi\n        /* \"#utility.yul\":15157:15175   */\n      tag_387\n      tag_388\n      jump\t// in\n    tag_387:\n        /* \"#utility.yul\":15101:15185   */\n    tag_386:\n        /* \"#utility.yul\":14922:15191   */\n      pop\n        /* \"#utility.yul\":14871:15191   */\n      swap2\n      swap1\n      pop\n      jump\t// out\n        /* \"#utility.yul\":15197:15377   */\n    tag_371:\n        /* \"#utility.yul\":15245:15322   */\n      0x4e487b7100000000000000000000000000000000000000000000000000000000\n        /* \"#utility.yul\":15242:15243   */\n      0x00\n        /* \"#utility.yul\":15235:15323   */\n      mstore\n        /* \"#utility.yul\":15342:15346   */\n      0x11\n        /* \"#utility.yul\":15339:15340   */\n      0x04\n        /* \"#utility.yul\":15332:15347   */\n      mstore\n        /* \"#utility.yul\":15366:15370   */\n      0x24\n        /* \"#utility.yul\":15363:15364   */\n      0x00\n        /* \"#utility.yul\":15356:15371   */\n      revert\n        /* \"#utility.yul\":15383:15563   */\n    tag_388:\n        /* \"#utility.yul\":15431:15508   */\n      0x4e487b7100000000000000000000000000000000000000000000000000000000\n        /* \"#utility.yul\":15428:15429   */\n      0x00\n        /* \"#utility.yul\":15421:15509   */\n      mstore\n        /* \"#utility.yul\":15528:15532   */\n      0x22\n        /* \"#utility.yul\":15525:15526   */\n      0x04\n        /* \"#utility.yul\":15518:15533   */\n      mstore\n        /* \"#utility.yul\":15552:15556   */\n      0x24\n        /* \"#utility.yul\":15549:15550   */\n      0x00\n        /* \"#utility.yul\":15542:15557   */\n      revert\n        /* \"#utility.yul\":15692:15809   */\n    tag_227:\n        /* \"#utility.yul\":15801:15802   */\n      0x00\n        /* \"#utility.yul\":15798:15799   */\n      dup1\n        /* \"#utility.yul\":15791:15803   */\n      revert\n        /* \"#utility.yul\":15815:15917   */\n    tag_266:\n        /* \"#utility.yul\":15856:15862   */\n      0x00\n        /* \"#utility.yul\":15907:15909   */\n      0x1f\n        /* \"#utility.yul\":15903:15910   */\n      not\n        /* \"#utility.yul\":15898:15900   */\n      0x1f\n        /* \"#utility.yul\":15891:15896   */\n      dup4\n        /* \"#utility.yul\":15887:15901   */\n      add\n        /* \"#utility.yul\":15883:15911   */\n      and\n        /* \"#utility.yul\":15873:15911   */\n      swap1\n      pop\n        /* \"#utility.yul\":15815:15917   */\n      swap2\n      swap1\n      pop\n      jump\t// out\n        /* \"#utility.yul\":15923:16145   */\n    tag_271:\n        /* \"#utility.yul\":16063:16097   */\n      0x45524332303a207472616e7366657220746f20746865207a65726f2061646472\n        /* \"#utility.yul\":16059:16060   */\n      0x00\n        /* \"#utility.yul\":16051:16057   */\n      dup3\n        /* \"#utility.yul\":16047:16061   */\n      add\n        /* \"#utility.yul\":16040:16098   */\n      mstore\n        /* \"#utility.yul\":16132:16137   */\n      0x6573730000000000000000000000000000000000000000000000000000000000\n        /* \"#utility.yul\":16127:16129   */\n      0x20\n        /* \"#utility.yul\":16119:16125   */\n      dup3\n        /* \"#utility.yul\":16115:16130   */\n      add\n        /* \"#utility.yul\":16108:16138   */\n      mstore\n        /* \"#utility.yul\":15923:16145   */\n      pop\n      jump\t// out\n        /* \"#utility.yul\":16151:16376   */\n    tag_276:\n        /* \"#utility.yul\":16291:16325   */\n      0x4f776e61626c653a206e6577206f776e657220697320746865207a65726f2061\n        /* \"#utility.yul\":16287:16288   */\n      0x00\n        /* \"#utility.yul\":16279:16285   */\n      dup3\n        /* \"#utility.yul\":16275:16289   */\n      add\n        /* \"#utility.yul\":16268:16326   */\n      mstore\n        /* \"#utility.yul\":16360:16368   */\n      0x6464726573730000000000000000000000000000000000000000000000000000\n        /* \"#utility.yul\":16355:16357   */\n      0x20\n        /* \"#utility.yul\":16347:16353   */\n      dup3\n        /* \"#utility.yul\":16343:16358   */\n      add\n        /* \"#utility.yul\":16336:16369   */\n      mstore\n        /* \"#utility.yul\":16151:16376   */\n      pop\n      jump\t// out\n        /* \"#utility.yul\":16382:16603   */\n    tag_281:\n        /* \"#utility.yul\":16522:16556   */\n      0x45524332303a20617070726f766520746f20746865207a65726f206164647265\n        /* \"#utility.yul\":16518:16519   */\n      0x00\n        /* \"#utility.yul\":16510:16516   */\n      dup3\n        /* \"#utility.yul\":16506:16520   */\n      add\n        /* \"#utility.yul\":16499:16557   */\n      mstore\n        /* \"#utility.yul\":16591:16595   */\n      0x7373000000000000000000000000000000000000000000000000000000000000\n        /* \"#utility.yul\":16586:16588   */\n      0x20\n        /* \"#utility.yul\":16578:16584   */\n      dup3\n        /* \"#utility.yul\":16574:16589   */\n      add\n        /* \"#utility.yul\":16567:16596   */\n      mstore\n        /* \"#utility.yul\":16382:16603   */\n      pop\n      jump\t// out\n        /* \"#utility.yul\":16609:16788   */\n    tag_286:\n        /* \"#utility.yul\":16749:16780   */\n      0x45524332303a20696e73756666696369656e7420616c6c6f77616e6365000000\n        /* \"#utility.yul\":16745:16746   */\n      0x00\n        /* \"#utility.yul\":16737:16743   */\n      dup3\n        /* \"#utility.yul\":16733:16747   */\n      add\n        /* \"#utility.yul\":16726:16781   */\n      mstore\n        /* \"#utility.yul\":16609:16788   */\n      pop\n      jump\t// out\n        /* \"#utility.yul\":16794:17019   */\n    tag_291:\n        /* \"#utility.yul\":16934:16968   */\n      0x45524332303a207472616e7366657220616d6f756e7420657863656564732062\n        /* \"#utility.yul\":16930:16931   */\n      0x00\n        /* \"#utility.yul\":16922:16928   */\n      dup3\n        /* \"#utility.yul\":16918:16932   */\n      add\n        /* \"#utility.yul\":16911:16969   */\n      mstore\n        /* \"#utility.yul\":17003:17011   */\n      0x616c616e63650000000000000000000000000000000000000000000000000000\n        /* \"#utility.yul\":16998:17000   */\n      0x20\n        /* \"#utility.yul\":16990:16996   */\n      dup3\n        /* \"#utility.yul\":16986:17001   */\n      add\n        /* \"#utility.yul\":16979:17012   */\n      mstore\n        /* \"#utility.yul\":16794:17019   */\n      pop\n      jump\t// out\n        /* \"#utility.yul\":17025:17196   */\n    tag_296:\n        /* \"#utility.yul\":17165:17188   */\n      0x4552524f52202d20496e76616c69642056616c75650000000000000000000000\n        /* \"#utility.yul\":17161:17162   */\n      0x00\n        /* \"#utility.yul\":17153:17159   */\n      dup3\n        /* \"#utility.yul\":17149:17163   */\n      add\n        /* \"#utility.yul\":17142:17189   */\n      mstore\n        /* \"#utility.yul\":17025:17196   */\n      pop\n      jump\t// out\n        /* \"#utility.yul\":17202:17429   */\n    tag_301:\n        /* \"#utility.yul\":17342:17376   */\n      0x4552524f52202d2054656d706f72617279205472616e73666572204c696d6974\n        /* \"#utility.yul\":17338:17339   */\n      0x00\n        /* \"#utility.yul\":17330:17336   */\n      dup3\n        /* \"#utility.yul\":17326:17340   */\n      add\n        /* \"#utility.yul\":17319:17377   */\n      mstore\n        /* \"#utility.yul\":17411:17421   */\n      0x2052656163686564000000000000000000000000000000000000000000000000\n        /* \"#utility.yul\":17406:17408   */\n      0x20\n        /* \"#utility.yul\":17398:17404   */\n      dup3\n        /* \"#utility.yul\":17394:17409   */\n      add\n        /* \"#utility.yul\":17387:17422   */\n      mstore\n        /* \"#utility.yul\":17202:17429   */\n      pop\n      jump\t// out\n        /* \"#utility.yul\":17435:17617   */\n    tag_306:\n        /* \"#utility.yul\":17575:17609   */\n      0x4f776e61626c653a2063616c6c6572206973206e6f7420746865206f776e6572\n        /* \"#utility.yul\":17571:17572   */\n      0x00\n        /* \"#utility.yul\":17563:17569   */\n      dup3\n        /* \"#utility.yul\":17559:17573   */\n      add\n        /* \"#utility.yul\":17552:17610   */\n      mstore\n        /* \"#utility.yul\":17435:17617   */\n      pop\n      jump\t// out\n        /* \"#utility.yul\":17623:17847   */\n    tag_311:\n        /* \"#utility.yul\":17763:17797   */\n      0x45524332303a207472616e736665722066726f6d20746865207a65726f206164\n        /* \"#utility.yul\":17759:17760   */\n      0x00\n        /* \"#utility.yul\":17751:17757   */\n      dup3\n        /* \"#utility.yul\":17747:17761   */\n      add\n        /* \"#utility.yul\":17740:17798   */\n      mstore\n        /* \"#utility.yul\":17832:17839   */\n      0x6472657373000000000000000000000000000000000000000000000000000000\n        /* \"#utility.yul\":17827:17829   */\n      0x20\n        /* \"#utility.yul\":17819:17825   */\n      dup3\n        /* \"#utility.yul\":17815:17830   */\n      add\n        /* \"#utility.yul\":17808:17840   */\n      mstore\n        /* \"#utility.yul\":17623:17847   */\n      pop\n      jump\t// out\n        /* \"#utility.yul\":17853:18076   */\n    tag_316:\n        /* \"#utility.yul\":17993:18027   */\n      0x45524332303a20617070726f76652066726f6d20746865207a65726f20616464\n        /* \"#utility.yul\":17989:17990   */\n      0x00\n        /* \"#utility.yul\":17981:17987   */\n      dup3\n        /* \"#utility.yul\":17977:17991   */\n      add\n        /* \"#utility.yul\":17970:18028   */\n      mstore\n        /* \"#utility.yul\":18062:18068   */\n      0x7265737300000000000000000000000000000000000000000000000000000000\n        /* \"#utility.yul\":18057:18059   */\n      0x20\n        /* \"#utility.yul\":18049:18055   */\n      dup3\n        /* \"#utility.yul\":18045:18060   */\n      add\n        /* \"#utility.yul\":18038:18069   */\n      mstore\n        /* \"#utility.yul\":17853:18076   */\n      pop\n      jump\t// out\n        /* \"#utility.yul\":18082:18306   */\n    tag_321:\n        /* \"#utility.yul\":18222:18256   */\n      0x45524332303a2064656372656173656420616c6c6f77616e63652062656c6f77\n        /* \"#utility.yul\":18218:18219   */\n      0x00\n        /* \"#utility.yul\":18210:18216   */\n      dup3\n        /* \"#utility.yul\":18206:18220   */\n      add\n        /* \"#utility.yul\":18199:18257   */\n      mstore\n        /* \"#utility.yul\":18291:18298   */\n      0x207a65726f000000000000000000000000000000000000000000000000000000\n        /* \"#utility.yul\":18286:18288   */\n      0x20\n        /* \"#utility.yul\":18278:18284   */\n      dup3\n        /* \"#utility.yul\":18274:18289   */\n      add\n        /* \"#utility.yul\":18267:18299   */\n      mstore\n        /* \"#utility.yul\":18082:18306   */\n      pop\n      jump\t// out\n        /* \"#utility.yul\":18312:18434   */\n    tag_219:\n        /* \"#utility.yul\":18385:18409   */\n      tag_407\n        /* \"#utility.yul\":18403:18408   */\n      dup2\n        /* \"#utility.yul\":18385:18409   */\n      tag_252\n      jump\t// in\n    tag_407:\n        /* \"#utility.yul\":18378:18383   */\n      dup2\n        /* \"#utility.yul\":18375:18410   */\n      eq\n        /* \"#utility.yul\":18365:18428   */\n      tag_408\n      jumpi\n        /* \"#utility.yul\":18424:18425   */\n      0x00\n        /* \"#utility.yul\":18421:18422   */\n      dup1\n        /* \"#utility.yul\":18414:18426   */\n      revert\n        /* \"#utility.yul\":18365:18428   */\n    tag_408:\n        /* \"#utility.yul\":18312:18434   */\n      pop\n      jump\t// out\n        /* \"#utility.yul\":18440:18562   */\n    tag_223:\n        /* \"#utility.yul\":18513:18537   */\n      tag_410\n        /* \"#utility.yul\":18531:18536   */\n      dup2\n        /* \"#utility.yul\":18513:18537   */\n      tag_325\n      jump\t// in\n    tag_410:\n        /* \"#utility.yul\":18506:18511   */\n      dup2\n        /* \"#utility.yul\":18503:18538   */\n      eq\n        /* \"#utility.yul\":18493:18556   */\n      tag_411\n      jumpi\n        /* \"#utility.yul\":18552:18553   */\n      0x00\n        /* \"#utility.yul\":18549:18550   */\n      dup1\n        /* \"#utility.yul\":18542:18554   */\n      revert\n        /* \"#utility.yul\":18493:18556   */\n    tag_411:\n        /* \"#utility.yul\":18440:18562   */\n      pop\n      jump\t// out\n\n    auxdata: 0xa2646970667358221220a57b7c7d1320f9ae0aa36c67564a2ac03b5c184d2e8f027b91542ca02183ac6564736f6c63430008070033\n}\n",
				"bytecode": {
					"linkReferences": {},
					"object": "6080604052633b9aca006006556000600760006101000a81548160ff0219169083151502179055503480156200003457600080fd5b506040518060400160405280600481526020017f50696e6b000000000000000000000000000000000000000000000000000000008152506040518060400160405280600481526020017f50494e4b000000000000000000000000000000000000000000000000000000008152508160039080519060200190620000b9929190620003c8565b508060049080519060200190620000d2929190620003c8565b505050620000f5620000e96200016e60201b60201c565b6200017660201b60201c565b62000133336200010a6200023c60201b60201c565b600a620001189190620005b8565b600654620001279190620006f5565b6200024560201b60201c565b620001436200023c60201b60201c565b600a620001519190620005b8565b63017d7840620001629190620006f5565b60088190555062000837565b600033905090565b6000600560009054906101000a900473ffffffffffffffffffffffffffffffffffffffff16905081600560006101000a81548173ffffffffffffffffffffffffffffffffffffffff021916908373ffffffffffffffffffffffffffffffffffffffff1602179055508173ffffffffffffffffffffffffffffffffffffffff168173ffffffffffffffffffffffffffffffffffffffff167f8be0079c531659141344cd1fd0a4f28419497f9722a3daafe3b4186f6b6457e060405160405180910390a35050565b60006012905090565b600073ffffffffffffffffffffffffffffffffffffffff168273ffffffffffffffffffffffffffffffffffffffff161415620002b8576040517f08c379a0000000000000000000000000000000000000000000000000000000008152600401620002af90620004b0565b60405180910390fd5b620002cc60008383620003be60201b60201c565b8060026000828254620002e0919062000500565b92505081905550806000808473ffffffffffffffffffffffffffffffffffffffff1673ffffffffffffffffffffffffffffffffffffffff168152602001908152602001600020600082825462000337919062000500565b925050819055508173ffffffffffffffffffffffffffffffffffffffff16600073ffffffffffffffffffffffffffffffffffffffff167fddf252ad1be2c89b69c2b068fc378daa952ba7f163c4a11628f55a4df523b3ef836040516200039e9190620004d2565b60405180910390a3620003ba60008383620003c360201b60201c565b5050565b505050565b505050565b828054620003d6906200076d565b90600052602060002090601f016020900481019282620003fa576000855562000446565b82601f106200041557805160ff191683800117855562000446565b8280016001018555821562000446579182015b828111156200044557825182559160200191906001019062000428565b5b50905062000455919062000459565b5090565b5b80821115620004745760008160009055506001016200045a565b5090565b600062000487601f83620004ef565b915062000494826200080e565b602082019050919050565b620004aa8162000756565b82525050565b60006020820190508181036000830152620004cb8162000478565b9050919050565b6000602082019050620004e960008301846200049f565b92915050565b600082825260208201905092915050565b60006200050d8262000756565b91506200051a8362000756565b9250827fffffffffffffffffffffffffffffffffffffffffffffffffffffffffffffffff03821115620005525762000551620007a3565b5b828201905092915050565b6000808291508390505b6001851115620005af57808604811115620005875762000586620007a3565b5b6001851615620005975780820291505b8081029050620005a78562000801565b945062000567565b94509492505050565b6000620005c58262000756565b9150620005d28362000760565b9250620006017fffffffffffffffffffffffffffffffffffffffffffffffffffffffffffffffff848462000609565b905092915050565b6000826200061b5760019050620006ee565b816200062b5760009050620006ee565b81600181146200064457600281146200064f5762000685565b6001915050620006ee565b60ff841115620006645762000663620007a3565b5b8360020a9150848211156200067e576200067d620007a3565b5b50620006ee565b5060208310610133831016604e8410600b8410161715620006bf5782820a905083811115620006b957620006b8620007a3565b5b620006ee565b620006ce84848460016200055d565b92509050818404811115620006e857620006e7620007a3565b5b81810290505b9392505050565b6000620007028262000756565b91506200070f8362000756565b9250817fffffffffffffffffffffffffffffffffffffffffffffffffffffffffffffffff04831182151516156200074b576200074a620007a3565b5b828202905092915050565b6000819050919050565b600060ff82169050919050565b600060028204905060018216806200078657607f821691505b602082108114156200079d576200079c620007d2565b5b50919050565b7f4e487b7100000000000000000000000000000000000000000000000000000000600052601160045260246000fd5b7f4e487b7100000000000000000000000000000000000000000000000000000000600052602260045260246000fd5b60008160011c9050919050565b7f45524332303a206d696e7420746f20746865207a65726f206164647265737300600082015250565b6119b380620008476000396000f3fe608060405234801561001057600080fd5b50600436106101215760003560e01c8063715018a6116100ad578063a4f0d7d011610071578063a4f0d7d014610310578063a9059cbb1461032e578063dd62ed3e1461035e578063ed246c661461038e578063f2fde38b146103be57610121565b8063715018a61461027c5780638da5cb5b1461028657806395d89b41146102a45780639d53827f146102c2578063a457c2d7146102e057610121565b8063313ce567116100f4578063313ce567146101c257806332cb6b0c146101e057806339509351146101fe5780636718161e1461022e57806370a082311461024c57610121565b806306fdde0314610126578063095ea7b31461014457806318160ddd1461017457806323b872dd14610192575b600080fd5b61012e6103da565b60405161013b9190611304565b60405180910390f35b61015e6004803603810190610159919061106b565b61046c565b60405161016b91906112e9565b60405180910390f35b61017c61048f565b6040516101899190611486565b60405180910390f35b6101ac60048036038101906101a79190611018565b610499565b6040516101b991906112e9565b60405180910390f35b6101ca610526565b6040516101d791906114a1565b60405180910390f35b6101e861052f565b6040516101f59190611486565b60405180910390f35b6102186004803603810190610213919061106b565b610535565b60405161022591906112e9565b60405180910390f35b61023661056c565b60405161024391906112e9565b60405180910390f35b61026660048036038101906102619190610fab565b6105b5565b6040516102739190611486565b60405180910390f35b6102846105fd565b005b61028e610611565b60405161029b91906112ce565b60405180910390f35b6102ac61063b565b6040516102b99190611304565b60405180910390f35b6102ca6106cd565b6040516102d79190611486565b60405180910390f35b6102fa60048036038101906102f5919061106b565b6106d3565b60405161030791906112e9565b60405180910390f35b61031861074a565b60405161032591906112e9565b60405180910390f35b6103486004803603810190610343919061106b565b61075d565b60405161035591906112e9565b60405180910390f35b61037860048036038101906103739190610fd8565b6107de565b6040516103859190611486565b60405180910390f35b6103a860048036038101906103a391906110ab565b610865565b6040516103b59190611486565b60405180910390f35b6103d860048036038101906103d39190610fab565b6108cf565b005b6060600380546103e9906115b6565b80601f0160208091040260200160405190810160405280929190818152602001828054610415906115b6565b80156104625780601f1061043757610100808354040283529160200191610462565b820191906000526020600020905b81548152906001019060200180831161044557829003601f168201915b5050505050905090565b600080610477610953565b905061048481858561095b565b600191505092915050565b6000600254905090565b6000600760009054906101000a900460ff1615806104b957506008548211155b6104f8576040517f08c379a00000000000000000000000000000000000000000000000000000000081526004016104ef906113e6565b60405180910390fd5b6000610502610953565b905061050f858285610b26565b61051a858585610bb2565b60019150509392505050565b60006012905090565b60065481565b600080610540610953565b905061056181858561055285896107de565b61055c91906114d8565b61095b565b600191505092915050565b6000610576610e33565b600760009054906101000a900460ff1615600760006101000a81548160ff021916908315150217905550600760009054906101000a900460ff16905090565b60008060008373ffffffffffffffffffffffffffffffffffffffff1673ffffffffffffffffffffffffffffffffffffffff168152602001908152602001600020549050919050565b610605610e33565b61060f6000610eb1565b565b6000600560009054906101000a900473ffffffffffffffffffffffffffffffffffffffff16905090565b60606004805461064a906115b6565b80601f0160208091040260200160405190810160405280929190818152602001828054610676906115b6565b80156106c35780601f10610698576101008083540402835291602001916106c3565b820191906000526020600020905b8154815290600101906020018083116106a657829003601f168201915b5050505050905090565b60085481565b6000806106de610953565b905060006106ec82866107de565b905083811015610731576040517f08c379a000000000000000000000000000000000000000000000000000000000815260040161072890611466565b60405180910390fd5b61073e828686840361095b565b60019250505092915050565b600760009054906101000a900460ff1681565b6000600760009054906101000a900460ff16158061077d57506008548211155b6107bc576040517f08c379a00000000000000000000000000000000000000000000000000000000081526004016107b3906113e6565b60405180910390fd5b60006107c6610953565b90506107d3818585610bb2565b600191505092915050565b6000600160008473ffffffffffffffffffffffffffffffffffffffff1673ffffffffffffffffffffffffffffffffffffffff16815260200190815260200160002060008373ffffffffffffffffffffffffffffffffffffffff1673ffffffffffffffffffffffffffffffffffffffff16815260200190815260200160002054905092915050565b600061086f610e33565b60065482111580610881575060008210155b6108c0576040517f08c379a00000000000000000000000000000000000000000000000000000000081526004016108b7906113c6565b60405180910390fd5b81600881905550819050919050565b6108d7610e33565b600073ffffffffffffffffffffffffffffffffffffffff168173ffffffffffffffffffffffffffffffffffffffff161415610947576040517f08c379a000000000000000000000000000000000000000000000000000000000815260040161093e90611346565b60405180910390fd5b61095081610eb1565b50565b600033905090565b600073ffffffffffffffffffffffffffffffffffffffff168373ffffffffffffffffffffffffffffffffffffffff1614156109cb576040517f08c379a00000000000000000000000000000000000000000000000000000000081526004016109c290611446565b60405180910390fd5b600073ffffffffffffffffffffffffffffffffffffffff168273ffffffffffffffffffffffffffffffffffffffff161415610a3b576040517f08c379a0000000000000000000000000000000000000000000000000000000008152600401610a3290611366565b60405180910390fd5b80600160008573ffffffffffffffffffffffffffffffffffffffff1673ffffffffffffffffffffffffffffffffffffffff16815260200190815260200160002060008473ffffffffffffffffffffffffffffffffffffffff1673ffffffffffffffffffffffffffffffffffffffff168152602001908152602001600020819055508173ffffffffffffffffffffffffffffffffffffffff168373ffffffffffffffffffffffffffffffffffffffff167f8c5be1e5ebec7d5bd14f71427d1e84f3dd0314c0f7b2291e5b200ac8c7c3b92583604051610b199190611486565b60405180910390a3505050565b6000610b3284846107de565b90507fffffffffffffffffffffffffffffffffffffffffffffffffffffffffffffffff8114610bac5781811015610b9e576040517f08c379a0000000000000000000000000000000000000000000000000000000008152600401610b9590611386565b60405180910390fd5b610bab848484840361095b565b5b50505050565b600073ffffffffffffffffffffffffffffffffffffffff168373ffffffffffffffffffffffffffffffffffffffff161415610c22576040517f08c379a0000000000000000000000000000000000000000000000000000000008152600401610c1990611426565b60405180910390fd5b600073ffffffffffffffffffffffffffffffffffffffff168273ffffffffffffffffffffffffffffffffffffffff161415610c92576040517f08c379a0000000000000000000000000000000000000000000000000000000008152600401610c8990611326565b60405180910390fd5b610c9d838383610f77565b60008060008573ffffffffffffffffffffffffffffffffffffffff1673ffffffffffffffffffffffffffffffffffffffff16815260200190815260200160002054905081811015610d23576040517f08c379a0000000000000000000000000000000000000000000000000000000008152600401610d1a906113a6565b60405180910390fd5b8181036000808673ffffffffffffffffffffffffffffffffffffffff1673ffffffffffffffffffffffffffffffffffffffff16815260200190815260200160002081905550816000808573ffffffffffffffffffffffffffffffffffffffff1673ffffffffffffffffffffffffffffffffffffffff1681526020019081526020016000206000828254610db691906114d8565b925050819055508273ffffffffffffffffffffffffffffffffffffffff168473ffffffffffffffffffffffffffffffffffffffff167fddf252ad1be2c89b69c2b068fc378daa952ba7f163c4a11628f55a4df523b3ef84604051610e1a9190611486565b60405180910390a3610e2d848484610f7c565b50505050565b610e3b610953565b73ffffffffffffffffffffffffffffffffffffffff16610e59610611565b73ffffffffffffffffffffffffffffffffffffffff1614610eaf576040517f08c379a0000000000000000000000000000000000000000000000000000000008152600401610ea690611406565b60405180910390fd5b565b6000600560009054906101000a900473ffffffffffffffffffffffffffffffffffffffff16905081600560006101000a81548173ffffffffffffffffffffffffffffffffffffffff021916908373ffffffffffffffffffffffffffffffffffffffff1602179055508173ffffffffffffffffffffffffffffffffffffffff168173ffffffffffffffffffffffffffffffffffffffff167f8be0079c531659141344cd1fd0a4f28419497f9722a3daafe3b4186f6b6457e060405160405180910390a35050565b505050565b505050565b600081359050610f908161194f565b92915050565b600081359050610fa581611966565b92915050565b600060208284031215610fc157610fc0611646565b5b6000610fcf84828501610f81565b91505092915050565b60008060408385031215610fef57610fee611646565b5b6000610ffd85828601610f81565b925050602061100e85828601610f81565b9150509250929050565b60008060006060848603121561103157611030611646565b5b600061103f86828701610f81565b935050602061105086828701610f81565b925050604061106186828701610f96565b9150509250925092565b6000806040838503121561108257611081611646565b5b600061109085828601610f81565b92505060206110a185828601610f96565b9150509250929050565b6000602082840312156110c1576110c0611646565b5b60006110cf84828501610f96565b91505092915050565b6110e18161152e565b82525050565b6110f081611540565b82525050565b6000611101826114bc565b61110b81856114c7565b935061111b818560208601611583565b6111248161164b565b840191505092915050565b600061113c6023836114c7565b91506111478261165c565b604082019050919050565b600061115f6026836114c7565b915061116a826116ab565b604082019050919050565b60006111826022836114c7565b915061118d826116fa565b604082019050919050565b60006111a5601d836114c7565b91506111b082611749565b602082019050919050565b60006111c86026836114c7565b91506111d382611772565b604082019050919050565b60006111eb6015836114c7565b91506111f6826117c1565b602082019050919050565b600061120e6028836114c7565b9150611219826117ea565b604082019050919050565b60006112316020836114c7565b915061123c82611839565b602082019050919050565b60006112546025836114c7565b915061125f82611862565b604082019050919050565b60006112776024836114c7565b9150611282826118b1565b604082019050919050565b600061129a6025836114c7565b91506112a582611900565b604082019050919050565b6112b98161156c565b82525050565b6112c881611576565b82525050565b60006020820190506112e360008301846110d8565b92915050565b60006020820190506112fe60008301846110e7565b92915050565b6000602082019050818103600083015261131e81846110f6565b905092915050565b6000602082019050818103600083015261133f8161112f565b9050919050565b6000602082019050818103600083015261135f81611152565b9050919050565b6000602082019050818103600083015261137f81611175565b9050919050565b6000602082019050818103600083015261139f81611198565b9050919050565b600060208201905081810360008301526113bf816111bb565b9050919050565b600060208201905081810360008301526113df816111de565b9050919050565b600060208201905081810360008301526113ff81611201565b9050919050565b6000602082019050818103600083015261141f81611224565b9050919050565b6000602082019050818103600083015261143f81611247565b9050919050565b6000602082019050818103600083015261145f8161126a565b9050919050565b6000602082019050818103600083015261147f8161128d565b9050919050565b600060208201905061149b60008301846112b0565b92915050565b60006020820190506114b660008301846112bf565b92915050565b600081519050919050565b600082825260208201905092915050565b60006114e38261156c565b91506114ee8361156c565b9250827fffffffffffffffffffffffffffffffffffffffffffffffffffffffffffffffff03821115611523576115226115e8565b5b828201905092915050565b60006115398261154c565b9050919050565b60008115159050919050565b600073ffffffffffffffffffffffffffffffffffffffff82169050919050565b6000819050919050565b600060ff82169050919050565b60005b838110156115a1578082015181840152602081019050611586565b838111156115b0576000848401525b50505050565b600060028204905060018216806115ce57607f821691505b602082108114156115e2576115e1611617565b5b50919050565b7f4e487b7100000000000000000000000000000000000000000000000000000000600052601160045260246000fd5b7f4e487b7100000000000000000000000000000000000000000000000000000000600052602260045260246000fd5b600080fd5b6000601f19601f8301169050919050565b7f45524332303a207472616e7366657220746f20746865207a65726f206164647260008201527f6573730000000000000000000000000000000000000000000000000000000000602082015250565b7f4f776e61626c653a206e6577206f776e657220697320746865207a65726f206160008201527f6464726573730000000000000000000000000000000000000000000000000000602082015250565b7f45524332303a20617070726f766520746f20746865207a65726f20616464726560008201527f7373000000000000000000000000000000000000000000000000000000000000602082015250565b7f45524332303a20696e73756666696369656e7420616c6c6f77616e6365000000600082015250565b7f45524332303a207472616e7366657220616d6f756e742065786365656473206260008201527f616c616e63650000000000000000000000000000000000000000000000000000602082015250565b7f4552524f52202d20496e76616c69642056616c75650000000000000000000000600082015250565b7f4552524f52202d2054656d706f72617279205472616e73666572204c696d697460008201527f2052656163686564000000000000000000000000000000000000000000000000602082015250565b7f4f776e61626c653a2063616c6c6572206973206e6f7420746865206f776e6572600082015250565b7f45524332303a207472616e736665722066726f6d20746865207a65726f20616460008201527f6472657373000000000000000000000000000000000000000000000000000000602082015250565b7f45524332303a20617070726f76652066726f6d20746865207a65726f2061646460008201527f7265737300000000000000000000000000000000000000000000000000000000602082015250565b7f45524332303a2064656372656173656420616c6c6f77616e63652062656c6f7760008201527f207a65726f000000000000000000000000000000000000000000000000000000602082015250565b6119588161152e565b811461196357600080fd5b50565b61196f8161156c565b811461197a57600080fd5b5056fea2646970667358221220a57b7c7d1320f9ae0aa36c67564a2ac03b5c184d2e8f027b91542ca02183ac6564736f6c63430008070033",
					"opcodes": "PUSH1 0x80 PUSH1 0x40 MSTORE PUSH4 0x3B9ACA00 PUSH1 0x6 SSTORE PUSH1 0x0 PUSH1 0x7 PUSH1 0x0 PUSH2 0x100 EXP DUP2 SLOAD DUP2 PUSH1 0xFF MUL NOT AND SWAP1 DUP4 ISZERO ISZERO MUL OR SWAP1 SSTORE POP CALLVALUE DUP1 ISZERO PUSH3 0x34 JUMPI PUSH1 0x0 DUP1 REVERT JUMPDEST POP PUSH1 0x40 MLOAD DUP1 PUSH1 0x40 ADD PUSH1 0x40 MSTORE DUP1 PUSH1 0x4 DUP2 MSTORE PUSH1 0x20 ADD PUSH32 0x50696E6B00000000000000000000000000000000000000000000000000000000 DUP2 MSTORE POP PUSH1 0x40 MLOAD DUP1 PUSH1 0x40 ADD PUSH1 0x40 MSTORE DUP1 PUSH1 0x4 DUP2 MSTORE PUSH1 0x20 ADD PUSH32 0x50494E4B00000000000000000000000000000000000000000000000000000000 DUP2 MSTORE POP DUP2 PUSH1 0x3 SWAP1 DUP1 MLOAD SWAP1 PUSH1 0x20 ADD SWAP1 PUSH3 0xB9 SWAP3 SWAP2 SWAP1 PUSH3 0x3C8 JUMP JUMPDEST POP DUP1 PUSH1 0x4 SWAP1 DUP1 MLOAD SWAP1 PUSH1 0x20 ADD SWAP1 PUSH3 0xD2 SWAP3 SWAP2 SWAP1 PUSH3 0x3C8 JUMP JUMPDEST POP POP POP PUSH3 0xF5 PUSH3 0xE9 PUSH3 0x16E PUSH1 0x20 SHL PUSH1 0x20 SHR JUMP JUMPDEST PUSH3 0x176 PUSH1 0x20 SHL PUSH1 0x20 SHR JUMP JUMPDEST PUSH3 0x133 CALLER PUSH3 0x10A PUSH3 0x23C PUSH1 0x20 SHL PUSH1 0x20 SHR JUMP JUMPDEST PUSH1 0xA PUSH3 0x118 SWAP2 SWAP1 PUSH3 0x5B8 JUMP JUMPDEST PUSH1 0x6 SLOAD PUSH3 0x127 SWAP2 SWAP1 PUSH3 0x6F5 JUMP JUMPDEST PUSH3 0x245 PUSH1 0x20 SHL PUSH1 0x20 SHR JUMP JUMPDEST PUSH3 0x143 PUSH3 0x23C PUSH1 0x20 SHL PUSH1 0x20 SHR JUMP JUMPDEST PUSH1 0xA PUSH3 0x151 SWAP2 SWAP1 PUSH3 0x5B8 JUMP JUMPDEST PUSH4 0x17D7840 PUSH3 0x162 SWAP2 SWAP1 PUSH3 0x6F5 JUMP JUMPDEST PUSH1 0x8 DUP2 SWAP1 SSTORE POP PUSH3 0x837 JUMP JUMPDEST PUSH1 0x0 CALLER SWAP1 POP SWAP1 JUMP JUMPDEST PUSH1 0x0 PUSH1 0x5 PUSH1 0x0 SWAP1 SLOAD SWAP1 PUSH2 0x100 EXP SWAP1 DIV PUSH20 0xFFFFFFFFFFFFFFFFFFFFFFFFFFFFFFFFFFFFFFFF AND SWAP1 POP DUP2 PUSH1 0x5 PUSH1 0x0 PUSH2 0x100 EXP DUP2 SLOAD DUP2 PUSH20 0xFFFFFFFFFFFFFFFFFFFFFFFFFFFFFFFFFFFFFFFF MUL NOT AND SWAP1 DUP4 PUSH20 0xFFFFFFFFFFFFFFFFFFFFFFFFFFFFFFFFFFFFFFFF AND MUL OR SWAP1 SSTORE POP DUP2 PUSH20 0xFFFFFFFFFFFFFFFFFFFFFFFFFFFFFFFFFFFFFFFF AND DUP2 PUSH20 0xFFFFFFFFFFFFFFFFFFFFFFFFFFFFFFFFFFFFFFFF AND PUSH32 0x8BE0079C531659141344CD1FD0A4F28419497F9722A3DAAFE3B4186F6B6457E0 PUSH1 0x40 MLOAD PUSH1 0x40 MLOAD DUP1 SWAP2 SUB SWAP1 LOG3 POP POP JUMP JUMPDEST PUSH1 0x0 PUSH1 0x12 SWAP1 POP SWAP1 JUMP JUMPDEST PUSH1 0x0 PUSH20 0xFFFFFFFFFFFFFFFFFFFFFFFFFFFFFFFFFFFFFFFF AND DUP3 PUSH20 0xFFFFFFFFFFFFFFFFFFFFFFFFFFFFFFFFFFFFFFFF AND EQ ISZERO PUSH3 0x2B8 JUMPI PUSH1 0x40 MLOAD PUSH32 0x8C379A000000000000000000000000000000000000000000000000000000000 DUP2 MSTORE PUSH1 0x4 ADD PUSH3 0x2AF SWAP1 PUSH3 0x4B0 JUMP JUMPDEST PUSH1 0x40 MLOAD DUP1 SWAP2 SUB SWAP1 REVERT JUMPDEST PUSH3 0x2CC PUSH1 0x0 DUP4 DUP4 PUSH3 0x3BE PUSH1 0x20 SHL PUSH1 0x20 SHR JUMP JUMPDEST DUP1 PUSH1 0x2 PUSH1 0x0 DUP3 DUP3 SLOAD PUSH3 0x2E0 SWAP2 SWAP1 PUSH3 0x500 JUMP JUMPDEST SWAP3 POP POP DUP2 SWAP1 SSTORE POP DUP1 PUSH1 0x0 DUP1 DUP5 PUSH20 0xFFFFFFFFFFFFFFFFFFFFFFFFFFFFFFFFFFFFFFFF AND PUSH20 0xFFFFFFFFFFFFFFFFFFFFFFFFFFFFFFFFFFFFFFFF AND DUP2 MSTORE PUSH1 0x20 ADD SWAP1 DUP2 MSTORE PUSH1 0x20 ADD PUSH1 0x0 KECCAK256 PUSH1 0x0 DUP3 DUP3 SLOAD PUSH3 0x337 SWAP2 SWAP1 PUSH3 0x500 JUMP JUMPDEST SWAP3 POP POP DUP2 SWAP1 SSTORE POP DUP2 PUSH20 0xFFFFFFFFFFFFFFFFFFFFFFFFFFFFFFFFFFFFFFFF AND PUSH1 0x0 PUSH20 0xFFFFFFFFFFFFFFFFFFFFFFFFFFFFFFFFFFFFFFFF AND PUSH32 0xDDF252AD1BE2C89B69C2B068FC378DAA952BA7F163C4A11628F55A4DF523B3EF DUP4 PUSH1 0x40 MLOAD PUSH3 0x39E SWAP2 SWAP1 PUSH3 0x4D2 JUMP JUMPDEST PUSH1 0x40 MLOAD DUP1 SWAP2 SUB SWAP1 LOG3 PUSH3 0x3BA PUSH1 0x0 DUP4 DUP4 PUSH3 0x3C3 PUSH1 0x20 SHL PUSH1 0x20 SHR JUMP JUMPDEST POP POP JUMP JUMPDEST POP POP POP JUMP JUMPDEST POP POP POP JUMP JUMPDEST DUP3 DUP1 SLOAD PUSH3 0x3D6 SWAP1 PUSH3 0x76D JUMP JUMPDEST SWAP1 PUSH1 0x0 MSTORE PUSH1 0x20 PUSH1 0x0 KECCAK256 SWAP1 PUSH1 0x1F ADD PUSH1 0x20 SWAP1 DIV DUP2 ADD SWAP3 DUP3 PUSH3 0x3FA JUMPI PUSH1 0x0 DUP6 SSTORE PUSH3 0x446 JUMP JUMPDEST DUP3 PUSH1 0x1F LT PUSH3 0x415 JUMPI DUP1 MLOAD PUSH1 0xFF NOT AND DUP4 DUP1 ADD OR DUP6 SSTORE PUSH3 0x446 JUMP JUMPDEST DUP3 DUP1 ADD PUSH1 0x1 ADD DUP6 SSTORE DUP3 ISZERO PUSH3 0x446 JUMPI SWAP2 DUP3 ADD JUMPDEST DUP3 DUP2 GT ISZERO PUSH3 0x445 JUMPI DUP3 MLOAD DUP3 SSTORE SWAP2 PUSH1 0x20 ADD SWAP2 SWAP1 PUSH1 0x1 ADD SWAP1 PUSH3 0x428 JUMP JUMPDEST JUMPDEST POP SWAP1 POP PUSH3 0x455 SWAP2 SWAP1 PUSH3 0x459 JUMP JUMPDEST POP SWAP1 JUMP JUMPDEST JUMPDEST DUP1 DUP3 GT ISZERO PUSH3 0x474 JUMPI PUSH1 0x0 DUP2 PUSH1 0x0 SWAP1 SSTORE POP PUSH1 0x1 ADD PUSH3 0x45A JUMP JUMPDEST POP SWAP1 JUMP JUMPDEST PUSH1 0x0 PUSH3 0x487 PUSH1 0x1F DUP4 PUSH3 0x4EF JUMP JUMPDEST SWAP2 POP PUSH3 0x494 DUP3 PUSH3 0x80E JUMP JUMPDEST PUSH1 0x20 DUP3 ADD SWAP1 POP SWAP2 SWAP1 POP JUMP JUMPDEST PUSH3 0x4AA DUP2 PUSH3 0x756 JUMP JUMPDEST DUP3 MSTORE POP POP JUMP JUMPDEST PUSH1 0x0 PUSH1 0x20 DUP3 ADD SWAP1 POP DUP2 DUP2 SUB PUSH1 0x0 DUP4 ADD MSTORE PUSH3 0x4CB DUP2 PUSH3 0x478 JUMP JUMPDEST SWAP1 POP SWAP2 SWAP1 POP JUMP JUMPDEST PUSH1 0x0 PUSH1 0x20 DUP3 ADD SWAP1 POP PUSH3 0x4E9 PUSH1 0x0 DUP4 ADD DUP5 PUSH3 0x49F JUMP JUMPDEST SWAP3 SWAP2 POP POP JUMP JUMPDEST PUSH1 0x0 DUP3 DUP3 MSTORE PUSH1 0x20 DUP3 ADD SWAP1 POP SWAP3 SWAP2 POP POP JUMP JUMPDEST PUSH1 0x0 PUSH3 0x50D DUP3 PUSH3 0x756 JUMP JUMPDEST SWAP2 POP PUSH3 0x51A DUP4 PUSH3 0x756 JUMP JUMPDEST SWAP3 POP DUP3 PUSH32 0xFFFFFFFFFFFFFFFFFFFFFFFFFFFFFFFFFFFFFFFFFFFFFFFFFFFFFFFFFFFFFFFF SUB DUP3 GT ISZERO PUSH3 0x552 JUMPI PUSH3 0x551 PUSH3 0x7A3 JUMP JUMPDEST JUMPDEST DUP3 DUP3 ADD SWAP1 POP SWAP3 SWAP2 POP POP JUMP JUMPDEST PUSH1 0x0 DUP1 DUP3 SWAP2 POP DUP4 SWAP1 POP JUMPDEST PUSH1 0x1 DUP6 GT ISZERO PUSH3 0x5AF JUMPI DUP1 DUP7 DIV DUP2 GT ISZERO PUSH3 0x587 JUMPI PUSH3 0x586 PUSH3 0x7A3 JUMP JUMPDEST JUMPDEST PUSH1 0x1 DUP6 AND ISZERO PUSH3 0x597 JUMPI DUP1 DUP3 MUL SWAP2 POP JUMPDEST DUP1 DUP2 MUL SWAP1 POP PUSH3 0x5A7 DUP6 PUSH3 0x801 JUMP JUMPDEST SWAP5 POP PUSH3 0x567 JUMP JUMPDEST SWAP5 POP SWAP5 SWAP3 POP POP POP JUMP JUMPDEST PUSH1 0x0 PUSH3 0x5C5 DUP3 PUSH3 0x756 JUMP JUMPDEST SWAP2 POP PUSH3 0x5D2 DUP4 PUSH3 0x760 JUMP JUMPDEST SWAP3 POP PUSH3 0x601 PUSH32 0xFFFFFFFFFFFFFFFFFFFFFFFFFFFFFFFFFFFFFFFFFFFFFFFFFFFFFFFFFFFFFFFF DUP5 DUP5 PUSH3 0x609 JUMP JUMPDEST SWAP1 POP SWAP3 SWAP2 POP POP JUMP JUMPDEST PUSH1 0x0 DUP3 PUSH3 0x61B JUMPI PUSH1 0x1 SWAP1 POP PUSH3 0x6EE JUMP JUMPDEST DUP2 PUSH3 0x62B JUMPI PUSH1 0x0 SWAP1 POP PUSH3 0x6EE JUMP JUMPDEST DUP2 PUSH1 0x1 DUP2 EQ PUSH3 0x644 JUMPI PUSH1 0x2 DUP2 EQ PUSH3 0x64F JUMPI PUSH3 0x685 JUMP JUMPDEST PUSH1 0x1 SWAP2 POP POP PUSH3 0x6EE JUMP JUMPDEST PUSH1 0xFF DUP5 GT ISZERO PUSH3 0x664 JUMPI PUSH3 0x663 PUSH3 0x7A3 JUMP JUMPDEST JUMPDEST DUP4 PUSH1 0x2 EXP SWAP2 POP DUP5 DUP3 GT ISZERO PUSH3 0x67E JUMPI PUSH3 0x67D PUSH3 0x7A3 JUMP JUMPDEST JUMPDEST POP PUSH3 0x6EE JUMP JUMPDEST POP PUSH1 0x20 DUP4 LT PUSH2 0x133 DUP4 LT AND PUSH1 0x4E DUP5 LT PUSH1 0xB DUP5 LT AND OR ISZERO PUSH3 0x6BF JUMPI DUP3 DUP3 EXP SWAP1 POP DUP4 DUP2 GT ISZERO PUSH3 0x6B9 JUMPI PUSH3 0x6B8 PUSH3 0x7A3 JUMP JUMPDEST JUMPDEST PUSH3 0x6EE JUMP JUMPDEST PUSH3 0x6CE DUP5 DUP5 DUP5 PUSH1 0x1 PUSH3 0x55D JUMP JUMPDEST SWAP3 POP SWAP1 POP DUP2 DUP5 DIV DUP2 GT ISZERO PUSH3 0x6E8 JUMPI PUSH3 0x6E7 PUSH3 0x7A3 JUMP JUMPDEST JUMPDEST DUP2 DUP2 MUL SWAP1 POP JUMPDEST SWAP4 SWAP3 POP POP POP JUMP JUMPDEST PUSH1 0x0 PUSH3 0x702 DUP3 PUSH3 0x756 JUMP JUMPDEST SWAP2 POP PUSH3 0x70F DUP4 PUSH3 0x756 JUMP JUMPDEST SWAP3 POP DUP2 PUSH32 0xFFFFFFFFFFFFFFFFFFFFFFFFFFFFFFFFFFFFFFFFFFFFFFFFFFFFFFFFFFFFFFFF DIV DUP4 GT DUP3 ISZERO ISZERO AND ISZERO PUSH3 0x74B JUMPI PUSH3 0x74A PUSH3 0x7A3 JUMP JUMPDEST JUMPDEST DUP3 DUP3 MUL SWAP1 POP SWAP3 SWAP2 POP POP JUMP JUMPDEST PUSH1 0x0 DUP2 SWAP1 POP SWAP2 SWAP1 POP JUMP JUMPDEST PUSH1 0x0 PUSH1 0xFF DUP3 AND SWAP1 POP SWAP2 SWAP1 POP JUMP JUMPDEST PUSH1 0x0 PUSH1 0x2 DUP3 DIV SWAP1 POP PUSH1 0x1 DUP3 AND DUP1 PUSH3 0x786 JUMPI PUSH1 0x7F DUP3 AND SWAP2 POP JUMPDEST PUSH1 0x20 DUP3 LT DUP2 EQ ISZERO PUSH3 0x79D JUMPI PUSH3 0x79C PUSH3 0x7D2 JUMP JUMPDEST JUMPDEST POP SWAP2 SWAP1 POP JUMP JUMPDEST PUSH32 0x4E487B7100000000000000000000000000000000000000000000000000000000 PUSH1 0x0 MSTORE PUSH1 0x11 PUSH1 0x4 MSTORE PUSH1 0x24 PUSH1 0x0 REVERT JUMPDEST PUSH32 0x4E487B7100000000000000000000000000000000000000000000000000000000 PUSH1 0x0 MSTORE PUSH1 0x22 PUSH1 0x4 MSTORE PUSH1 0x24 PUSH1 0x0 REVERT JUMPDEST PUSH1 0x0 DUP2 PUSH1 0x1 SHR SWAP1 POP SWAP2 SWAP1 POP JUMP JUMPDEST PUSH32 0x45524332303A206D696E7420746F20746865207A65726F206164647265737300 PUSH1 0x0 DUP3 ADD MSTORE POP JUMP JUMPDEST PUSH2 0x19B3 DUP1 PUSH3 0x847 PUSH1 0x0 CODECOPY PUSH1 0x0 RETURN INVALID PUSH1 0x80 PUSH1 0x40 MSTORE CALLVALUE DUP1 ISZERO PUSH2 0x10 JUMPI PUSH1 0x0 DUP1 REVERT JUMPDEST POP PUSH1 0x4 CALLDATASIZE LT PUSH2 0x121 JUMPI PUSH1 0x0 CALLDATALOAD PUSH1 0xE0 SHR DUP1 PUSH4 0x715018A6 GT PUSH2 0xAD JUMPI DUP1 PUSH4 0xA4F0D7D0 GT PUSH2 0x71 JUMPI DUP1 PUSH4 0xA4F0D7D0 EQ PUSH2 0x310 JUMPI DUP1 PUSH4 0xA9059CBB EQ PUSH2 0x32E JUMPI DUP1 PUSH4 0xDD62ED3E EQ PUSH2 0x35E JUMPI DUP1 PUSH4 0xED246C66 EQ PUSH2 0x38E JUMPI DUP1 PUSH4 0xF2FDE38B EQ PUSH2 0x3BE JUMPI PUSH2 0x121 JUMP JUMPDEST DUP1 PUSH4 0x715018A6 EQ PUSH2 0x27C JUMPI DUP1 PUSH4 0x8DA5CB5B EQ PUSH2 0x286 JUMPI DUP1 PUSH4 0x95D89B41 EQ PUSH2 0x2A4 JUMPI DUP1 PUSH4 0x9D53827F EQ PUSH2 0x2C2 JUMPI DUP1 PUSH4 0xA457C2D7 EQ PUSH2 0x2E0 JUMPI PUSH2 0x121 JUMP JUMPDEST DUP1 PUSH4 0x313CE567 GT PUSH2 0xF4 JUMPI DUP1 PUSH4 0x313CE567 EQ PUSH2 0x1C2 JUMPI DUP1 PUSH4 0x32CB6B0C EQ PUSH2 0x1E0 JUMPI DUP1 PUSH4 0x39509351 EQ PUSH2 0x1FE JUMPI DUP1 PUSH4 0x6718161E EQ PUSH2 0x22E JUMPI DUP1 PUSH4 0x70A08231 EQ PUSH2 0x24C JUMPI PUSH2 0x121 JUMP JUMPDEST DUP1 PUSH4 0x6FDDE03 EQ PUSH2 0x126 JUMPI DUP1 PUSH4 0x95EA7B3 EQ PUSH2 0x144 JUMPI DUP1 PUSH4 0x18160DDD EQ PUSH2 0x174 JUMPI DUP1 PUSH4 0x23B872DD EQ PUSH2 0x192 JUMPI JUMPDEST PUSH1 0x0 DUP1 REVERT JUMPDEST PUSH2 0x12E PUSH2 0x3DA JUMP JUMPDEST PUSH1 0x40 MLOAD PUSH2 0x13B SWAP2 SWAP1 PUSH2 0x1304 JUMP JUMPDEST PUSH1 0x40 MLOAD DUP1 SWAP2 SUB SWAP1 RETURN JUMPDEST PUSH2 0x15E PUSH1 0x4 DUP1 CALLDATASIZE SUB DUP2 ADD SWAP1 PUSH2 0x159 SWAP2 SWAP1 PUSH2 0x106B JUMP JUMPDEST PUSH2 0x46C JUMP JUMPDEST PUSH1 0x40 MLOAD PUSH2 0x16B SWAP2 SWAP1 PUSH2 0x12E9 JUMP JUMPDEST PUSH1 0x40 MLOAD DUP1 SWAP2 SUB SWAP1 RETURN JUMPDEST PUSH2 0x17C PUSH2 0x48F JUMP JUMPDEST PUSH1 0x40 MLOAD PUSH2 0x189 SWAP2 SWAP1 PUSH2 0x1486 JUMP JUMPDEST PUSH1 0x40 MLOAD DUP1 SWAP2 SUB SWAP1 RETURN JUMPDEST PUSH2 0x1AC PUSH1 0x4 DUP1 CALLDATASIZE SUB DUP2 ADD SWAP1 PUSH2 0x1A7 SWAP2 SWAP1 PUSH2 0x1018 JUMP JUMPDEST PUSH2 0x499 JUMP JUMPDEST PUSH1 0x40 MLOAD PUSH2 0x1B9 SWAP2 SWAP1 PUSH2 0x12E9 JUMP JUMPDEST PUSH1 0x40 MLOAD DUP1 SWAP2 SUB SWAP1 RETURN JUMPDEST PUSH2 0x1CA PUSH2 0x526 JUMP JUMPDEST PUSH1 0x40 MLOAD PUSH2 0x1D7 SWAP2 SWAP1 PUSH2 0x14A1 JUMP JUMPDEST PUSH1 0x40 MLOAD DUP1 SWAP2 SUB SWAP1 RETURN JUMPDEST PUSH2 0x1E8 PUSH2 0x52F JUMP JUMPDEST PUSH1 0x40 MLOAD PUSH2 0x1F5 SWAP2 SWAP1 PUSH2 0x1486 JUMP JUMPDEST PUSH1 0x40 MLOAD DUP1 SWAP2 SUB SWAP1 RETURN JUMPDEST PUSH2 0x218 PUSH1 0x4 DUP1 CALLDATASIZE SUB DUP2 ADD SWAP1 PUSH2 0x213 SWAP2 SWAP1 PUSH2 0x106B JUMP JUMPDEST PUSH2 0x535 JUMP JUMPDEST PUSH1 0x40 MLOAD PUSH2 0x225 SWAP2 SWAP1 PUSH2 0x12E9 JUMP JUMPDEST PUSH1 0x40 MLOAD DUP1 SWAP2 SUB SWAP1 RETURN JUMPDEST PUSH2 0x236 PUSH2 0x56C JUMP JUMPDEST PUSH1 0x40 MLOAD PUSH2 0x243 SWAP2 SWAP1 PUSH2 0x12E9 JUMP JUMPDEST PUSH1 0x40 MLOAD DUP1 SWAP2 SUB SWAP1 RETURN JUMPDEST PUSH2 0x266 PUSH1 0x4 DUP1 CALLDATASIZE SUB DUP2 ADD SWAP1 PUSH2 0x261 SWAP2 SWAP1 PUSH2 0xFAB JUMP JUMPDEST PUSH2 0x5B5 JUMP JUMPDEST PUSH1 0x40 MLOAD PUSH2 0x273 SWAP2 SWAP1 PUSH2 0x1486 JUMP JUMPDEST PUSH1 0x40 MLOAD DUP1 SWAP2 SUB SWAP1 RETURN JUMPDEST PUSH2 0x284 PUSH2 0x5FD JUMP JUMPDEST STOP JUMPDEST PUSH2 0x28E PUSH2 0x611 JUMP JUMPDEST PUSH1 0x40 MLOAD PUSH2 0x29B SWAP2 SWAP1 PUSH2 0x12CE JUMP JUMPDEST PUSH1 0x40 MLOAD DUP1 SWAP2 SUB SWAP1 RETURN JUMPDEST PUSH2 0x2AC PUSH2 0x63B JUMP JUMPDEST PUSH1 0x40 MLOAD PUSH2 0x2B9 SWAP2 SWAP1 PUSH2 0x1304 JUMP JUMPDEST PUSH1 0x40 MLOAD DUP1 SWAP2 SUB SWAP1 RETURN JUMPDEST PUSH2 0x2CA PUSH2 0x6CD JUMP JUMPDEST PUSH1 0x40 MLOAD PUSH2 0x2D7 SWAP2 SWAP1 PUSH2 0x1486 JUMP JUMPDEST PUSH1 0x40 MLOAD DUP1 SWAP2 SUB SWAP1 RETURN JUMPDEST PUSH2 0x2FA PUSH1 0x4 DUP1 CALLDATASIZE SUB DUP2 ADD SWAP1 PUSH2 0x2F5 SWAP2 SWAP1 PUSH2 0x106B JUMP JUMPDEST PUSH2 0x6D3 JUMP JUMPDEST PUSH1 0x40 MLOAD PUSH2 0x307 SWAP2 SWAP1 PUSH2 0x12E9 JUMP JUMPDEST PUSH1 0x40 MLOAD DUP1 SWAP2 SUB SWAP1 RETURN JUMPDEST PUSH2 0x318 PUSH2 0x74A JUMP JUMPDEST PUSH1 0x40 MLOAD PUSH2 0x325 SWAP2 SWAP1 PUSH2 0x12E9 JUMP JUMPDEST PUSH1 0x40 MLOAD DUP1 SWAP2 SUB SWAP1 RETURN JUMPDEST PUSH2 0x348 PUSH1 0x4 DUP1 CALLDATASIZE SUB DUP2 ADD SWAP1 PUSH2 0x343 SWAP2 SWAP1 PUSH2 0x106B JUMP JUMPDEST PUSH2 0x75D JUMP JUMPDEST PUSH1 0x40 MLOAD PUSH2 0x355 SWAP2 SWAP1 PUSH2 0x12E9 JUMP JUMPDEST PUSH1 0x40 MLOAD DUP1 SWAP2 SUB SWAP1 RETURN JUMPDEST PUSH2 0x378 PUSH1 0x4 DUP1 CALLDATASIZE SUB DUP2 ADD SWAP1 PUSH2 0x373 SWAP2 SWAP1 PUSH2 0xFD8 JUMP JUMPDEST PUSH2 0x7DE JUMP JUMPDEST PUSH1 0x40 MLOAD PUSH2 0x385 SWAP2 SWAP1 PUSH2 0x1486 JUMP JUMPDEST PUSH1 0x40 MLOAD DUP1 SWAP2 SUB SWAP1 RETURN JUMPDEST PUSH2 0x3A8 PUSH1 0x4 DUP1 CALLDATASIZE SUB DUP2 ADD SWAP1 PUSH2 0x3A3 SWAP2 SWAP1 PUSH2 0x10AB JUMP JUMPDEST PUSH2 0x865 JUMP JUMPDEST PUSH1 0x40 MLOAD PUSH2 0x3B5 SWAP2 SWAP1 PUSH2 0x1486 JUMP JUMPDEST PUSH1 0x40 MLOAD DUP1 SWAP2 SUB SWAP1 RETURN JUMPDEST PUSH2 0x3D8 PUSH1 0x4 DUP1 CALLDATASIZE SUB DUP2 ADD SWAP1 PUSH2 0x3D3 SWAP2 SWAP1 PUSH2 0xFAB JUMP JUMPDEST PUSH2 0x8CF JUMP JUMPDEST STOP JUMPDEST PUSH1 0x60 PUSH1 0x3 DUP1 SLOAD PUSH2 0x3E9 SWAP1 PUSH2 0x15B6 JUMP JUMPDEST DUP1 PUSH1 0x1F ADD PUSH1 0x20 DUP1 SWAP2 DIV MUL PUSH1 0x20 ADD PUSH1 0x40 MLOAD SWAP1 DUP2 ADD PUSH1 0x40 MSTORE DUP1 SWAP3 SWAP2 SWAP1 DUP2 DUP2 MSTORE PUSH1 0x20 ADD DUP3 DUP1 SLOAD PUSH2 0x415 SWAP1 PUSH2 0x15B6 JUMP JUMPDEST DUP1 ISZERO PUSH2 0x462 JUMPI DUP1 PUSH1 0x1F LT PUSH2 0x437 JUMPI PUSH2 0x100 DUP1 DUP4 SLOAD DIV MUL DUP4 MSTORE SWAP2 PUSH1 0x20 ADD SWAP2 PUSH2 0x462 JUMP JUMPDEST DUP3 ADD SWAP2 SWAP1 PUSH1 0x0 MSTORE PUSH1 0x20 PUSH1 0x0 KECCAK256 SWAP1 JUMPDEST DUP2 SLOAD DUP2 MSTORE SWAP1 PUSH1 0x1 ADD SWAP1 PUSH1 0x20 ADD DUP1 DUP4 GT PUSH2 0x445 JUMPI DUP3 SWAP1 SUB PUSH1 0x1F AND DUP3 ADD SWAP2 JUMPDEST POP POP POP POP POP SWAP1 POP SWAP1 JUMP JUMPDEST PUSH1 0x0 DUP1 PUSH2 0x477 PUSH2 0x953 JUMP JUMPDEST SWAP1 POP PUSH2 0x484 DUP2 DUP6 DUP6 PUSH2 0x95B JUMP JUMPDEST PUSH1 0x1 SWAP2 POP POP SWAP3 SWAP2 POP POP JUMP JUMPDEST PUSH1 0x0 PUSH1 0x2 SLOAD SWAP1 POP SWAP1 JUMP JUMPDEST PUSH1 0x0 PUSH1 0x7 PUSH1 0x0 SWAP1 SLOAD SWAP1 PUSH2 0x100 EXP SWAP1 DIV PUSH1 0xFF AND ISZERO DUP1 PUSH2 0x4B9 JUMPI POP PUSH1 0x8 SLOAD DUP3 GT ISZERO JUMPDEST PUSH2 0x4F8 JUMPI PUSH1 0x40 MLOAD PUSH32 0x8C379A000000000000000000000000000000000000000000000000000000000 DUP2 MSTORE PUSH1 0x4 ADD PUSH2 0x4EF SWAP1 PUSH2 0x13E6 JUMP JUMPDEST PUSH1 0x40 MLOAD DUP1 SWAP2 SUB SWAP1 REVERT JUMPDEST PUSH1 0x0 PUSH2 0x502 PUSH2 0x953 JUMP JUMPDEST SWAP1 POP PUSH2 0x50F DUP6 DUP3 DUP6 PUSH2 0xB26 JUMP JUMPDEST PUSH2 0x51A DUP6 DUP6 DUP6 PUSH2 0xBB2 JUMP JUMPDEST PUSH1 0x1 SWAP2 POP POP SWAP4 SWAP3 POP POP POP JUMP JUMPDEST PUSH1 0x0 PUSH1 0x12 SWAP1 POP SWAP1 JUMP JUMPDEST PUSH1 0x6 SLOAD DUP2 JUMP JUMPDEST PUSH1 0x0 DUP1 PUSH2 0x540 PUSH2 0x953 JUMP JUMPDEST SWAP1 POP PUSH2 0x561 DUP2 DUP6 DUP6 PUSH2 0x552 DUP6 DUP10 PUSH2 0x7DE JUMP JUMPDEST PUSH2 0x55C SWAP2 SWAP1 PUSH2 0x14D8 JUMP JUMPDEST PUSH2 0x95B JUMP JUMPDEST PUSH1 0x1 SWAP2 POP POP SWAP3 SWAP2 POP POP JUMP JUMPDEST PUSH1 0x0 PUSH2 0x576 PUSH2 0xE33 JUMP JUMPDEST PUSH1 0x7 PUSH1 0x0 SWAP1 SLOAD SWAP1 PUSH2 0x100 EXP SWAP1 DIV PUSH1 0xFF AND ISZERO PUSH1 0x7 PUSH1 0x0 PUSH2 0x100 EXP DUP2 SLOAD DUP2 PUSH1 0xFF MUL NOT AND SWAP1 DUP4 ISZERO ISZERO MUL OR SWAP1 SSTORE POP PUSH1 0x7 PUSH1 0x0 SWAP1 SLOAD SWAP1 PUSH2 0x100 EXP SWAP1 DIV PUSH1 0xFF AND SWAP1 POP SWAP1 JUMP JUMPDEST PUSH1 0x0 DUP1 PUSH1 0x0 DUP4 PUSH20 0xFFFFFFFFFFFFFFFFFFFFFFFFFFFFFFFFFFFFFFFF AND PUSH20 0xFFFFFFFFFFFFFFFFFFFFFFFFFFFFFFFFFFFFFFFF AND DUP2 MSTORE PUSH1 0x20 ADD SWAP1 DUP2 MSTORE PUSH1 0x20 ADD PUSH1 0x0 KECCAK256 SLOAD SWAP1 POP SWAP2 SWAP1 POP JUMP JUMPDEST PUSH2 0x605 PUSH2 0xE33 JUMP JUMPDEST PUSH2 0x60F PUSH1 0x0 PUSH2 0xEB1 JUMP JUMPDEST JUMP JUMPDEST PUSH1 0x0 PUSH1 0x5 PUSH1 0x0 SWAP1 SLOAD SWAP1 PUSH2 0x100 EXP SWAP1 DIV PUSH20 0xFFFFFFFFFFFFFFFFFFFFFFFFFFFFFFFFFFFFFFFF AND SWAP1 POP SWAP1 JUMP JUMPDEST PUSH1 0x60 PUSH1 0x4 DUP1 SLOAD PUSH2 0x64A SWAP1 PUSH2 0x15B6 JUMP JUMPDEST DUP1 PUSH1 0x1F ADD PUSH1 0x20 DUP1 SWAP2 DIV MUL PUSH1 0x20 ADD PUSH1 0x40 MLOAD SWAP1 DUP2 ADD PUSH1 0x40 MSTORE DUP1 SWAP3 SWAP2 SWAP1 DUP2 DUP2 MSTORE PUSH1 0x20 ADD DUP3 DUP1 SLOAD PUSH2 0x676 SWAP1 PUSH2 0x15B6 JUMP JUMPDEST DUP1 ISZERO PUSH2 0x6C3 JUMPI DUP1 PUSH1 0x1F LT PUSH2 0x698 JUMPI PUSH2 0x100 DUP1 DUP4 SLOAD DIV MUL DUP4 MSTORE SWAP2 PUSH1 0x20 ADD SWAP2 PUSH2 0x6C3 JUMP JUMPDEST DUP3 ADD SWAP2 SWAP1 PUSH1 0x0 MSTORE PUSH1 0x20 PUSH1 0x0 KECCAK256 SWAP1 JUMPDEST DUP2 SLOAD DUP2 MSTORE SWAP1 PUSH1 0x1 ADD SWAP1 PUSH1 0x20 ADD DUP1 DUP4 GT PUSH2 0x6A6 JUMPI DUP3 SWAP1 SUB PUSH1 0x1F AND DUP3 ADD SWAP2 JUMPDEST POP POP POP POP POP SWAP1 POP SWAP1 JUMP JUMPDEST PUSH1 0x8 SLOAD DUP2 JUMP JUMPDEST PUSH1 0x0 DUP1 PUSH2 0x6DE PUSH2 0x953 JUMP JUMPDEST SWAP1 POP PUSH1 0x0 PUSH2 0x6EC DUP3 DUP7 PUSH2 0x7DE JUMP JUMPDEST SWAP1 POP DUP4 DUP2 LT ISZERO PUSH2 0x731 JUMPI PUSH1 0x40 MLOAD PUSH32 0x8C379A000000000000000000000000000000000000000000000000000000000 DUP2 MSTORE PUSH1 0x4 ADD PUSH2 0x728 SWAP1 PUSH2 0x1466 JUMP JUMPDEST PUSH1 0x40 MLOAD DUP1 SWAP2 SUB SWAP1 REVERT JUMPDEST PUSH2 0x73E DUP3 DUP7 DUP7 DUP5 SUB PUSH2 0x95B JUMP JUMPDEST PUSH1 0x1 SWAP3 POP POP POP SWAP3 SWAP2 POP POP JUMP JUMPDEST PUSH1 0x7 PUSH1 0x0 SWAP1 SLOAD SWAP1 PUSH2 0x100 EXP SWAP1 DIV PUSH1 0xFF AND DUP2 JUMP JUMPDEST PUSH1 0x0 PUSH1 0x7 PUSH1 0x0 SWAP1 SLOAD SWAP1 PUSH2 0x100 EXP SWAP1 DIV PUSH1 0xFF AND ISZERO DUP1 PUSH2 0x77D JUMPI POP PUSH1 0x8 SLOAD DUP3 GT ISZERO JUMPDEST PUSH2 0x7BC JUMPI PUSH1 0x40 MLOAD PUSH32 0x8C379A000000000000000000000000000000000000000000000000000000000 DUP2 MSTORE PUSH1 0x4 ADD PUSH2 0x7B3 SWAP1 PUSH2 0x13E6 JUMP JUMPDEST PUSH1 0x40 MLOAD DUP1 SWAP2 SUB SWAP1 REVERT JUMPDEST PUSH1 0x0 PUSH2 0x7C6 PUSH2 0x953 JUMP JUMPDEST SWAP1 POP PUSH2 0x7D3 DUP2 DUP6 DUP6 PUSH2 0xBB2 JUMP JUMPDEST PUSH1 0x1 SWAP2 POP POP SWAP3 SWAP2 POP POP JUMP JUMPDEST PUSH1 0x0 PUSH1 0x1 PUSH1 0x0 DUP5 PUSH20 0xFFFFFFFFFFFFFFFFFFFFFFFFFFFFFFFFFFFFFFFF AND PUSH20 0xFFFFFFFFFFFFFFFFFFFFFFFFFFFFFFFFFFFFFFFF AND DUP2 MSTORE PUSH1 0x20 ADD SWAP1 DUP2 MSTORE PUSH1 0x20 ADD PUSH1 0x0 KECCAK256 PUSH1 0x0 DUP4 PUSH20 0xFFFFFFFFFFFFFFFFFFFFFFFFFFFFFFFFFFFFFFFF AND PUSH20 0xFFFFFFFFFFFFFFFFFFFFFFFFFFFFFFFFFFFFFFFF AND DUP2 MSTORE PUSH1 0x20 ADD SWAP1 DUP2 MSTORE PUSH1 0x20 ADD PUSH1 0x0 KECCAK256 SLOAD SWAP1 POP SWAP3 SWAP2 POP POP JUMP JUMPDEST PUSH1 0x0 PUSH2 0x86F PUSH2 0xE33 JUMP JUMPDEST PUSH1 0x6 SLOAD DUP3 GT ISZERO DUP1 PUSH2 0x881 JUMPI POP PUSH1 0x0 DUP3 LT ISZERO JUMPDEST PUSH2 0x8C0 JUMPI PUSH1 0x40 MLOAD PUSH32 0x8C379A000000000000000000000000000000000000000000000000000000000 DUP2 MSTORE PUSH1 0x4 ADD PUSH2 0x8B7 SWAP1 PUSH2 0x13C6 JUMP JUMPDEST PUSH1 0x40 MLOAD DUP1 SWAP2 SUB SWAP1 REVERT JUMPDEST DUP2 PUSH1 0x8 DUP2 SWAP1 SSTORE POP DUP2 SWAP1 POP SWAP2 SWAP1 POP JUMP JUMPDEST PUSH2 0x8D7 PUSH2 0xE33 JUMP JUMPDEST PUSH1 0x0 PUSH20 0xFFFFFFFFFFFFFFFFFFFFFFFFFFFFFFFFFFFFFFFF AND DUP2 PUSH20 0xFFFFFFFFFFFFFFFFFFFFFFFFFFFFFFFFFFFFFFFF AND EQ ISZERO PUSH2 0x947 JUMPI PUSH1 0x40 MLOAD PUSH32 0x8C379A000000000000000000000000000000000000000000000000000000000 DUP2 MSTORE PUSH1 0x4 ADD PUSH2 0x93E SWAP1 PUSH2 0x1346 JUMP JUMPDEST PUSH1 0x40 MLOAD DUP1 SWAP2 SUB SWAP1 REVERT JUMPDEST PUSH2 0x950 DUP2 PUSH2 0xEB1 JUMP JUMPDEST POP JUMP JUMPDEST PUSH1 0x0 CALLER SWAP1 POP SWAP1 JUMP JUMPDEST PUSH1 0x0 PUSH20 0xFFFFFFFFFFFFFFFFFFFFFFFFFFFFFFFFFFFFFFFF AND DUP4 PUSH20 0xFFFFFFFFFFFFFFFFFFFFFFFFFFFFFFFFFFFFFFFF AND EQ ISZERO PUSH2 0x9CB JUMPI PUSH1 0x40 MLOAD PUSH32 0x8C379A000000000000000000000000000000000000000000000000000000000 DUP2 MSTORE PUSH1 0x4 ADD PUSH2 0x9C2 SWAP1 PUSH2 0x1446 JUMP JUMPDEST PUSH1 0x40 MLOAD DUP1 SWAP2 SUB SWAP1 REVERT JUMPDEST PUSH1 0x0 PUSH20 0xFFFFFFFFFFFFFFFFFFFFFFFFFFFFFFFFFFFFFFFF AND DUP3 PUSH20 0xFFFFFFFFFFFFFFFFFFFFFFFFFFFFFFFFFFFFFFFF AND EQ ISZERO PUSH2 0xA3B JUMPI PUSH1 0x40 MLOAD PUSH32 0x8C379A000000000000000000000000000000000000000000000000000000000 DUP2 MSTORE PUSH1 0x4 ADD PUSH2 0xA32 SWAP1 PUSH2 0x1366 JUMP JUMPDEST PUSH1 0x40 MLOAD DUP1 SWAP2 SUB SWAP1 REVERT JUMPDEST DUP1 PUSH1 0x1 PUSH1 0x0 DUP6 PUSH20 0xFFFFFFFFFFFFFFFFFFFFFFFFFFFFFFFFFFFFFFFF AND PUSH20 0xFFFFFFFFFFFFFFFFFFFFFFFFFFFFFFFFFFFFFFFF AND DUP2 MSTORE PUSH1 0x20 ADD SWAP1 DUP2 MSTORE PUSH1 0x20 ADD PUSH1 0x0 KECCAK256 PUSH1 0x0 DUP5 PUSH20 0xFFFFFFFFFFFFFFFFFFFFFFFFFFFFFFFFFFFFFFFF AND PUSH20 0xFFFFFFFFFFFFFFFFFFFFFFFFFFFFFFFFFFFFFFFF AND DUP2 MSTORE PUSH1 0x20 ADD SWAP1 DUP2 MSTORE PUSH1 0x20 ADD PUSH1 0x0 KECCAK256 DUP2 SWAP1 SSTORE POP DUP2 PUSH20 0xFFFFFFFFFFFFFFFFFFFFFFFFFFFFFFFFFFFFFFFF AND DUP4 PUSH20 0xFFFFFFFFFFFFFFFFFFFFFFFFFFFFFFFFFFFFFFFF AND PUSH32 0x8C5BE1E5EBEC7D5BD14F71427D1E84F3DD0314C0F7B2291E5B200AC8C7C3B925 DUP4 PUSH1 0x40 MLOAD PUSH2 0xB19 SWAP2 SWAP1 PUSH2 0x1486 JUMP JUMPDEST PUSH1 0x40 MLOAD DUP1 SWAP2 SUB SWAP1 LOG3 POP POP POP JUMP JUMPDEST PUSH1 0x0 PUSH2 0xB32 DUP5 DUP5 PUSH2 0x7DE JUMP JUMPDEST SWAP1 POP PUSH32 0xFFFFFFFFFFFFFFFFFFFFFFFFFFFFFFFFFFFFFFFFFFFFFFFFFFFFFFFFFFFFFFFF DUP2 EQ PUSH2 0xBAC JUMPI DUP2 DUP2 LT ISZERO PUSH2 0xB9E JUMPI PUSH1 0x40 MLOAD PUSH32 0x8C379A000000000000000000000000000000000000000000000000000000000 DUP2 MSTORE PUSH1 0x4 ADD PUSH2 0xB95 SWAP1 PUSH2 0x1386 JUMP JUMPDEST PUSH1 0x40 MLOAD DUP1 SWAP2 SUB SWAP1 REVERT JUMPDEST PUSH2 0xBAB DUP5 DUP5 DUP5 DUP5 SUB PUSH2 0x95B JUMP JUMPDEST JUMPDEST POP POP POP POP JUMP JUMPDEST PUSH1 0x0 PUSH20 0xFFFFFFFFFFFFFFFFFFFFFFFFFFFFFFFFFFFFFFFF AND DUP4 PUSH20 0xFFFFFFFFFFFFFFFFFFFFFFFFFFFFFFFFFFFFFFFF AND EQ ISZERO PUSH2 0xC22 JUMPI PUSH1 0x40 MLOAD PUSH32 0x8C379A000000000000000000000000000000000000000000000000000000000 DUP2 MSTORE PUSH1 0x4 ADD PUSH2 0xC19 SWAP1 PUSH2 0x1426 JUMP JUMPDEST PUSH1 0x40 MLOAD DUP1 SWAP2 SUB SWAP1 REVERT JUMPDEST PUSH1 0x0 PUSH20 0xFFFFFFFFFFFFFFFFFFFFFFFFFFFFFFFFFFFFFFFF AND DUP3 PUSH20 0xFFFFFFFFFFFFFFFFFFFFFFFFFFFFFFFFFFFFFFFF AND EQ ISZERO PUSH2 0xC92 JUMPI PUSH1 0x40 MLOAD PUSH32 0x8C379A000000000000000000000000000000000000000000000000000000000 DUP2 MSTORE PUSH1 0x4 ADD PUSH2 0xC89 SWAP1 PUSH2 0x1326 JUMP JUMPDEST PUSH1 0x40 MLOAD DUP1 SWAP2 SUB SWAP1 REVERT JUMPDEST PUSH2 0xC9D DUP4 DUP4 DUP4 PUSH2 0xF77 JUMP JUMPDEST PUSH1 0x0 DUP1 PUSH1 0x0 DUP6 PUSH20 0xFFFFFFFFFFFFFFFFFFFFFFFFFFFFFFFFFFFFFFFF AND PUSH20 0xFFFFFFFFFFFFFFFFFFFFFFFFFFFFFFFFFFFFFFFF AND DUP2 MSTORE PUSH1 0x20 ADD SWAP1 DUP2 MSTORE PUSH1 0x20 ADD PUSH1 0x0 KECCAK256 SLOAD SWAP1 POP DUP2 DUP2 LT ISZERO PUSH2 0xD23 JUMPI PUSH1 0x40 MLOAD PUSH32 0x8C379A000000000000000000000000000000000000000000000000000000000 DUP2 MSTORE PUSH1 0x4 ADD PUSH2 0xD1A SWAP1 PUSH2 0x13A6 JUMP JUMPDEST PUSH1 0x40 MLOAD DUP1 SWAP2 SUB SWAP1 REVERT JUMPDEST DUP2 DUP2 SUB PUSH1 0x0 DUP1 DUP7 PUSH20 0xFFFFFFFFFFFFFFFFFFFFFFFFFFFFFFFFFFFFFFFF AND PUSH20 0xFFFFFFFFFFFFFFFFFFFFFFFFFFFFFFFFFFFFFFFF AND DUP2 MSTORE PUSH1 0x20 ADD SWAP1 DUP2 MSTORE PUSH1 0x20 ADD PUSH1 0x0 KECCAK256 DUP2 SWAP1 SSTORE POP DUP2 PUSH1 0x0 DUP1 DUP6 PUSH20 0xFFFFFFFFFFFFFFFFFFFFFFFFFFFFFFFFFFFFFFFF AND PUSH20 0xFFFFFFFFFFFFFFFFFFFFFFFFFFFFFFFFFFFFFFFF AND DUP2 MSTORE PUSH1 0x20 ADD SWAP1 DUP2 MSTORE PUSH1 0x20 ADD PUSH1 0x0 KECCAK256 PUSH1 0x0 DUP3 DUP3 SLOAD PUSH2 0xDB6 SWAP2 SWAP1 PUSH2 0x14D8 JUMP JUMPDEST SWAP3 POP POP DUP2 SWAP1 SSTORE POP DUP3 PUSH20 0xFFFFFFFFFFFFFFFFFFFFFFFFFFFFFFFFFFFFFFFF AND DUP5 PUSH20 0xFFFFFFFFFFFFFFFFFFFFFFFFFFFFFFFFFFFFFFFF AND PUSH32 0xDDF252AD1BE2C89B69C2B068FC378DAA952BA7F163C4A11628F55A4DF523B3EF DUP5 PUSH1 0x40 MLOAD PUSH2 0xE1A SWAP2 SWAP1 PUSH2 0x1486 JUMP JUMPDEST PUSH1 0x40 MLOAD DUP1 SWAP2 SUB SWAP1 LOG3 PUSH2 0xE2D DUP5 DUP5 DUP5 PUSH2 0xF7C JUMP JUMPDEST POP POP POP POP JUMP JUMPDEST PUSH2 0xE3B PUSH2 0x953 JUMP JUMPDEST PUSH20 0xFFFFFFFFFFFFFFFFFFFFFFFFFFFFFFFFFFFFFFFF AND PUSH2 0xE59 PUSH2 0x611 JUMP JUMPDEST PUSH20 0xFFFFFFFFFFFFFFFFFFFFFFFFFFFFFFFFFFFFFFFF AND EQ PUSH2 0xEAF JUMPI PUSH1 0x40 MLOAD PUSH32 0x8C379A000000000000000000000000000000000000000000000000000000000 DUP2 MSTORE PUSH1 0x4 ADD PUSH2 0xEA6 SWAP1 PUSH2 0x1406 JUMP JUMPDEST PUSH1 0x40 MLOAD DUP1 SWAP2 SUB SWAP1 REVERT JUMPDEST JUMP JUMPDEST PUSH1 0x0 PUSH1 0x5 PUSH1 0x0 SWAP1 SLOAD SWAP1 PUSH2 0x100 EXP SWAP1 DIV PUSH20 0xFFFFFFFFFFFFFFFFFFFFFFFFFFFFFFFFFFFFFFFF AND SWAP1 POP DUP2 PUSH1 0x5 PUSH1 0x0 PUSH2 0x100 EXP DUP2 SLOAD DUP2 PUSH20 0xFFFFFFFFFFFFFFFFFFFFFFFFFFFFFFFFFFFFFFFF MUL NOT AND SWAP1 DUP4 PUSH20 0xFFFFFFFFFFFFFFFFFFFFFFFFFFFFFFFFFFFFFFFF AND MUL OR SWAP1 SSTORE POP DUP2 PUSH20 0xFFFFFFFFFFFFFFFFFFFFFFFFFFFFFFFFFFFFFFFF AND DUP2 PUSH20 0xFFFFFFFFFFFFFFFFFFFFFFFFFFFFFFFFFFFFFFFF AND PUSH32 0x8BE0079C531659141344CD1FD0A4F28419497F9722A3DAAFE3B4186F6B6457E0 PUSH1 0x40 MLOAD PUSH1 0x40 MLOAD DUP1 SWAP2 SUB SWAP1 LOG3 POP POP JUMP JUMPDEST POP POP POP JUMP JUMPDEST POP POP POP JUMP JUMPDEST PUSH1 0x0 DUP2 CALLDATALOAD SWAP1 POP PUSH2 0xF90 DUP2 PUSH2 0x194F JUMP JUMPDEST SWAP3 SWAP2 POP POP JUMP JUMPDEST PUSH1 0x0 DUP2 CALLDATALOAD SWAP1 POP PUSH2 0xFA5 DUP2 PUSH2 0x1966 JUMP JUMPDEST SWAP3 SWAP2 POP POP JUMP JUMPDEST PUSH1 0x0 PUSH1 0x20 DUP3 DUP5 SUB SLT ISZERO PUSH2 0xFC1 JUMPI PUSH2 0xFC0 PUSH2 0x1646 JUMP JUMPDEST JUMPDEST PUSH1 0x0 PUSH2 0xFCF DUP5 DUP3 DUP6 ADD PUSH2 0xF81 JUMP JUMPDEST SWAP2 POP POP SWAP3 SWAP2 POP POP JUMP JUMPDEST PUSH1 0x0 DUP1 PUSH1 0x40 DUP4 DUP6 SUB SLT ISZERO PUSH2 0xFEF JUMPI PUSH2 0xFEE PUSH2 0x1646 JUMP JUMPDEST JUMPDEST PUSH1 0x0 PUSH2 0xFFD DUP6 DUP3 DUP7 ADD PUSH2 0xF81 JUMP JUMPDEST SWAP3 POP POP PUSH1 0x20 PUSH2 0x100E DUP6 DUP3 DUP7 ADD PUSH2 0xF81 JUMP JUMPDEST SWAP2 POP POP SWAP3 POP SWAP3 SWAP1 POP JUMP JUMPDEST PUSH1 0x0 DUP1 PUSH1 0x0 PUSH1 0x60 DUP5 DUP7 SUB SLT ISZERO PUSH2 0x1031 JUMPI PUSH2 0x1030 PUSH2 0x1646 JUMP JUMPDEST JUMPDEST PUSH1 0x0 PUSH2 0x103F DUP7 DUP3 DUP8 ADD PUSH2 0xF81 JUMP JUMPDEST SWAP4 POP POP PUSH1 0x20 PUSH2 0x1050 DUP7 DUP3 DUP8 ADD PUSH2 0xF81 JUMP JUMPDEST SWAP3 POP POP PUSH1 0x40 PUSH2 0x1061 DUP7 DUP3 DUP8 ADD PUSH2 0xF96 JUMP JUMPDEST SWAP2 POP POP SWAP3 POP SWAP3 POP SWAP3 JUMP JUMPDEST PUSH1 0x0 DUP1 PUSH1 0x40 DUP4 DUP6 SUB SLT ISZERO PUSH2 0x1082 JUMPI PUSH2 0x1081 PUSH2 0x1646 JUMP JUMPDEST JUMPDEST PUSH1 0x0 PUSH2 0x1090 DUP6 DUP3 DUP7 ADD PUSH2 0xF81 JUMP JUMPDEST SWAP3 POP POP PUSH1 0x20 PUSH2 0x10A1 DUP6 DUP3 DUP7 ADD PUSH2 0xF96 JUMP JUMPDEST SWAP2 POP POP SWAP3 POP SWAP3 SWAP1 POP JUMP JUMPDEST PUSH1 0x0 PUSH1 0x20 DUP3 DUP5 SUB SLT ISZERO PUSH2 0x10C1 JUMPI PUSH2 0x10C0 PUSH2 0x1646 JUMP JUMPDEST JUMPDEST PUSH1 0x0 PUSH2 0x10CF DUP5 DUP3 DUP6 ADD PUSH2 0xF96 JUMP JUMPDEST SWAP2 POP POP SWAP3 SWAP2 POP POP JUMP JUMPDEST PUSH2 0x10E1 DUP2 PUSH2 0x152E JUMP JUMPDEST DUP3 MSTORE POP POP JUMP JUMPDEST PUSH2 0x10F0 DUP2 PUSH2 0x1540 JUMP JUMPDEST DUP3 MSTORE POP POP JUMP JUMPDEST PUSH1 0x0 PUSH2 0x1101 DUP3 PUSH2 0x14BC JUMP JUMPDEST PUSH2 0x110B DUP2 DUP6 PUSH2 0x14C7 JUMP JUMPDEST SWAP4 POP PUSH2 0x111B DUP2 DUP6 PUSH1 0x20 DUP7 ADD PUSH2 0x1583 JUMP JUMPDEST PUSH2 0x1124 DUP2 PUSH2 0x164B JUMP JUMPDEST DUP5 ADD SWAP2 POP POP SWAP3 SWAP2 POP POP JUMP JUMPDEST PUSH1 0x0 PUSH2 0x113C PUSH1 0x23 DUP4 PUSH2 0x14C7 JUMP JUMPDEST SWAP2 POP PUSH2 0x1147 DUP3 PUSH2 0x165C JUMP JUMPDEST PUSH1 0x40 DUP3 ADD SWAP1 POP SWAP2 SWAP1 POP JUMP JUMPDEST PUSH1 0x0 PUSH2 0x115F PUSH1 0x26 DUP4 PUSH2 0x14C7 JUMP JUMPDEST SWAP2 POP PUSH2 0x116A DUP3 PUSH2 0x16AB JUMP JUMPDEST PUSH1 0x40 DUP3 ADD SWAP1 POP SWAP2 SWAP1 POP JUMP JUMPDEST PUSH1 0x0 PUSH2 0x1182 PUSH1 0x22 DUP4 PUSH2 0x14C7 JUMP JUMPDEST SWAP2 POP PUSH2 0x118D DUP3 PUSH2 0x16FA JUMP JUMPDEST PUSH1 0x40 DUP3 ADD SWAP1 POP SWAP2 SWAP1 POP JUMP JUMPDEST PUSH1 0x0 PUSH2 0x11A5 PUSH1 0x1D DUP4 PUSH2 0x14C7 JUMP JUMPDEST SWAP2 POP PUSH2 0x11B0 DUP3 PUSH2 0x1749 JUMP JUMPDEST PUSH1 0x20 DUP3 ADD SWAP1 POP SWAP2 SWAP1 POP JUMP JUMPDEST PUSH1 0x0 PUSH2 0x11C8 PUSH1 0x26 DUP4 PUSH2 0x14C7 JUMP JUMPDEST SWAP2 POP PUSH2 0x11D3 DUP3 PUSH2 0x1772 JUMP JUMPDEST PUSH1 0x40 DUP3 ADD SWAP1 POP SWAP2 SWAP1 POP JUMP JUMPDEST PUSH1 0x0 PUSH2 0x11EB PUSH1 0x15 DUP4 PUSH2 0x14C7 JUMP JUMPDEST SWAP2 POP PUSH2 0x11F6 DUP3 PUSH2 0x17C1 JUMP JUMPDEST PUSH1 0x20 DUP3 ADD SWAP1 POP SWAP2 SWAP1 POP JUMP JUMPDEST PUSH1 0x0 PUSH2 0x120E PUSH1 0x28 DUP4 PUSH2 0x14C7 JUMP JUMPDEST SWAP2 POP PUSH2 0x1219 DUP3 PUSH2 0x17EA JUMP JUMPDEST PUSH1 0x40 DUP3 ADD SWAP1 POP SWAP2 SWAP1 POP JUMP JUMPDEST PUSH1 0x0 PUSH2 0x1231 PUSH1 0x20 DUP4 PUSH2 0x14C7 JUMP JUMPDEST SWAP2 POP PUSH2 0x123C DUP3 PUSH2 0x1839 JUMP JUMPDEST PUSH1 0x20 DUP3 ADD SWAP1 POP SWAP2 SWAP1 POP JUMP JUMPDEST PUSH1 0x0 PUSH2 0x1254 PUSH1 0x25 DUP4 PUSH2 0x14C7 JUMP JUMPDEST SWAP2 POP PUSH2 0x125F DUP3 PUSH2 0x1862 JUMP JUMPDEST PUSH1 0x40 DUP3 ADD SWAP1 POP SWAP2 SWAP1 POP JUMP JUMPDEST PUSH1 0x0 PUSH2 0x1277 PUSH1 0x24 DUP4 PUSH2 0x14C7 JUMP JUMPDEST SWAP2 POP PUSH2 0x1282 DUP3 PUSH2 0x18B1 JUMP JUMPDEST PUSH1 0x40 DUP3 ADD SWAP1 POP SWAP2 SWAP1 POP JUMP JUMPDEST PUSH1 0x0 PUSH2 0x129A PUSH1 0x25 DUP4 PUSH2 0x14C7 JUMP JUMPDEST SWAP2 POP PUSH2 0x12A5 DUP3 PUSH2 0x1900 JUMP JUMPDEST PUSH1 0x40 DUP3 ADD SWAP1 POP SWAP2 SWAP1 POP JUMP JUMPDEST PUSH2 0x12B9 DUP2 PUSH2 0x156C JUMP JUMPDEST DUP3 MSTORE POP POP JUMP JUMPDEST PUSH2 0x12C8 DUP2 PUSH2 0x1576 JUMP JUMPDEST DUP3 MSTORE POP POP JUMP JUMPDEST PUSH1 0x0 PUSH1 0x20 DUP3 ADD SWAP1 POP PUSH2 0x12E3 PUSH1 0x0 DUP4 ADD DUP5 PUSH2 0x10D8 JUMP JUMPDEST SWAP3 SWAP2 POP POP JUMP JUMPDEST PUSH1 0x0 PUSH1 0x20 DUP3 ADD SWAP1 POP PUSH2 0x12FE PUSH1 0x0 DUP4 ADD DUP5 PUSH2 0x10E7 JUMP JUMPDEST SWAP3 SWAP2 POP POP JUMP JUMPDEST PUSH1 0x0 PUSH1 0x20 DUP3 ADD SWAP1 POP DUP2 DUP2 SUB PUSH1 0x0 DUP4 ADD MSTORE PUSH2 0x131E DUP2 DUP5 PUSH2 0x10F6 JUMP JUMPDEST SWAP1 POP SWAP3 SWAP2 POP POP JUMP JUMPDEST PUSH1 0x0 PUSH1 0x20 DUP3 ADD SWAP1 POP DUP2 DUP2 SUB PUSH1 0x0 DUP4 ADD MSTORE PUSH2 0x133F DUP2 PUSH2 0x112F JUMP JUMPDEST SWAP1 POP SWAP2 SWAP1 POP JUMP JUMPDEST PUSH1 0x0 PUSH1 0x20 DUP3 ADD SWAP1 POP DUP2 DUP2 SUB PUSH1 0x0 DUP4 ADD MSTORE PUSH2 0x135F DUP2 PUSH2 0x1152 JUMP JUMPDEST SWAP1 POP SWAP2 SWAP1 POP JUMP JUMPDEST PUSH1 0x0 PUSH1 0x20 DUP3 ADD SWAP1 POP DUP2 DUP2 SUB PUSH1 0x0 DUP4 ADD MSTORE PUSH2 0x137F DUP2 PUSH2 0x1175 JUMP JUMPDEST SWAP1 POP SWAP2 SWAP1 POP JUMP JUMPDEST PUSH1 0x0 PUSH1 0x20 DUP3 ADD SWAP1 POP DUP2 DUP2 SUB PUSH1 0x0 DUP4 ADD MSTORE PUSH2 0x139F DUP2 PUSH2 0x1198 JUMP JUMPDEST SWAP1 POP SWAP2 SWAP1 POP JUMP JUMPDEST PUSH1 0x0 PUSH1 0x20 DUP3 ADD SWAP1 POP DUP2 DUP2 SUB PUSH1 0x0 DUP4 ADD MSTORE PUSH2 0x13BF DUP2 PUSH2 0x11BB JUMP JUMPDEST SWAP1 POP SWAP2 SWAP1 POP JUMP JUMPDEST PUSH1 0x0 PUSH1 0x20 DUP3 ADD SWAP1 POP DUP2 DUP2 SUB PUSH1 0x0 DUP4 ADD MSTORE PUSH2 0x13DF DUP2 PUSH2 0x11DE JUMP JUMPDEST SWAP1 POP SWAP2 SWAP1 POP JUMP JUMPDEST PUSH1 0x0 PUSH1 0x20 DUP3 ADD SWAP1 POP DUP2 DUP2 SUB PUSH1 0x0 DUP4 ADD MSTORE PUSH2 0x13FF DUP2 PUSH2 0x1201 JUMP JUMPDEST SWAP1 POP SWAP2 SWAP1 POP JUMP JUMPDEST PUSH1 0x0 PUSH1 0x20 DUP3 ADD SWAP1 POP DUP2 DUP2 SUB PUSH1 0x0 DUP4 ADD MSTORE PUSH2 0x141F DUP2 PUSH2 0x1224 JUMP JUMPDEST SWAP1 POP SWAP2 SWAP1 POP JUMP JUMPDEST PUSH1 0x0 PUSH1 0x20 DUP3 ADD SWAP1 POP DUP2 DUP2 SUB PUSH1 0x0 DUP4 ADD MSTORE PUSH2 0x143F DUP2 PUSH2 0x1247 JUMP JUMPDEST SWAP1 POP SWAP2 SWAP1 POP JUMP JUMPDEST PUSH1 0x0 PUSH1 0x20 DUP3 ADD SWAP1 POP DUP2 DUP2 SUB PUSH1 0x0 DUP4 ADD MSTORE PUSH2 0x145F DUP2 PUSH2 0x126A JUMP JUMPDEST SWAP1 POP SWAP2 SWAP1 POP JUMP JUMPDEST PUSH1 0x0 PUSH1 0x20 DUP3 ADD SWAP1 POP DUP2 DUP2 SUB PUSH1 0x0 DUP4 ADD MSTORE PUSH2 0x147F DUP2 PUSH2 0x128D JUMP JUMPDEST SWAP1 POP SWAP2 SWAP1 POP JUMP JUMPDEST PUSH1 0x0 PUSH1 0x20 DUP3 ADD SWAP1 POP PUSH2 0x149B PUSH1 0x0 DUP4 ADD DUP5 PUSH2 0x12B0 JUMP JUMPDEST SWAP3 SWAP2 POP POP JUMP JUMPDEST PUSH1 0x0 PUSH1 0x20 DUP3 ADD SWAP1 POP PUSH2 0x14B6 PUSH1 0x0 DUP4 ADD DUP5 PUSH2 0x12BF JUMP JUMPDEST SWAP3 SWAP2 POP POP JUMP JUMPDEST PUSH1 0x0 DUP2 MLOAD SWAP1 POP SWAP2 SWAP1 POP JUMP JUMPDEST PUSH1 0x0 DUP3 DUP3 MSTORE PUSH1 0x20 DUP3 ADD SWAP1 POP SWAP3 SWAP2 POP POP JUMP JUMPDEST PUSH1 0x0 PUSH2 0x14E3 DUP3 PUSH2 0x156C JUMP JUMPDEST SWAP2 POP PUSH2 0x14EE DUP4 PUSH2 0x156C JUMP JUMPDEST SWAP3 POP DUP3 PUSH32 0xFFFFFFFFFFFFFFFFFFFFFFFFFFFFFFFFFFFFFFFFFFFFFFFFFFFFFFFFFFFFFFFF SUB DUP3 GT ISZERO PUSH2 0x1523 JUMPI PUSH2 0x1522 PUSH2 0x15E8 JUMP JUMPDEST JUMPDEST DUP3 DUP3 ADD SWAP1 POP SWAP3 SWAP2 POP POP JUMP JUMPDEST PUSH1 0x0 PUSH2 0x1539 DUP3 PUSH2 0x154C JUMP JUMPDEST SWAP1 POP SWAP2 SWAP1 POP JUMP JUMPDEST PUSH1 0x0 DUP2 ISZERO ISZERO SWAP1 POP SWAP2 SWAP1 POP JUMP JUMPDEST PUSH1 0x0 PUSH20 0xFFFFFFFFFFFFFFFFFFFFFFFFFFFFFFFFFFFFFFFF DUP3 AND SWAP1 POP SWAP2 SWAP1 POP JUMP JUMPDEST PUSH1 0x0 DUP2 SWAP1 POP SWAP2 SWAP1 POP JUMP JUMPDEST PUSH1 0x0 PUSH1 0xFF DUP3 AND SWAP1 POP SWAP2 SWAP1 POP JUMP JUMPDEST PUSH1 0x0 JUMPDEST DUP4 DUP2 LT ISZERO PUSH2 0x15A1 JUMPI DUP1 DUP3 ADD MLOAD DUP2 DUP5 ADD MSTORE PUSH1 0x20 DUP2 ADD SWAP1 POP PUSH2 0x1586 JUMP JUMPDEST DUP4 DUP2 GT ISZERO PUSH2 0x15B0 JUMPI PUSH1 0x0 DUP5 DUP5 ADD MSTORE JUMPDEST POP POP POP POP JUMP JUMPDEST PUSH1 0x0 PUSH1 0x2 DUP3 DIV SWAP1 POP PUSH1 0x1 DUP3 AND DUP1 PUSH2 0x15CE JUMPI PUSH1 0x7F DUP3 AND SWAP2 POP JUMPDEST PUSH1 0x20 DUP3 LT DUP2 EQ ISZERO PUSH2 0x15E2 JUMPI PUSH2 0x15E1 PUSH2 0x1617 JUMP JUMPDEST JUMPDEST POP SWAP2 SWAP1 POP JUMP JUMPDEST PUSH32 0x4E487B7100000000000000000000000000000000000000000000000000000000 PUSH1 0x0 MSTORE PUSH1 0x11 PUSH1 0x4 MSTORE PUSH1 0x24 PUSH1 0x0 REVERT JUMPDEST PUSH32 0x4E487B7100000000000000000000000000000000000000000000000000000000 PUSH1 0x0 MSTORE PUSH1 0x22 PUSH1 0x4 MSTORE PUSH1 0x24 PUSH1 0x0 REVERT JUMPDEST PUSH1 0x0 DUP1 REVERT JUMPDEST PUSH1 0x0 PUSH1 0x1F NOT PUSH1 0x1F DUP4 ADD AND SWAP1 POP SWAP2 SWAP1 POP JUMP JUMPDEST PUSH32 0x45524332303A207472616E7366657220746F20746865207A65726F2061646472 PUSH1 0x0 DUP3 ADD MSTORE PUSH32 0x6573730000000000000000000000000000000000000000000000000000000000 PUSH1 0x20 DUP3 ADD MSTORE POP JUMP JUMPDEST PUSH32 0x4F776E61626C653A206E6577206F776E657220697320746865207A65726F2061 PUSH1 0x0 DUP3 ADD MSTORE PUSH32 0x6464726573730000000000000000000000000000000000000000000000000000 PUSH1 0x20 DUP3 ADD MSTORE POP JUMP JUMPDEST PUSH32 0x45524332303A20617070726F766520746F20746865207A65726F206164647265 PUSH1 0x0 DUP3 ADD MSTORE PUSH32 0x7373000000000000000000000000000000000000000000000000000000000000 PUSH1 0x20 DUP3 ADD MSTORE POP JUMP JUMPDEST PUSH32 0x45524332303A20696E73756666696369656E7420616C6C6F77616E6365000000 PUSH1 0x0 DUP3 ADD MSTORE POP JUMP JUMPDEST PUSH32 0x45524332303A207472616E7366657220616D6F756E7420657863656564732062 PUSH1 0x0 DUP3 ADD MSTORE PUSH32 0x616C616E63650000000000000000000000000000000000000000000000000000 PUSH1 0x20 DUP3 ADD MSTORE POP JUMP JUMPDEST PUSH32 0x4552524F52202D20496E76616C69642056616C75650000000000000000000000 PUSH1 0x0 DUP3 ADD MSTORE POP JUMP JUMPDEST PUSH32 0x4552524F52202D2054656D706F72617279205472616E73666572204C696D6974 PUSH1 0x0 DUP3 ADD MSTORE PUSH32 0x2052656163686564000000000000000000000000000000000000000000000000 PUSH1 0x20 DUP3 ADD MSTORE POP JUMP JUMPDEST PUSH32 0x4F776E61626C653A2063616C6C6572206973206E6F7420746865206F776E6572 PUSH1 0x0 DUP3 ADD MSTORE POP JUMP JUMPDEST PUSH32 0x45524332303A207472616E736665722066726F6D20746865207A65726F206164 PUSH1 0x0 DUP3 ADD MSTORE PUSH32 0x6472657373000000000000000000000000000000000000000000000000000000 PUSH1 0x20 DUP3 ADD MSTORE POP JUMP JUMPDEST PUSH32 0x45524332303A20617070726F76652066726F6D20746865207A65726F20616464 PUSH1 0x0 DUP3 ADD MSTORE PUSH32 0x7265737300000000000000000000000000000000000000000000000000000000 PUSH1 0x20 DUP3 ADD MSTORE POP JUMP JUMPDEST PUSH32 0x45524332303A2064656372656173656420616C6C6F77616E63652062656C6F77 PUSH1 0x0 DUP3 ADD MSTORE PUSH32 0x207A65726F000000000000000000000000000000000000000000000000000000 PUSH1 0x20 DUP3 ADD MSTORE POP JUMP JUMPDEST PUSH2 0x1958 DUP2 PUSH2 0x152E JUMP JUMPDEST DUP2 EQ PUSH2 0x1963 JUMPI PUSH1 0x0 DUP1 REVERT JUMPDEST POP JUMP JUMPDEST PUSH2 0x196F DUP2 PUSH2 0x156C JUMP JUMPDEST DUP2 EQ PUSH2 0x197A JUMPI PUSH1 0x0 DUP1 REVERT JUMPDEST POP JUMP INVALID LOG2 PUSH5 0x6970667358 0x22 SLT KECCAK256 0xA5 PUSH28 0x7C7D1320F9AE0AA36C67564A2AC03B5C184D2E8F027B91542CA02183 0xAC PUSH6 0x64736F6C6343 STOP ADDMOD SMOD STOP CALLER "
				},
				"gasEstimates": {
					"creation": {
						"codeDepositCost": "1315800",
						"executionCost": "infinite",
						"totalCost": "infinite"
					},
					"external": {
						"LOCK()": "2493",
						"MAX_SUPPLY()": "2474",
						"MAX_TRANSFER()": "2518",
						"allowance(address,address)": "infinite",
						"approve(address,uint256)": "infinite",
						"balanceOf(address)": "2952",
						"changeMaxTransfer(uint256)": "infinite",
						"decimals()": "366",
						"decreaseAllowance(address,uint256)": "infinite",
						"flipLock()": "31238",
						"increaseAllowance(address,uint256)": "infinite",
						"name()": "infinite",
						"owner()": "2567",
						"renounceOwnership()": "30421",
						"symbol()": "infinite",
						"totalSupply()": "2505",
						"transfer(address,uint256)": "infinite",
						"transferFrom(address,address,uint256)": "infinite",
						"transferOwnership(address)": "30857"
					}
				},
				"methodIdentifiers": {
					"LOCK()": "a4f0d7d0",
					"MAX_SUPPLY()": "32cb6b0c",
					"MAX_TRANSFER()": "9d53827f",
					"allowance(address,address)": "dd62ed3e",
					"approve(address,uint256)": "095ea7b3",
					"balanceOf(address)": "70a08231",
					"changeMaxTransfer(uint256)": "ed246c66",
					"decimals()": "313ce567",
					"decreaseAllowance(address,uint256)": "a457c2d7",
					"flipLock()": "6718161e",
					"increaseAllowance(address,uint256)": "39509351",
					"name()": "06fdde03",
					"owner()": "8da5cb5b",
					"renounceOwnership()": "715018a6",
					"symbol()": "95d89b41",
					"totalSupply()": "18160ddd",
					"transfer(address,uint256)": "a9059cbb",
					"transferFrom(address,address,uint256)": "23b872dd",
					"transferOwnership(address)": "f2fde38b"
				}
			},
			"storageLayout": {
				"storage": [
					{
						"astId": 128,
						"contract": "contracts/NewPINK/PINK_TOKEN.sol:PinkToken",
						"label": "_balances",
						"offset": 0,
						"slot": "0",
						"type": "t_mapping(t_address,t_uint256)"
					},
					{
						"astId": 134,
						"contract": "contracts/NewPINK/PINK_TOKEN.sol:PinkToken",
						"label": "_allowances",
						"offset": 0,
						"slot": "1",
						"type": "t_mapping(t_address,t_mapping(t_address,t_uint256))"
					},
					{
						"astId": 136,
						"contract": "contracts/NewPINK/PINK_TOKEN.sol:PinkToken",
						"label": "_totalSupply",
						"offset": 0,
						"slot": "2",
						"type": "t_uint256"
					},
					{
						"astId": 138,
						"contract": "contracts/NewPINK/PINK_TOKEN.sol:PinkToken",
						"label": "_name",
						"offset": 0,
						"slot": "3",
						"type": "t_string_storage"
					},
					{
						"astId": 140,
						"contract": "contracts/NewPINK/PINK_TOKEN.sol:PinkToken",
						"label": "_symbol",
						"offset": 0,
						"slot": "4",
						"type": "t_string_storage"
					},
					{
						"astId": 7,
						"contract": "contracts/NewPINK/PINK_TOKEN.sol:PinkToken",
						"label": "_owner",
						"offset": 0,
						"slot": "5",
						"type": "t_address"
					},
					{
						"astId": 834,
						"contract": "contracts/NewPINK/PINK_TOKEN.sol:PinkToken",
						"label": "MAX_SUPPLY",
						"offset": 0,
						"slot": "6",
						"type": "t_uint256"
					},
					{
						"astId": 837,
						"contract": "contracts/NewPINK/PINK_TOKEN.sol:PinkToken",
						"label": "LOCK",
						"offset": 0,
						"slot": "7",
						"type": "t_bool"
					},
					{
						"astId": 839,
						"contract": "contracts/NewPINK/PINK_TOKEN.sol:PinkToken",
						"label": "MAX_TRANSFER",
						"offset": 0,
						"slot": "8",
						"type": "t_uint256"
					}
				],
				"types": {
					"t_address": {
						"encoding": "inplace",
						"label": "address",
						"numberOfBytes": "20"
					},
					"t_bool": {
						"encoding": "inplace",
						"label": "bool",
						"numberOfBytes": "1"
					},
					"t_mapping(t_address,t_mapping(t_address,t_uint256))": {
						"encoding": "mapping",
						"key": "t_address",
						"label": "mapping(address => mapping(address => uint256))",
						"numberOfBytes": "32",
						"value": "t_mapping(t_address,t_uint256)"
					},
					"t_mapping(t_address,t_uint256)": {
						"encoding": "mapping",
						"key": "t_address",
						"label": "mapping(address => uint256)",
						"numberOfBytes": "32",
						"value": "t_uint256"
					},
					"t_string_storage": {
						"encoding": "bytes",
						"label": "string",
						"numberOfBytes": "32"
					},
					"t_uint256": {
						"encoding": "inplace",
						"label": "uint256",
						"numberOfBytes": "32"
					}
				}
			},
			"userdoc": {
				"kind": "user",
				"methods": {},
				"version": 1
			}
		}
	}
}